:100000000C9453000C947B000C947B000C947B00AC
:100010000C947B000C947B000C947B000C947B0074
:100020000C947B000C947B000C947B000C947B0064
:100030000C947B000C947B000C947B000C947B0054
:100040000C94FF020C947B000C94CD020C94A7023C
:100050000C947B000C947B000C947B000C947B0034
:100060000C9449030C947B0000000000250028003C
:100070002B0000000000240027002A0004040404D0
:100080000404040402020202020203030303030342
:10009000010204081020408001020408102001021F
:1000A00004081020770411241FBECFEFD8E0DEBF74
:1000B000CDBF11E0A0E0B1E0EEE5FDE002C00590AB
:1000C0000D92AA34B107D9F722E0AAE4B1E001C049
:1000D0001D92AB3BB207E1F710E0C3E5D0E004C0EE
:1000E0002197FE010E94A206C235D107C9F70E94DE
:1000F000C2040C94AD060C940000EAECF1E0A08977
:10010000B18982E08C93A485B5851C92A685B785BC
:1001100087E08C93108EA489B58986E08C93A289A0
:10012000B3898C9180618C93A289B3898C9188600A
:100130008C93A289B3898C9180688C930288F3890F
:10014000E02D80818F7D80830895CF92DF92EF92A2
:10015000FF920F931F93CF93DF936C017A018B0172
:10016000C0E0D0E0CE15DF0589F0D8016D918D019A
:10017000D601ED91FC910190F081E02DC601099529
:10018000892B11F47E0102C02196ECCFC701DF91CB
:10019000CF911F910F91FF90EF90DF90CF90089536
:1001A000FC01538D448D252F30E0842F90E0821B7D
:1001B000930B541710F0CF96089501970895FC0102
:1001C000918D828D981761F0828DDF01A80FB11D8E
:1001D0005D968C91928D9F5F9F73928F90E00895B2
:1001E0008FEF9FEF0895FC01918D828D981731F06C
:1001F000828DE80FF11D858D90E008958FEF9FEFC0
:100200000895FC01918D228D892F90E0805C9F4F95
:10021000821B91098F73992708958AEC91E00E94BF
:10022000010121E0892B09F420E0822F0895FC01CF
:10023000848DDF01A80FB11DA35ABF4F2C91848D6F
:1002400090E001968F739927848FA689B7892C93A4
:10025000A089B1898C9180648C93938D848D98133F
:1002600006C00288F389E02D80818F7D8083089508
:10027000EF92FF920F931F93CF93DF93EC0181E0F6
:10028000888F9B8D8C8D981305C0E889F9898081B2
:1002900085FD24C0F62E0B8D10E00F5F1F4F0F73EE
:1002A0001127E02E8C8DE8120CC00FB607FCFACF98
:1002B000E889F989808185FFF5CFCE010E94170179
:1002C000F1CF8B8DFE01E80FF11DE35AFF4FF08255
:1002D0000B8FEA89FB898081806207C0EE89FF89E4
:1002E0006083E889F98980818064808381E090E07F
:1002F000DF91CF911F910F91FF90EF900895CF93D1
:10030000DF93EC01888D8823C9F0EA89FB8980811D
:1003100085FD05C0A889B9898C9186FD0FC00FB6EF
:1003200007FCF5CF808185FFF2CFA889B9898C9130
:1003300085FFEDCFCE010E941701E7CFDF91CF916E
:10034000089580E090E0892B29F00E940D01811131
:100350000C94000008952FB7F8946091BE0170913D
:10036000BF018091C0019091C1012FBF08958F926C
:100370009F92AF92BF92CF92DF92EF92FF926B016A
:100380007C010E94AB014B015C01C60ED71EE81E2A
:10039000F91E0E94AB01681579058A059B0528F0B6
:1003A000C616D706E806F906A0F7FF90EF90DF9093
:1003B000CF90BF90AF909F908F90089585ED8093E0
:1003C000BC008091BC0084FDFCCF10929301089585
:1003D00040916D01262F30E0240F311D213231056F
:1003E000DCF4209193012430C9F4FC0180E090E01A
:1003F000861758F430916D012191DC01A55BBE4F49
:10040000A30FB11D2C930196F3CF80916D01680F5E
:1004100060936D0180E0089581E0089582E0089581
:1004200008958FEF9FEF08958FEF9FEF08958091CC
:100430004A0190E09195819591090895CF93DF93BA
:1004400000D0CDB7DEB7CB01642F49835A830E9419
:10045000E8014981842F5A81952F0F900F90DF91E9
:10046000CF910895CF93DF931F92CDB7DEB7698305
:1004700061E0CE0101960E94E80181E090E00F90DA
:10048000DF91CF910895089580E090E0089561157F
:10049000710579F0FB0101900020E9F73197AF0178
:1004A000461B570BDC01ED91FC910280F381E02D9E
:1004B000099480E090E008954F925F926F927F924E
:1004C000EF92FF920F931F93CF93DF93CDB7DEB7D9
:1004D000A1970FB6F894DEBF0FBECDBF7C01FA0125
:1004E000CB0119A2223008F42AE08E010F5D1F4FC4
:1004F000422E512C612C712CBF01A30192010E944C
:100500008006F901CA01015011096A3014F4605DD6
:1005100001C0695CD8016C93232B242B252B61F738
:10052000B801C7010E944702A1960FB6F894DEBF3A
:100530000FBECDBFDF91CF911F910F91FF90EF9034
:100540007F906F905F904F9008950E94A8061F9231
:100550000F920FB60F9211242F933F934F935F93F7
:100560006F937F938F939F93AF93BF93EF93FF937B
:100570008AEC91E00E941701FF91EF91BF91AF913A
:100580009F918F917F916F915F914F913F912F91AB
:100590000F900FBE0F901F9018951F920F920FB6DD
:1005A0000F9211242F938F939F93EF93FF93E091DA
:1005B000DA01F091DB018081E091E001F091E1014D
:1005C00082FD12C090818091E3018F5F8F73209133
:1005D000E401821751F0E091E301F0E0E653FE4FB1
:1005E000958F8093E30101C08081FF91EF919F91EE
:1005F0008F912F910F900FBE0F901F9018951F9203
:100600000F920FB60F9211242F933F938F939F93C6
:10061000AF93BF938091BE019091BF01A091C001A3
:10062000B091C1013091BD0123E0230F2D3720F49B
:100630000196A11DB11D05C026E8230F0296A11D3C
:10064000B11D2093BD018093BE019093BF01A09383
:10065000C001B093C1018091B9019091BA01A091FC
:10066000BB01B091BC010196A11DB11D8093B901E0
:100670009093BA01A093BB01B093BC01BF91AF911D
:100680009F918F913F912F910F900FBE0F901F90D0
:1006900018951F920F920FB60F9211242F933F932C
:1006A0004F935F936F937F938F939F93AF93BF937A
:1006B000EF93FF938091B900887F803609F49CC046
:1006C00068F5883209F45BC090F4803109F454C0B5
:1006D00038F4882309F4F6C0883009F44DC0F6C018
:1006E000883109F44CC0803209F45DC0EFC0803419
:1006F00009F468C048F4803309F455C0883309F020
:10070000E5C080939201D8C0803509F44FC0883588
:1007100009F45DC0883409F0D9C0D6C0883909F41D
:10072000C7C0A8F4883709F467C038F4883609F4DC
:1007300063C0803709F460C0C9C0883809F4B8C004
:10074000803909F45FC0803809F0C0C05BC0803BCD
:1007500009F486C038F4803A09F466C0883A09F48E
:100760007FC0B4C0803C09F4A7C0883C09F4A4C091
:10077000883B09F48AC0AAC08091B80110C090914A
:10078000B7018091B601981770F5E091B70181E04B
:100790008E0F8093B701F0E0EA56FE4F8081809380
:1007A000BB0085EC86C0809392018EC0E091B701BA
:1007B00081E08E0F8093B7018091BB00F0E0EA5694
:1007C000FE4F80839091B7018091B6016EC0E09199
:1007D000B70181E08E0F8093B7018091BB00F0E0FC
:1007E000EA56FE4F80838091950181116DC081E0B2
:1007F0008093940184EA61C083E080939301109216
:100800009101CFCF80919101803208F051C0E091E9
:10081000910181E08E0F809391018091BB00F0E007
:10082000EF58FE4F8083BDCF85EC8093BC001092C3
:10083000930180919101803230F4E0919101F0E0D8
:10084000EF58FE4F10826091910170E0E0916F01CE
:10085000F091700181E791E009951092910136C005
:1008600084E08093930110926E0110926D01E091EB
:100870006B01F0916C01099580916D01811105C0AA
:1008800081E080936D0110924B01E0916E0181E057
:100890008E0F80936E01F0E0E55BFE4F80818093C8
:1008A000BB0090916E0180916D01981708F479CF8B
:1008B00085E88093BC000AC085EC8093BC00109250
:1008C000930104C0109292010E94DE01FF91EF910A
:1008D000BF91AF919F918F917F916F915F914F9158
:1008E0003F912F910F900FBE0F901F901895EAEC3B
:1008F000F1E01382128288EE93E0A0E0B0E08483FE
:100900009583A683B78324E031E03183208325ECEF
:1009100030E03587248724EC30E03787268720ECC9
:1009200030E0318B208B21EC30E0338B228B22ECBA
:1009300030E0358B248B26EC30E0378B268B118E04
:10094000128E138E148EE7E6F2E01682178210865E
:100950001186128613861486158616861786108AC7
:10096000118A128A138A148A158AEFEAF2E0138236
:10097000128284839583A683B78386E191E0918375
:1009800080830895789484B5826084BD84B5816045
:1009900084BD85B5826085BD85B5816085BD80914A
:1009A0006E00816080936E001092810080918100C2
:1009B00082608093810080918100816080938100BA
:1009C000809180008160809380008091B10084607C
:1009D0008093B1008091B00081608093B0008091DD
:1009E0007A00846080937A0080917A00826080939C
:1009F0007A0080917A00816080937A0080917A00F9
:100A0000806880937A001092C1001092AB0210921D
:100A1000AC021092AD021092AE02109269021092D6
:100A20006A0210926B0210926C0268EB7BE080E02D
:100A300090E00E94B7018AEC91E09093AA02809323
:100A4000A9020E947D000E94AB016093690270932D
:100A50006A0280936B0290936C0264E271E0809171
:100A6000A9029091AA020E9447026AE070E080E029
:100A700090E00E94B701EDE9F0E02491E9E8F0E0B0
:100A80008491882399F090E0880F991FFC01EE581B
:100A9000FF4FA591B491FC01E859FF4F85919491C6
:100AA0008FB7F894EC91E22BEC938FBF0E947D00FE
:100AB00084EF882E99249394A12CB12C0E94AB0131
:100AC000672B682B692B41F40E94AB0162307105E2
:100AD0008105910508F40BC10E94AB016093C6012A
:100AE0007093C7018093C8019093C901C090C2015F
:100AF000D090C301E090C401F090C5016C157D0554
:100B00008E059F0540F46093C2017093C3018093EA
:100B1000C4019093C501C090C201D090C301E09080
:100B2000C401F090C5019B01AC012C193D094E098F
:100B30005F0969017A013AEFC316D104E104F104B7
:100B400008F4D5C06093C2017093C3018093C401BF
:100B50009093C5018092750290927602A0927702DE
:100B6000B09278021092790210927A0210927B026F
:100B700010927C0280916D0290916E02A0916F02A2
:100B8000B09170028093710290937202A0937302ED
:100B9000B09374020E94AB0160936D0270936E0279
:100BA00080936F02909370020E94AB016093690280
:100BB00070936A0280936B0290936C020E94AB0167
:100BC0006B017C0165E371E08091A9029091AA021A
:100BD0000E9447022AE041E050E060E070E080912E
:100BE000A9029091AA020E945C026CE371E08091DC
:100BF000A9029091AA020E9447022AE0B701A60129
:100C00008091A9029091AA020E945C026EE371E0B9
:100C10008091A9029091AA020E94470280916D02E0
:100C200090916E02A0916F02B0917002B701A6017F
:100C3000481B590B6A0B7B0B2AE08091A90290910B
:100C4000AA020E945C026EE371E08091A902909179
:100C5000AA020E94470240916D0250916E0260917B
:100C60006F02709170028091710290917202A09156
:100C70007302B0917402481B590B6A0B7B0B2AE07C
:100C80008091A9029091AA020E945C0260E471E046
:100C90008091A9029091AA020E9447020E94AB0192
:100CA000AB01BC012AE08091A9029091AA020E94A6
:100CB0005C02E090A902F090AA0262E471E0C70130
:100CC0000E94470262E371E0C7010E94470265E0AB
:100CD00070E080E090E00E94B7010E94AB01609359
:100CE0006D0270936E0280936F02909370028AEC93
:100CF00091E00E940101892BD1F30E94A101DECE77
:100D0000A1E21A2EAA1BBB1BFD010DC0AA1FBB1F0F
:100D1000EE1FFF1FA217B307E407F50720F0A21B81
:100D2000B30BE40BF50B661F771F881F991F1A94EE
:100D300069F760957095809590959B01AC01BD0118
:100D4000CF010895EE0FFF1F0590F491E02D099457
:0E0D500081E090E0F8940C94AD06F894FFCF8B
:100D5E00000000003801A500D0007F010101DF0076
:100D6E00F3000000000032021E02440210021702BD
:100D7E0014021102564D4450565F317C5F564D445D
:100D8E0050560D0A00564D4450455F003A323A0017
:0A0D9E007C005F564D4450450000F4
:00000001FF
