:100000000C9453000C947B000C947B000C947B00AC
:100010000C947B000C947B000C947B000C947B0074
:100020000C947B000C947B000C947B000C947B0064
:100030000C947B000C947B000C947B000C947B0054
:100040000C9446020C947B000C9414020C94EE0168
:100050000C947B000C947B000C947B000C947B0034
:100060000C9490020C947B000000000025002800F6
:100070002B0000000000240027002A0004040404D0
:100080000404040402020202020203030303030342
:10009000010204081020408001020408102001021F
:1000A00004081020BE0311241FBECFEFD8E0DEBF2E
:1000B000CDBF11E0A0E0B1E0E2E7FAE002C00590B8
:1000C0000D92A432B107D9F722E0A4E2B1E001C059
:1000D0001D92AA38B207E1F710E0C3E5D0E004C0F2
:1000E0002197FE010E942C05C235D107C9F70E9455
:1000F000F7030C9437050C940000CF92DF92EF9237
:10010000FF920F931F93CF93DF936C017A018B01C2
:10011000C0E0D0E0CE15DF0589F0D8016D918D01EA
:10012000D601ED91FC910190F081E02DC601099579
:10013000892B11F47E0102C02196ECCFC701DF911B
:10014000CF911F910F91FF90EF90DF90CF90089586
:10015000FC01538D448D252F30E0842F90E0821BCD
:10016000930B541710F0CF96089501970895FC0152
:10017000918D828D981761F0828DDF01A80FB11DDE
:100180005D968C91928D9F5F9F73928F90E0089502
:100190008FEF9FEF0895FC01918D828D981731F0BC
:1001A000828DE80FF11D858D90E008958FEF9FEF10
:1001B0000895FC01918D228D892F90E0805C9F4FE6
:1001C000821B91098F739927089581EE91E00E9417
:1001D000D90021E0892B09F420E0822F0895FC0149
:1001E000848DDF01A80FB11DA35ABF4F2C91848DC0
:1001F00090E001968F739927848FA689B7892C93F5
:10020000A089B1898C9180648C93938D848D98138F
:1002100006C00288F389E02D80818F7D8083089558
:10022000EF92FF920F931F93CF93DF93EC0181E046
:10023000888F9B8D8C8D981305C0E889F989808102
:1002400085FD24C0F62E0B8D10E00F5F1F4F0F733E
:100250001127E02E8C8DE8120CC00FB607FCFACFE8
:10026000E889F989808185FFF5CFCE010E94EF00F2
:10027000F1CF8B8DFE01E80FF11DE35AFF4FF082A5
:100280000B8FEA89FB898081806207C0EE89FF8934
:100290006083E889F98980818064808381E090E0CF
:1002A000DF91CF911F910F91FF90EF900895CF9321
:1002B000DF93EC01888D8823C9F0EA89FB8980816E
:1002C00085FD05C0A889B9898C9186FD0FC00FB640
:1002D00007FCF5CF808185FFF2CFA889B9898C9181
:1002E00085FFEDCFCE010E94EF00E7CFDF91CF91E8
:1002F000089580E090E0892B29F00E94E5008111AB
:100300000C940000089585ED8093BC008091BC00A2
:1003100084FDFCCF10926D01089540914701262F76
:1003200030E0240F311D21323105DCF420916D01C4
:100330002430C9F4FC0180E090E0861758F4309135
:1003400047012191DC01AB5DBE4FA30FB11D2C9382
:100350000196F3CF80914701680F6093470180E0D9
:10036000089581E0089582E0089508958FEF9FEF4A
:1003700008958FEF9FEF08958091240190E091956B
:10038000819591090895CF93DF9300D0CDB7DEB763
:10039000CB01642F49835A830E948D014981842FA8
:1003A0005A81952F0F900F90DF91CF910895CF93A1
:1003B000DF931F92CDB7DEB7698361E0CE0101966E
:1003C0000E948D0181E090E00F90DF91CF91089520
:1003D000089580E090E008950E9432051F920F92E8
:1003E0000FB60F9211242F933F934F935F936F9308
:1003F0007F938F939F93AF93BF93EF93FF9381EE80
:1004000091E00E94EF00FF91EF91BF91AF919F911A
:100410008F917F916F915F914F913F912F910F90AD
:100420000FBE0F901F9018951F920F920FB60F924C
:1004300011242F938F939F93EF93FF93E091F101FA
:10044000F091F2018081E091F701F091F80182FDD5
:1004500012C090818091FA018F5F8F732091FB0110
:10046000821751F0E091FA01F0E0EF51FE4F958FC5
:100470008093FA0101C08081FF91EF919F918F914C
:100480002F910F900FBE0F901F9018951F920F92F3
:100490000FB60F9211242F933F938F939F93AF9397
:1004A000BF938091980190919901A0919A01B09188
:1004B0009B013091970123E0230F2D3720F4019603
:1004C000A11DB11D05C026E8230F0296A11DB11D77
:1004D000209397018093980190939901A0939A019A
:1004E000B0939B018091930190919401A09195010B
:1004F000B09196010196A11DB11D80939301909337
:100500009401A0939501B0939601BF91AF919F91F3
:100510008F913F912F910F900FBE0F901F901895C4
:100520001F920F920FB60F9211242F933F934F9368
:100530005F936F937F938F939F93AF93BF93EF934B
:10054000FF938091B900887F803609F49CC068F5DC
:10055000883209F45BC090F4803109F454C038F457
:10056000882309F4F6C0883009F44DC0F6C08831FC
:1005700009F44CC0803209F45DC0EFC0803409F446
:1005800068C048F4803309F455C0883309F0E5C0E9
:1005900080936C01D8C0803509F44FC0883509F4C8
:1005A0005DC0883409F0D9C0D6C0883909F4C7C005
:1005B000A8F4883709F467C038F4883609F463C0B2
:1005C000803709F460C0C9C0883809F4B8C08039E0
:1005D00009F45FC0803809F0C0C05BC0803B09F4FB
:1005E00086C038F4803A09F466C0883A09F47FC0BE
:1005F000B4C0803C09F4A7C0883C09F4A4C0883B7F
:1006000009F48AC0AAC08091920110C09091910112
:1006100080919001981770F5E091910181E08E0F23
:1006200080939101F0E0E059FE4F80818093BB0000
:1006300085EC86C080936C018EC0E091910181E0D1
:100640008E0F809391018091BB00F0E0E059FE4F46
:10065000808390919101809190016EC0E091910111
:1006600081E08E0F809391018091BB00F0E0E05912
:10067000FE4F808380916F0181116DC081E0809376
:100680006E0184EA61C083E080936D0110926B017A
:10069000CFCF80916B01803208F051C0E0916B01A7
:1006A00081E08E0F80936B018091BB00F0E0E55BF1
:1006B000FE4F8083BDCF85EC8093BC0010926D010E
:1006C00080916B01803230F4E0916B01F0E0E55BEA
:1006D000FE4F108260916B0170E0E0914901F09152
:1006E0004A018BE491E0099510926B0136C084E0D9
:1006F00080936D011092480110924701E0914501ED
:10070000F0914601099580914701811105C081E072
:100710008093470110922501E091480181E08E0FFE
:1007200080934801F0E0EB5DFE4F80818093BB0039
:100730009091480180914701981708F479CF85E896
:100740008093BC000AC085EC8093BC0010926D01C0
:1007500004C010926C010E948301FF91EF91BF9140
:10076000AF919F918F917F916F915F914F913F9149
:100770002F910F900FBE0F901F901895E1EEF1E0B2
:100780001382128288EE93E0A0E0B0E08483958328
:10079000A683B78324E031E03183208325EC30E069
:1007A0003587248724EC30E03787268720EC30E03B
:1007B000318B208B21EC30E0338B228B22EC30E02C
:1007C000358B248B26EC30E0378B268B118E128EE6
:1007D000138E148EEEE7F2E01382128284839583E7
:1007E000A683B78386E191E0918380830895CF93B8
:1007F000DF93CDB7DEB7C254D1090FB6F894DEBF90
:100800000FBECDBF789484B5826084BD84B581600D
:1008100084BD85B5826085BD85B5816085BD8091CB
:100820006E00816080936E00109281008091810043
:10083000826080938100809181008160809381003B
:10084000809180008160809380008091B1008460FD
:100850008093B1008091B00081608093B00080915E
:100860007A00846080937A0080917A00826080931D
:100870007A0080917A00816080937A0080917A007A
:10088000806880937A001092C100EDE9F0E0249135
:10089000E9E8F0E08491882399F090E0880F991FAF
:1008A000FC01EE58FF4FA591B491FC01E859FF4FB0
:1008B000859194918FB7F894EC91E22BEC938FBFD4
:1008C000E091F101F091F20182E08083E091ED018D
:1008D000F091EE011082E091EF01F091F00187E0DC
:1008E00080831092F901E091F501F091F60186E024
:1008F0008083E091F301F091F40180818061808335
:10090000E091F301F091F401808188608083E091AF
:10091000F301F091F401808180688083E091F3011C
:10092000F091F40180818F7D8083BB24BA9482E4AE
:10093000A82E94E0992E23E0822E32E0732E6624B6
:10094000639481EE91E00E94D900892B09F481C063
:1009500081EE91E00E94B700823419F460929D010B
:1009600078C090919D01913029F480939F017092FD
:100970009D016FC0923049F48093A00180939E0145
:1009800080929D0110929C0164C09330C1F49091BB
:100990009C01E92FF0E0E156FE4F828320919E01F9
:1009A000822780939E0181E0890F80939C01909122
:1009B000A001891708F44DC090929D014AC094305F
:1009C00059F590919E01891327C010929D01EFE97E
:1009D000F1E0DE0111968A2D01900D928A95E1F7E2
:1009E00010919F010091A00162E481EE91E00E94CC
:1009F0001001612F81EE91E00E941001602F81EEC5
:100A000091E00E94100100939E01CE0103966C01BB
:100A1000E12CF12C10E003C0B0929D011AC0E01649
:100A2000F1068CF4F60151906F01652D81EE91E095
:100A30000E94100180919E01582650929E01FFEF66
:100A4000EF1AFF0AECCF60919E0181EE91E00E94C7
:100A500010010E94790175CFEE0FFF1F0590F491F0
:100A6000E02D099481E090E0F8940C943705F89417
:020A7000FFCFB6
:100A72000000000010017D00A8005701D900B70056
:100A8200CB0000000000D701C301E901B501BC01A0
:040A9200B901B601EF
:00000001FF
