:100000000C9462000C948A000C948A000C948A0070
:100010000C948A000C948A000C948A000C948A0038
:100020000C948A000C948A000C948A000C948A0028
:100030000C948A000C948A000C948A000C948A0018
:100040000C94AD030C948A000C947B030C94550320
:100050000C948A000C948A000C948A000C948A00F8
:100060000C94F7030C948A00000000002300260083
:10007000290000000008000201000003040700003E
:1000800000000000000000000000250028002B00F8
:1000900000000000240027002A00040404040404D3
:1000A0000404020202020202030303030303010227
:1000B00004081020408001020408102001020408F6
:1000C0001020250511241FBECFEFD8E0DEBFCDBF25
:1000D00011E0A0E0B1E0EEE3F1E102C005900D9285
:1000E000A432B107D9F723E0A4E2B1E001C01D9228
:1000F000A537B207E1F710E0C2E6D0E004C02197CF
:10010000FE010E949208C136D107C9F70E940D0670
:100110000C949D080C94000090E0FC01E255FF4F08
:100120002491FC01E656FF4F8491882399F090E0DA
:10013000880F991FFC01E057FF4FA591B491FC0176
:10014000EA57FF4F859194918FB7F894EC91E22B89
:10015000EC938FBF0895CF92DF92EF92FF920F93AF
:100160001F93CF93DF936C017A018B01C0E0D0E045
:10017000CE15DF0589F0D8016D918D01D601ED9185
:10018000FC910190F081E02DC6010995892B11F4B5
:100190007E0102C02196ECCFC701DF91CF911F9164
:1001A0000F91FF90EF90DF90CF900895FC01538D59
:1001B000448D252F30E0842F90E0821B930B541741
:1001C00010F0CF96089501970895FC01918D828DCE
:1001D000981761F0828DDF01A80FB11D5D968C919B
:1001E000928D9F5F9F73928F90E008958FEF9FEFA6
:1001F0000895FC01918D828D981731F0828DE80F62
:10020000F11D858D90E008958FEF9FEF0895FC011B
:10021000918D228D892F90E0805C9F4F821B9109E8
:100220008F73992708958CE292E00E94070121E0E4
:10023000892B09F420E0822F0895FC01848DDF01D1
:10024000A80FB11DA35ABF4F2C91848D90E0019649
:100250008F739927848FA689B7892C93A089B18938
:100260008C9180648C93938D848D981306C0028842
:10027000F389E02D80818F7D80830895EF92FF9236
:100280000F931F93CF93DF93EC0181E0888F9B8DB9
:100290008C8D981305C0E889F989808185FD24C07B
:1002A000F62E0B8D10E00F5F1F4F0F731127E02EFE
:1002B0008C8DE8120CC00FB607FCFACFE889F989DB
:1002C000808185FFF5CFCE010E941D01F1CF8B8D7E
:1002D000FE01E80FF11DE35AFF4FF0820B8FEA8910
:1002E000FB898081806207C0EE89FF896083E8898D
:1002F000F98980818064808381E090E0DF91CF91F3
:100300001F910F91FF90EF900895CF93DF93EC0131
:10031000888D8823C9F0EA89FB89808185FD05C025
:10032000A889B9898C9186FD0FC00FB607FCF5CF5F
:10033000808185FFF2CFA889B9898C9185FFEDCFA7
:10034000CE010E941D01E7CFDF91CF91089580E09B
:1003500090E0892B29F00E94130181110C94000078
:100360000895833081F028F4813099F08230A1F033
:1003700008958730A9F08830B9F08430D1F48091A5
:1003800080008F7D03C0809180008F7780938000F4
:10039000089584B58F7702C084B58F7D84BD08959C
:1003A0008091B0008F7703C08091B0008F7D8093E3
:1003B000B00008951F93CF93DF93282F30E0F90109
:1003C000EE58FF4F8491F901E255FF4FD491F901A6
:1003D000E656FF4FC491CC23C9F0162F81110E941D
:1003E000B101EC2FF0E0EE0FFF1FEA57FF4FA59190
:1003F000B4918FB7F894111105C09C91ED2FE09541
:10040000E92302C0EC91ED2BEC938FBFDF91CF91EC
:100410001F9108953FB7F8948091970190919801AA
:10042000A0919901B0919A0126B5A89B05C02F3FD4
:1004300019F00196A11DB11D3FBFBA2FA92F982F0A
:100440008827820F911DA11DB11DBC01CD0142E085
:10045000660F771F881F991F4A95D1F708958F92CD
:100460009F92AF92BF92CF92DF92EF92FF926B0179
:100470007C010E940A024B015C01C114D104E10419
:10048000F104F1F00E940A02DC01CB0188199909FC
:10049000AA09BB09883E9340A105B10570F321E08C
:1004A000C21AD108E108F10888EE880E83E0981E90
:1004B000A11CB11CC114D104E104F10419F7DDCF72
:1004C000FF90EF90DF90CF90BF90AF909F908F9074
:1004D00008952FB7F89460919301709194018091E1
:1004E0009501909196012FBF089585ED8093BC00F2
:1004F0008091BC0084FDFCCF10926C010895409166
:100500004601262F30E0240F311D21323105DCF465
:1005100020916C012430C9F4FC0180E090E0861742
:1005200058F4309146012191DC01AC5DBE4FA30F20
:10053000B11D2C930196F3CF80914601680F609313
:10054000460180E0089581E0089582E008951092C8
:100550006C0181E080936E0110926D0161E082E197
:100560000E94DA0161E083E10E94DA01E9EBF0E048
:1005700080818E7F808380818D7F808388E48093DB
:10058000B80085E48093BC000895089581E090E070
:100590003091CC022091CB02321710F480E090E031
:1005A00091958195910908958091CC029091CB020B
:1005B000891730F48F5F8093CC0280E090E008953B
:1005C0008FEF9FEF08958091CB0290E02091CC02B5
:1005D000821B91090895CF93DF9300D0CDB7DEB78A
:1005E000CB01642F49835A830E947F024981842F63
:1005F0005A81952F0F900F90DF91CF910895CF934F
:10060000DF931F92CDB7DEB7698361E0CE0101961B
:100610000E947F0281E090E00F90DF91CF910895DA
:10062000089580E090E00895FF920F931F93CF9379
:10063000DF9361E082E00E94DA0162E48CE292E002
:100640000E943E0160919D018CE292E00E943E0179
:10065000C0919F016C2F8CE292E00E943E01C093FA
:100660009C0100E010E0D0E00C171D078CF4F801AD
:10067000E356FE4FF3806F2D8CE292E00E943E0124
:1006800080919C01F826F0929C010F5F1F4FECCFE8
:1006900060919C018CE292E0DF91CF911F910F91CC
:1006A000FF900C943E010E9498081F920F920FB683
:1006B0000F9211242F933F934F935F936F937F93E8
:1006C0008F939F93AF93BF93EF93FF938CE292E04E
:1006D0000E941D01FF91EF91BF91AF919F918F916A
:1006E0007F916F915F914F913F912F910F900FBE2E
:1006F0000F901F9018951F920F920FB60F92112412
:100700002F938F939F93EF93FF93E0913C02F0918F
:100710003D028081E0914202F091430282FD12C0CD
:100720009081809145028F5F8F73209146028217DE
:1007300051F0E0914502F0E0E45DFD4F958F80932C
:10074000450201C08081FF91EF919F918F912F9180
:100750000F900FBE0F901F9018951F920F920FB61B
:100760000F9211242F933F938F939F93AF93BF9337
:100770008091930190919401A0919501B09196017F
:100780003091920123E0230F2D3720F40196A11D13
:10079000B11D05C026E8230F0296A11DB11D2093AF
:1007A00092018093930190939401A0939501B0934B
:1007B00096018091970190919801A0919901B09133
:1007C0009A010196A11DB11D809397019093980104
:1007D000A0939901B0939A01BF91AF919F918F918E
:1007E0003F912F910F900FBE0F901F9018951F9261
:1007F0000F920FB60F9211242F933F934F935F9355
:100800006F937F938F939F93AF93BF93EF93FF93D8
:100810008091B900887F803609F49CC068F58832E1
:1008200009F45BC090F4803109F454C038F4882393
:1008300009F4F6C0883009F44DC0F6C0883109F4D7
:100840004CC0803209F45DC0EFC0803409F468C048
:1008500048F4803309F455C0883309F0E5C080932B
:100860006B01D8C0803509F44FC0883509F45DC0EC
:10087000883409F0D9C0D6C0883909F4C7C0A8F4B3
:10088000883709F467C038F4883609F463C08037C4
:1008900009F460C0C9C0883809F4B8C0803909F4C7
:1008A0005FC0803809F0C0C05BC0803B09F486C0DF
:1008B00038F4803A09F466C0883A09F47FC0B4C0BD
:1008C000803C09F4A7C0883C09F4A4C0883B09F423
:1008D0008AC0AAC08091910110C09091900180912E
:1008E0008F01981770F5E091900181E08E0F809351
:1008F0009001F0E0E159FE4F80818093BB0085ECD0
:1009000086C080936B018EC0E091900181E08E0FD4
:10091000809390018091BB00F0E0E159FE4F80830D
:100920009091900180918F016EC0E091900181E0E3
:100930008E0F809390018091BB00F0E0E159FE4F53
:10094000808380916E0181116DC081E080936D0183
:1009500084EA61C083E080936C0110926A01CFCF7A
:1009600080916A01803208F051C0E0916A0181E013
:100970008E0F80936A018091BB00F0E0E65BFE4F32
:100980008083BDCF85EC8093BC0010926C01809178
:100990006A01803230F4E0916A01F0E0E65BFE4FDC
:1009A000108260916A0170E0E0914801F091490184
:1009B0008AE491E0099510926A0136C084E0809340
:1009C0006C011092470110924601E0914401F091B0
:1009D0004501099580914601811105C081E0809310
:1009E000460110922401E091470181E08E0F80932F
:1009F0004701F0E0EC5DFE4F80818093BB00909159
:100A0000470180914601981708F479CF85E88093D3
:100A1000BC000AC085EC8093BC0010926C0104C03D
:100A200010926B010E947502FF91EF91BF91AF91FF
:100A30009F918F917F916F915F914F913F912F91F6
:100A40000F900FBE0F901F90189510922F021092CA
:100A50002E0288EE93E0A0E0B0E080933002909305
:100A60003102A0933202B093330224E031E030939C
:100A70002D0220932C0225EC30E030933902209394
:100A8000380224EC30E030933B0220933A0220EC11
:100A900030E030933D0220933C0221EC30E0309373
:100AA0003F0220933E0222EC30E03093410220933B
:100AB000400226EC30E03093430220934202109231
:100AC000450210924602109247021092480210927C
:100AD000D0021092CF028093D1029093D202A093C1
:100AE000D302B093D40286E191E09093CE0280933A
:100AF000CD0281E08093F7029BE69093F8029EE19D
:100B00009093F9028093FA0280930603809307037F
:100B10008093080325EF30E03093FC022093FB0222
:100B200096E09093FD021092FE021092FF02109246
:100B3000000310920103109202031092030310921B
:100B40000403109205038093090380930A038093A2
:100B50000D0380930E0380930F0322E020930B0379
:100B600090930C039FEF9093100310921103109237
:100B700012038093130394E09093140397E09093EF
:100B800015031092160393E09093170390931803A4
:100B90001092190310921A0380931B03E7EFF2E0FF
:100BA00020E030E011AE12AE13AE14AEDF01AB5B4D
:100BB000BF4F1D921D921D921C9213971C961D9261
:100BC0001D921D921C921397C90189509D4FDC0103
:100BD000A35ABF4F11961C921E92169611961C9204
:100BE0001E9216961D921C9234962E5F3F4F263011
:100BF0003105C1F6109274031092CC021092CB0210
:100C00001092CA021092C9020E94A70286E790E0E1
:100C10009093E6028093E5020895789484B582600B
:100C200084BD84B5816084BD85B5826085BD85B590
:100C3000816085BD80916E00816080936E0010920E
:100C40008100809181008260809381008091810089
:100C5000816080938100809180008160809380001A
:100C60008091B10084608093B1008091B000816078
:100C70008093B00080917A00846080937A008091A4
:100C80007A00826080937A0080917A0081608093FC
:100C90007A0080917A00806880937A001092C10077
:100CA00014BE61E080E10E94DA01CBE08C2F0E944B
:100CB0008C0061E08C2F0E94DA0166E970E080E030
:100CC00090E00E942F0260E08C2F0E94DA01CF5F3B
:100CD000CE3061F782E00E948C00E0913C02F091FE
:100CE0003D0282E08083E0913802F0913902108267
:100CF000E0913A02F0913B0280E18083109244023D
:100D0000E0914002F091410286E08083E0913E0252
:100D1000F0913F02808180618083E0913E02F091FA
:100D20003F02808188608083E0913E02F0913F0223
:100D3000808180688083E0913E02F0913F02808153
:100D40008F7D80831092CC021092CB021092CA0247
:100D50001092C9020E94A7028CE08093B800109202
:100D600029021092280210922B0210922A0234E0DB
:100D7000C32ED12C04E013E0C2E0D0E0222423945F
:100D8000312C50E1852E57E2952EA12CB12C68EE26
:100D9000462E63E0562E612C712C8CE292E00E946C
:100DA0000701892B09F456C08CE292E00E94E5000D
:100DB000382F823411F481E00AC0209123022130BF
:100DC00049F499279093E1018093E00182E08093B8
:100DD000230240C0223059F48093E20180939C01A9
:100DE0008823D1F01093230210929B0133C023304B
:100DF000B1F490919B01E92FF0E0E052FE4F838324
:100E000020919C01822780939C019F5F90939B017E
:100E10008091E2019817F0F0009323021BC0243068
:100E2000B9F480919C0138130EC025E02093230271
:100E30000E94690260932402709325028093260227
:100E40009093270207C0D0922902C092280202C0C4
:100E50001092230280912302853009F07BC010920A
:100E600023028091E0019091E1018530910509F420
:100E700042C064F48230910509F463C08330910567
:100E800009F45FC0019709F05FC05BC0823891052B
:100E900029F18338910529F08138910509F054C072
:100EA0001DC080912A0290912B024091E301242FD2
:100EB00030E08217930709F44DC0423069F04330A7
:100EC00091F0413009F046C0029709F043C03092DA
:100ED0002B0220922A023EC00197E1F5D0932B020B
:100EE000C0932A0237C080E10E948C0060E080E15C
:100EF0000E94DA01FFCF90939E0180939D01109391
:100F00009F0180912A028093A00180912802809302
:100F1000A10180E480937C0080917A0080648093BA
:100F20007A0080917A0086FDFCCF80917800209134
:100F3000790090E0922B959587959595879580936C
:100F4000A2010E94140306C085E090E0909329025C
:100F5000809328028091C00086FF1AC0E4E7F0E089
:100F60008491E0EBF0E0F490ECE9F0E0E490EE2026
:100F700079F081110E94B101EE2DF0E0EE0FFF1F1C
:100F8000E859FF4FA591B4918C91F82209F075C0F2
:100F90000E9469022091240230912502409126028C
:100FA00050912702DC01CB01821B930BA40BB50BE4
:100FB000833E9440A105B10528F010922B021092B7
:100FC0002A020AC080912A0290912B02892B21F4D7
:100FD00030922B0220922A02E0902802F0902902FF
:100FE000E114F10441F580912A0290912B028130A5
:100FF000910539F08230910551F0892BD9F561E0E6
:1010000001C060E08BE00E94DA0161E012C060E0A4
:101010008BE00E94DA010E946902A30192010E9402
:10102000480821E0643F71408105910508F020E007
:10103000622F8CE01DC00E946902A50194010E94EC
:101040004808CB0168EE73E00E946A089B01843F68
:10105000914024F461E02E153F050CF060E08BE038
:101060000E94DA0160E08CE00E94DA0160E08DE02D
:101070000E94DA010E94A70190CE60E082E00E9407
:10108000DA0164E670E080E090E00E942F0280CFF9
:10109000A1E21A2EAA1BBB1BFD010DC0AA1FBB1F7C
:1010A000EE1FFF1FA217B307E407F50720F0A21BEE
:1010B000B30BE40BF50B661F771F881F991F1A945B
:1010C00069F760957095809590959B01AC01BD0185
:1010D000CF01089597FB072E16F4009407D077FDF3
:1010E00009D00E947E0807FC05D03EF490958195BA
:1010F0009F4F0895709561957F4F0895AA1BBB1B64
:1011000051E107C0AA1FBB1FA617B70710F0A61B07
:10111000B70B881F991F5A95A9F780959095BC0128
:10112000CD010895EE0FFF1F0590F491E02D099475
:0E11300081E090E0F8940C949D08F894FFCFB5
:10113E00000000003E01AB00D60085010701E5006E
:10114E00F90000000000FF02EB021103C502E302EA
:04115E00D402C602EF
:107E0000112484B714BE81FFF0D085E080938100F7
:107E100082E08093C00088E18093C10086E0809377
:107E2000C20080E18093C4008EE0C9D0259A86E02C
:107E300020E33CEF91E0309385002093840096BBD3
:107E4000B09BFECF1D9AA8958150A9F7CC24DD24C4
:107E500088248394B5E0AB2EA1E19A2EF3E0BF2EE7
:107E6000A2D0813461F49FD0082FAFD0023811F036
:107E7000013811F484E001C083E08DD089C08234E0
:107E800011F484E103C0853419F485E0A6D080C0E4
:107E9000853579F488D0E82EFF2485D0082F10E0AE
:107EA000102F00270E291F29000F111F8ED06801E7
:107EB0006FC0863521F484E090D080E0DECF843638
:107EC00009F040C070D06FD0082F6DD080E0C81688
:107ED00080E7D80618F4F601B7BEE895C0E0D1E017
:107EE00062D089930C17E1F7F0E0CF16F0E7DF06D8
:107EF00018F0F601B7BEE89568D007B600FCFDCFD4
:107F0000A601A0E0B1E02C9130E011968C91119780
:107F100090E0982F8827822B932B1296FA010C0160
:107F200087BEE89511244E5F5F4FF1E0A038BF0790
:107F300051F7F601A7BEE89507B600FCFDCF97BE46
:107F4000E89526C08437B1F42ED02DD0F82E2BD052
:107F50003CD0F601EF2C8F010F5F1F4F84911BD097
:107F6000EA94F801C1F70894C11CD11CFA94CF0C13
:107F7000D11C0EC0853739F428D08EE10CD085E9AC
:107F80000AD08FE07ACF813511F488E018D01DD067
:107F900080E101D065CF982F8091C00085FFFCCF94
:107FA0009093C60008958091C00087FFFCCF809118
:107FB000C00084FD01C0A8958091C6000895E0E648
:107FC000F0E098E1908380830895EDDF803219F02E
:107FD00088E0F5DFFFCF84E1DECF1F93182FE3DFCA
:107FE0001150E9F7F2DF1F91089580E0E8DFEE27F6
:047FF000FF270994CA
:027FFE00040479
:0400000300007E007B
:00000001FF