:100000000C9453000C947B000C947B000C947B00AC
:100010000C947B000C947B000C947B000C947B0074
:100020000C947B000C947B000C947B000C947B0064
:100030000C947B000C947B000C947B000C947B0054
:100040000C9479020C947B000C9447020C942102CE
:100050000C947B000C947B000C947B000C947B0034
:100060000C94C3020C947B000000000025002800C3
:100070002B0000000000240027002A0004040404D0
:100080000404040402020202020203030303030342
:10009000010204081020408001020408102001021F
:1000A00004081020F10311241FBECFEFD8E0DEBFFB
:1000B000CDBF11E0A0E0B1E0ECEBFAE002C00590AA
:1000C0000D92A633B107D9F722E0A6E3B1E001C053
:1000D0001D92AF39B207E1F710E0C3E5D0E004C0EC
:1000E0002197FE010E945105C235D107C9F70E9430
:1000F0003C040C945C050C940000CF92DF92EF92CC
:10010000FF920F931F932FB7F894C090AA01D0903D
:10011000AB01E090AC01F090AD012FBFDC01CB0151
:100120008C0D9D1DAE1DBF1D4FB7F8940091AA0107
:100130001091AB012091AC013091AD014FBF0C1576
:100140001D052E053F0528F080179107A207B3076C
:1001500058F71F910F91FF90EF90DF90CF90089587
:10016000CF92DF92EF92FF920F931F93CF93DF9383
:100170006C017A018B01C0E0D0E0CE15DF0589F07B
:10018000D8016D918D01D601ED91FC910190F08126
:10019000E02DC6010995892B11F47E0102C021963C
:1001A000ECCFC701DF91CF911F910F91FF90EF909E
:1001B000DF90CF900895FC01538D448D252F30E0C2
:1001C000842F90E0821B930B541710F0CF96089564
:1001D00001970895FC01918D828D981761F0828DB1
:1001E000DF01A80FB11D5D968C91928D9F5F9F736B
:1001F000928F90E008958FEF9FEF0895FC01918D0D
:10020000828D981731F0828DE80FF11D858D90E079
:1002100008958FEF9FEF0895FC01918D228D892F16
:1002200090E0805C9F4F821B91098F7399270895FE
:100230008EEA91E00E940C0121E0892B09F420E074
:10024000822F0895FC01848DDF01A80FB11DA35AF0
:10025000BF4F2C91848D90E001968F739927848FE6
:10026000A689B7892C93A089B1898C9180648C93DD
:10027000938D848D981306C00288F389E02D8081C8
:100280008F7D80830895EF92FF920F931F93CF93FA
:10029000DF93EC0181E0888F9B8D8C8D981305C0D6
:1002A000E889F989808185FD24C0F62E0B8D10E048
:1002B0000F5F1F4F0F731127E02E8C8DE8120CC0BB
:1002C0000FB607FCFACFE889F989808185FFF5CF61
:1002D000CE010E942201F1CF8B8DFE01E80FF11DAE
:1002E000E35AFF4FF0820B8FEA89FB89808180629D
:1002F00007C0EE89FF896083E889F989808180647D
:10030000808381E090E0DF91CF911F910F91FF906A
:10031000EF900895CF93DF93EC01888D8823C9F087
:10032000EA89FB89808185FD05C0A889B9898C91FE
:1003300086FD0FC00FB607FCF5CF808185FFF2CF99
:10034000A889B9898C9185FFEDCFCE010E94220149
:10035000E7CFDF91CF91089580E090E0892B29F0DD
:100360000E94180181110C940000089585ED80937E
:10037000BC008091BC0084FDFCCF10927F010895E9
:1003800040915901262F30E0240F311D21323105D3
:10039000DCF420917F012430C9F4FC0180E090E07E
:1003A000861758F4309159012191DC01A95CBE4FA8
:1003B000A30FB11D2C930196F3CF80915901680FC3
:1003C0006093590180E0089581E0089582E00895E6
:1003D00008958FEF9FEF08958FEF9FEF089580911D
:1003E000360190E09195819591090895CF93DF931F
:1003F00000D0CDB7DEB7CB01642F49835A830E946A
:10040000C0014981842F5A81952F0F900F90DF9161
:10041000CF910895CF93DF931F92CDB7DEB7698355
:1004200061E0CE0101960E94C00181E090E00F9052
:10043000DF91CF910895089580E090E008950E94A3
:1004400057051F920F920FB60F9211242F933F93CF
:100450004F935F936F937F938F939F93AF93BF93CC
:10046000EF93FF938EEA91E00E942201FF91EF91BA
:10047000BF91AF919F918F917F916F915F914F91BC
:100480003F912F910F900FBE0F901F9018951F92C4
:100490000F920FB60F9211242F938F939F93EF9388
:1004A000FF93E091BE01F091BF018081E091C40112
:1004B000F091C50182FD12C090818091C7018F5FCC
:1004C0008F732091C801821751F0E091C701F0E0CD
:1004D000E255FE4F958F8093C70101C08081FF9147
:1004E000EF919F918F912F910F900FBE0F901F90C2
:1004F00018951F920F920FB60F9211242F933F93CE
:100500008F939F93AF93BF938091AA019091AB017A
:10051000A091AC01B091AD013091A90123E0230F6E
:100520002D3720F40196A11DB11D05C026E8230F2B
:100530000296A11DB11D2093A9018093AA01909359
:10054000AB01A093AC01B093AD018091A501909156
:10055000A601A091A701B091A8010196A11DB11D0E
:100560008093A5019093A601A093A701B093A80141
:10057000BF91AF919F918F913F912F910F900FBE9F
:100580000F901F9018951F920F920FB60F92112483
:100590002F933F934F935F936F937F938F939F938B
:1005A000AF93BF93EF93FF938091B900887F80361C
:1005B00009F49CC068F5883209F45BC090F480317E
:1005C00009F454C038F4882309F4F6C0883009F4DB
:1005D0004DC0F6C0883109F44CC0803209F45DC0CA
:1005E000EFC0803409F468C048F4803309F455C082
:1005F000883309F0E5C080937E01D8C0803509F4C6
:100600004FC0883509F45DC0883409F0D9C0D6C020
:10061000883909F4C7C0A8F4883709F467C038F4EA
:10062000883609F463C0803709F460C0C9C08838CF
:1006300009F4B8C0803909F45FC0803809F0C0C03F
:100640005BC0803B09F486C038F4803A09F466C088
:10065000883A09F47FC0B4C0803C09F4A7C0883C44
:1006600009F4A4C0883B09F48AC0AAC08091A401FF
:1006700010C09091A3018091A201981770F5E091AC
:10068000A30181E08E0F8093A301F0E0EE57FE4FAF
:1006900080818093BB0085EC86C080937E018EC0F4
:1006A000E091A30181E08E0F8093A3018091BB00B4
:1006B000F0E0EE57FE4F80839091A3018091A2015C
:1006C0006EC0E091A30181E08E0F8093A301809121
:1006D000BB00F0E0EE57FE4F8083809181018111D5
:1006E0006DC081E08093800184EA61C083E08093E3
:1006F0007F0110927D01CFCF80917D01803208F083
:1007000051C0E0917D0181E08E0F80937D01809149
:10071000BB00F0E0E35AFE4F8083BDCF85EC8093B1
:10072000BC0010927F0180917D01803230F4E09115
:100730007D01F0E0E35AFE4F108260917D0170E090
:10074000E0915B01F0915C018DE591E009951092DB
:100750007D0136C084E080937F0110925A0110928F
:100760005901E0915701F091580109958091590183
:10077000811105C081E08093590110923701E09109
:100780005A0181E08E0F80935A01F0E0E95CFE4F40
:1007900080818093BB0090915A01809159019817F4
:1007A00008F479CF85E88093BC000AC085EC80937B
:1007B000BC0010927F0104C010927E010E94B6011D
:1007C000FF91EF91BF91AF919F918F917F916F9129
:1007D0005F914F913F912F910F900FBE0F901F90FF
:1007E0001895EEEAF1E01382128288EE93E0A0E021
:1007F000B0E084839583A683B78324E031E031831E
:10080000208325EC30E03587248724EC30E03787DF
:10081000268720EC30E0318B208B21EC30E0338BCD
:10082000228B22EC30E0358B248B26EC30E0378BAA
:10083000268B118E128E138E148EEBE4F2E013824F
:10084000128284839583A683B78386E191E09183A6
:100850008083E7E5F2E01682178210861186128601
:1008600013861486158616861786108A118A128AB0
:10087000138A148A158A0895789484B5826084BD99
:1008800084B5816084BD85B5826085BD85B5816094
:1008900085BD80916E00816080936E001092810012
:1008A00080918100826080938100809181008160CD
:1008B000809381008091800081608093800080918E
:1008C000B10084608093B1008091B000816080931A
:1008D000B00080917A00846080937A0080917A00E1
:1008E000826080937A0080917A00816080937A00A0
:1008F00080917A00806880937A001092C1001092F3
:100900009B0210929C0210929D0210929E021092E5
:10091000590210925A0210925B0210925C0268EB2C
:100920007BE080E090E00E947D008EEA91E0909371
:100930009A0280939902E091BE01F091BF0182E09A
:100940008083E091BA01F091BB011082E091BC017B
:10095000F091BD0180E180831092C601E091C20157
:10096000F091C30186E08083E091C001F091C10164
:10097000808180618083E091C001F091C10180811C
:1009800088608083E091C001F091C101808180681E
:100990008083E091C001F091C10180818F7D8083CF
:1009A0002FB7F8948091AA019091AB01A091AC016E
:1009B000B091AD012FBF8093590290935A02A0933A
:1009C0005B02B0935C028091990290919A02DC01E3
:1009D000ED91FC910280F381E02D40E150E064E272
:1009E00071E009956AE070E080E090E00E947D008F
:1009F000EDE9F0E02491E9E8F0E08491882399F0B2
:100A000090E0880F991FFC01EE58FF4FA591B4911B
:100A1000FC01E859FF4F859194918FB7F894EC91C0
:100A2000E22BEC938FBFE091BE01F091BF0182E019
:100A30008083E091BA01F091BB011082E091BC018A
:100A4000F091BD0187E080831092C601E091C20160
:100A5000F091C30186E08083E091C001F091C10173
:100A6000808180618083E091C001F091C10180812B
:100A700088608083E091C001F091C101808180682D
:100A80008083E091C001F091C10180818F7D8083DE
:100A90008EEA91E00E940C01892BD1F30E94AC01F7
:100AA000F7CFEE0FFF1F0590F491E02D099481E040
:0C0AB00090E0F8940C945C05F894FFCFE3
:100ABC00000000004301B000DB008A010C01EA00D9
:100ACC00FE00000000000A02F6011C02E801EF0122
:100ADC00EC01E901564D4450565F317C5F564D4454
:060AEC0050560D0A000047
:00000001FF
