:100000000C9462000C948A000C948A000C948A0070
:100010000C948A000C948A000C948A000C948A0038
:100020000C948A000C948A000C948A000C948A0028
:100030000C948A000C948A000C948A000C948A0018
:100040000C9403030C948A000C94D1020C94AB0220
:100050000C948A000C948A000C948A000C948A00F8
:100060000C944D030C948A0000000000240027002B
:100070002A000000000023002600290000000000E4
:10008000250028002B0004040404040404040202D4
:100090000202020203030303030301020408102007
:1000A0004080010204081020010204081020000012
:1000B0000008000201000003040700000000000027
:1000C00000007B0411241FBECFEFD8E0DEBFCDBF00
:1000D00011E0A0E0B1E0E4E9FDE002C005900D927E
:1000E000A633B107D9F722E0A6E3B1E001C01D9223
:1000F000A43EB207E1F710E0C2E6D0E004C02197C9
:10010000FE010E94BD06C136D107C9F70E94C60490
:100110000C94C8060C940000CF92DF92EF92FF92ED
:100120000F931F932FB7F894C090EF01D090F00178
:10013000E090F101F090F2012FBFDC01CB018C0DBA
:100140009D1DAE1DBF1D4FB7F8940091EF0110919A
:10015000F0012091F1013091F2014FBF0C151D0506
:100160002E053F0528F080179107A207B30758F71F
:100170001F910F91FF90EF90DF90CF900895CF9255
:10018000DF92EF92FF920F931F93CF93DF936C0157
:100190007A018B01C0E0D0E0CE15DF0589F0D801EF
:1001A0006D918D01D601ED91FC910190F081E02DD2
:1001B000C6010995892B11F47E0102C02196ECCF6E
:1001C000C701DF91CF911F910F91FF90EF90DF90CA
:1001D000CF900895FC01538D448D252F30E0842F5E
:1001E00090E0821B930B541710F0CF96089501975F
:1001F0000895FC01918D828D981761F0828DDF0149
:10020000A80FB11D5D968C91928D9F5F9F73928F09
:1002100090E008958FEF9FEF0895FC01918D828DFE
:10022000981731F0828DE80FF11D858D90E00895CB
:100230008FEF9FEF0895FC01918D228D892F90E023
:10024000805C9F4F821B91098F739927089583EFDC
:1002500091E00E941B0121E0892B09F420E0822F0C
:100260000895FC01848DDF01A80FB11DA35ABF4F73
:100270002C91848D90E001968F739927848FA689A5
:10028000B7892C93A089B1898C9180648C93938DCC
:10029000848D981306C00288F389E02D80818F7DBC
:1002A00080830895EF92FF920F931F93CF93DF9374
:1002B000EC0181E0888F9B8D8C8D981305C0E889B7
:1002C000F989808185FD24C0F62E0B8D10E00F5F2B
:1002D0001F4F0F731127E02E8C8DE8120CC00FB644
:1002E00007FCFACFE889F989808185FFF5CFCE0137
:1002F0000E943101F1CF8B8DFE01E80FF11DE35A11
:10030000FF4FF0820B8FEA89FB898081806207C0F2
:10031000EE89FF896083E889F98980818064808320
:1003200081E090E0DF91CF911F910F91FF90EF90CE
:100330000895CF93DF93EC01888D8823C9F0EA8973
:10034000FB89808185FD05C0A889B9898C9186FDCE
:100350000FC00FB607FCF5CF808185FFF2CFA889CB
:10036000B9898C9185FFEDCFCE010E943101E7CF95
:10037000DF91CF91089580E090E0892B29F00E94D1
:10038000270181110C9400000895833081F028F436
:10039000813099F08230A1F008958730A9F088303B
:1003A000B9F08430D1F4809180008F7D03C08091BA
:1003B00080008F7780938000089584B58F7702C086
:1003C00084B58F7D84BD08958091B0008F7703C080
:1003D0008091B0008F7D8093B00008951F93CF93DC
:1003E000DF93EBEBF0E09491E7EAF0E0D491E3E9FE
:1003F000F0E0C491CC23D9F0182F992319F0892F5C
:100400000E94C501EC2FF0E0EE0FFF1FE458FF4FF4
:10041000A591B4918FB7F894111105C09C91ED2F5F
:10042000E095E92302C0EC91ED2BEC938FBFDF91B7
:10043000CF911F9108953FB7F8948091A6019091B4
:10044000A701A091A801B091A90126B5A89B05C05C
:100450002F3F19F00196A11DB11D3FBFBA2FA92F43
:10046000982F8827820F911DA11DB11DBC01CD01C0
:1004700042E0660F771F881F991F4A95D1F70895AC
:1004800085ED8093BC008091BC0084FDFCCF109270
:100490007F01089540915901262F30E0240F311D2E
:1004A00021323105DCF420917F012430C9F4FC01B4
:1004B00080E090E0861758F4309159012191DC01D9
:1004C000A95CBE4FA30FB11D2C930196F3CF809171
:1004D0005901680F6093590180E0089581E0089503
:1004E00082E0089508958FEF9FEF08958FEF9FEFBB
:1004F00008958091360190E0919581959109089534
:10050000CF93DF9300D0CDB7DEB7CB01642F498303
:100510005A830E944A024981842F5A81952F0F9055
:100520000F90DF91CF910895CF93DF931F92CDB7B6
:10053000DEB7698361E0CE0101960E944A0281E044
:1005400090E00F90DF91CF910895089580E090E0C2
:1005500008950E94C3061F920F920FB60F921124A6
:100560002F933F934F935F936F937F938F939F93BB
:10057000AF93BF93EF93FF9383EF91E00E9431011C
:10058000FF91EF91BF91AF919F918F917F916F916B
:100590005F914F913F912F910F900FBE0F901F9041
:1005A00018951F920F920FB60F9211242F938F93CD
:1005B0009F93EF93FF93E0910302F09104028081F7
:1005C000E0910902F0910A0282FD12C090818091AF
:1005D0000C028F5F8F7320910D02821751F0E09112
:1005E0000C02F0E0ED50FE4F958F80930C0201C09D
:1005F0008081FF91EF919F918F912F910F900FBE6E
:100600000F901F9018951F920F920FB60F92112402
:100610002F933F938F939F93AF93BF938091EF015D
:100620009091F001A091F101B091F2013091A501FA
:1006300023E0230F2D3720F40196A11DB11D05C025
:1006400026E8230F0296A11DB11D2093A5018093DA
:10065000EF019093F001A093F101B093F20180912A
:10066000A6019091A701A091A801B091A9010196BE
:10067000A11DB11D8093A6019093A701A093A8018D
:10068000B093A901BF91AF919F918F913F912F910D
:100690000F900FBE0F901F9018951F920F920FB6DC
:1006A0000F9211242F933F934F935F936F937F93F8
:1006B0008F939F93AF93BF93EF93FF938091B90074
:1006C000887F803609F49CC068F5883209F45BC0E5
:1006D00090F4803109F454C038F4882309F4F6C04A
:1006E000883009F44DC0F6C0883109F44CC080321E
:1006F00009F45DC0EFC0803409F468C048F4803369
:1007000009F455C0883309F0E5C080937E01D8C054
:10071000803509F44FC0883509F45DC0883409F08C
:10072000D9C0D6C0883909F4C7C0A8F4883709F4FD
:1007300067C038F4883609F463C0803709F460C0B4
:10074000C9C0883809F4B8C0803909F45FC080385E
:1007500009F0C0C05BC0803B09F486C038F4803A21
:1007600009F466C0883A09F47FC0B4C0803C09F43B
:10077000A7C0883C09F4A4C0883B09F48AC0AAC079
:100780008091A40110C09091A3018091A2019817BB
:1007900070F5E091A30181E08E0F8093A301F0E05A
:1007A000EE57FE4F80818093BB0085EC86C080931E
:1007B0007E018EC0E091A30181E08E0F8093A301A2
:1007C0008091BB00F0E0EE57FE4F80839091A30133
:1007D0008091A2016EC0E091A30181E08E0F809311
:1007E000A3018091BB00F0E0EE57FE4F8083809123
:1007F000810181116DC081E08093800184EA61C034
:1008000083E080937F0110927D01CFCF80917D01A5
:10081000803208F051C0E0917D0181E08E0F80931D
:100820007D018091BB00F0E0E35AFE4F8083BDCF95
:1008300085EC8093BC0010927F0180917D01803215
:1008400030F4E0917D01F0E0E35AFE4F10826091B8
:100850007D0170E0E0915B01F0915C018DE591E03C
:10086000099510927D0136C084E080937F0110923B
:100870005A0110925901E0915701F09158010995E0
:1008800080915901811105C081E080935901109236
:100890003701E0915A0181E08E0F80935A01F0E018
:1008A000E95CFE4F80818093BB0090915A0180915A
:1008B0005901981708F479CF85E88093BC000AC0E5
:1008C00085EC8093BC0010927F0104C010927E01E1
:1008D0000E944002FF91EF91BF91AF919F918F9144
:1008E0007F916F915F914F913F912F910F900FBE2C
:1008F0000F901F901895E3EFF1E01382128288EEBB
:1009000093E0A0E0B0E084839583A683B78324E0DE
:1009100031E03183208325EC30E03587248724ECD7
:1009200030E03787268720EC30E0318B208B21ECBC
:1009300030E0338B228B22EC30E0358B248B26EC9D
:1009400030E0378B268B118E128E138E148EE0E9D9
:10095000F2E01382128284839583A683B78386E1B3
:1009600091E091838083ECE9F2E016821782108691
:100970001186128613861486158616861786108AA7
:10098000118A128A138A148A158A0895CF93DF93E5
:10099000CDB7DEB7C254D1090FB6F894DEBF0FBE93
:1009A000CDBF789484B5826084BD84B5816084BDF8
:1009B00085B5826085BD85B5816085BD80916E00FD
:1009C000816080936E00109281008091810082602E
:1009D000809381008091810081608093810080916B
:1009E00080008160809380008091B100846080935A
:1009F000B1008091B00081608093B00080917A0056
:100A0000846080937A0080917A00826080937A007B
:100A100080917A00816080937A0080917A0080686A
:100A200080937A001092C1001092E0021092E102CD
:100A30001092E2021092E30210929E0210929F0224
:100A40001092A0021092A10268EB7BE080E090E09F
:100A50000E948C0083EF91E09093DF028093DE028E
:100A6000E0910302F091040282E08083E091FF01B3
:100A7000F09100021082E0910102F091020280E107
:100A8000808310920B02E0910702F091080286E049
:100A90008083E0910502F09106028081806180836D
:100AA000E0910502F0910602808188608083E091E8
:100AB0000502F0910602808180688083E091050242
:100AC000F091060280818F7D80832FB7F89480910A
:100AD000EF019091F001A091F101B091F2012FBFCF
:100AE00080939E0290939F02A093A002B093A102D4
:100AF0008091DE029091DF02DC01ED91FC91028099
:100B0000F381E02D40E150E064E271E009956AE094
:100B100070E080E090E00E948C0057EA852E50E063
:100B2000952EF401249163E9A62E60E0B62EF5011E
:100B30008491882399F090E0880F991FFC01E8596F
:100B4000FF4FA591B491FC01E458FF4F859194911A
:100B50008FB7F8949C91292B2C938FBFE0910302BF
:100B6000F091040282E08083E091FF01F0910002A5
:100B70001082E0910102F091020287E080831092DE
:100B80000B02E0910702F091080286E08083E09179
:100B90000502F0910602808180618083E091050268
:100BA000F0910602808188608083E0910502F091D7
:100BB0000602808180688083E0910502F091060240
:100BC00080818F7D808323E0322E32E0232E83EFDD
:100BD00091E00E941B01892B09F488C083EF91E00A
:100BE0000E94F900823421F481E08093AB017EC041
:100BF0009091AB01913029F48093AD012092AB012B
:100C000075C0923049F48093AE018093AC0130926C
:100C1000AB011092AA016AC09330C9F49091AA0165
:100C2000E92FF0E0E355FE4F82832091AC0182274B
:100C30008093AC0181E0890F8093AA019091AE016D
:100C4000891708F453C0F4E0F093AB014FC094301F
:100C500071F59091AC0189132AC01092AB01EDEAB5
:100C6000F1E0DE01119682E401900D928A95E1F7A0
:100C70001091AD010091AE0181E00E94EE0162E4AD
:100C800083EF91E00E945201612F83EF91E00E9477
:100C90005201602F83EF91E00E9452010093AC015A
:100CA000CE0103963C01E12CF12C10E004C09FEF33
:100CB0009093AB011BC0E016F10694F4D301DD90D4
:100CC0003D016D2D83EF91E00E9452018091AC01B6
:100CD000282F2D252093AC01BFEFEB1AFB0AEBCF99
:100CE0006091AC0183EF91E00E9452018091C000BD
:100CF00086FF40C0EBEBF0E08491F4010491F50134
:100D000014911123B9F181110E94C501E12FF0E086
:100D1000EE0FFF1FEE58FF4FA591B4918C91082361
:100D200049F180E00E94EE010E941B026B017C01F0
:100D300084E6482E512C612C712C0E941B02DC0190
:100D4000CB018C199D09AE09BF09883E9340A105CE
:100D5000B10558F0F1E04F1A51086108710828EE0A
:100D6000C20E23E0D21EE11CF11C411451046104A7
:100D7000710419F70E94BB012ACFEE0FFF1F0590E7
:100D8000F491E02D099481E090E0F8940C94C80669
:040D9000F894FFCF05
:100D9400000000005201BF00EA0099011B01F900A4
:100DA4000D010000000094028002A6027202790282
:100DB40076027302564D4450565F317C5F564D4463
:060DC40050560D0A00006C
:00000001FF
