:100000000C9462000C948A000C948A000C948A0070
:100010000C948A000C948A000C948A000C948A0038
:100020000C948A000C948A000C948A000C948A0028
:100030000C948A000C948A000C948A000C948A0018
:100040000C94C6030C948A000C9494030C946E03D5
:100050000C948A000C948A000C948A000C948A00F8
:100060000C9410040C948A00000000002300260069
:10007000290000000008000201000003040700003E
:1000800000000000000000000000250028002B00F8
:1000900000000000240027002A00040404040404D3
:1000A0000404020202020202030303030303010227
:1000B00004081020408001020408102001020408F6
:1000C00010203E0511241FBECFEFD8E0DEBFCDBF0C
:1000D00011E0A0E0B1E0E2EEFDE002C005900D927B
:1000E000A633B107D9F723E0A6E3B1E001C01D9222
:1000F000A632B207E1F710E0C2E6D0E004C02197D3
:10010000FE010E94E406C136D107C9F70E948905A5
:100110000C94EF060C940000E5E3F2E0A089B189AD
:1001200082E08C93A485B5851C92A685B78580E175
:100130008C93108EA489B58986E08C93A289B389AB
:100140008C9180618C93A289B3898C9188608C9307
:10015000A289B3898C9180688C930288F389E02D01
:1001600080818F7D8083089590E0FC01E255FF4FF0
:100170002491FC01E656FF4F8491882399F090E08A
:10018000880F991FFC01E057FF4FA591B491FC0126
:10019000EA57FF4F859194918FB7F894EC91E22B39
:1001A000EC938FBF0895CF92DF92EF92FF920F935F
:1001B0001F932FB7F894C0903102D0903202E09094
:1001C0003302F09034022FBFDC01CB018C0D9D1D5A
:1001D000AE1DBF1D4FB7F89400913102109132024D
:1001E00020913302309134024FBF0C151D052E05AE
:1001F0003F0528F080179107A207B30758F71F9112
:100200000F91FF90EF90DF90CF900895CF92DF9203
:10021000EF92FF920F931F93CF93DF936C017A01BC
:100220008B01C0E0D0E0CE15DF0589F0D8016D91DB
:100230008D01D601ED91FC910190F081E02DC60178
:100240000995892B11F47E0102C02196ECCFC701DC
:10025000DF91CF911F910F91FF90EF90DF90CF90A2
:100260000895FC01538D448D252F30E0842F90E0BC
:10027000821B930B541710F0CF96089501970895A1
:10028000FC01918D828D981761F0828DDF01A80F9E
:10029000B11D5D968C91928D9F5F9F73928F90E0C0
:1002A00008958FEF9FEF0895FC01918D828D98172F
:1002B00031F0828DE80FF11D858D90E008958FEF6C
:1002C0009FEF0895FC01918D228D892F90E0805C35
:1002D0009F4F821B91098F739927089585E392E0C0
:1002E0000E94620121E0892B09F420E0822F089509
:1002F000FC01848DDF01A80FB11DA35ABF4F2C91C3
:10030000848D90E001968F739927848FA689B78991
:100310002C93A089B1898C9180648C93938D848D6A
:10032000981306C00288F389E02D80818F7D808339
:100330000895EF92FF920F931F93CF93DF93EC01F9
:1003400081E0888F9B8D8C8D981305C0E889F98991
:10035000808185FD24C0F62E0B8D10E00F5F1F4FAE
:100360000F731127E02E8C8DE8120CC00FB607FC1E
:10037000FACFE889F989808185FFF5CFCE010E9407
:100380007801F1CF8B8DFE01E80FF11DE35AFF4F8D
:10039000F0820B8FEA89FB898081806207C0EE8939
:1003A000FF896083E889F98980818064808381E0A6
:1003B00090E0DF91CF911F910F91FF90EF90089502
:1003C000CF93DF93EC01888D8823C9F0EA89FB89FC
:1003D000808185FD05C0A889B9898C9186FD0FC0F3
:1003E0000FB607FCF5CF808185FFF2CFA889B989C8
:1003F0008C9185FFEDCFCE010E947801E7CFDF9190
:10040000CF91089580E090E0892B29F00E946E0141
:1004100081110C9400000895833081F028F481301C
:1004200099F08230A1F008958730A9F08830B9F0B2
:100430008430D1F4809180008F7D03C08091800052
:100440008F7780938000089584B58F7702C084B53C
:100450008F7D84BD08958091B0008F7703C0809117
:10046000B0008F7D8093B00008951F93CF93DF93EA
:10047000282F30E0F901EE58FF4F8491F901E25541
:10048000FF4FD491F901E656FF4FC491CC23C9F038
:10049000162F81110E940C02EC2FF0E0EE0FFF1FCF
:1004A000EA57FF4FA591B4918FB7F894111105C089
:1004B0009C91ED2FE095E92302C0EC91ED2BEC939C
:1004C0008FBFDF91CF911F9108953FB7F89480912E
:1004D000A6019091A701A091A801B091A90126B50C
:1004E000A89B05C02F3F19F00196A11DB11D3FBF6C
:1004F000BA2FA92F982F8827820F911DA11DB11DFA
:10050000BC01CD0142E0660F771F881F991F4A95F5
:10051000D1F708958F929F92AF92BF92CF92DF92C0
:10052000EF92FF926B017C010E9465024B015C011E
:10053000C114D104E104F104F1F00E946502DC0170
:10054000CB0188199909AA09BB09883E9340A105E6
:10055000B10570F321E0C21AD108E108F10888EE74
:10056000880E83E0981EA11CB11CC114D104E104C3
:10057000F10419F7DDCFFF90EF90DF90CF90BF909F
:10058000AF909F908F90089585ED8093BC008091EF
:10059000BC0084FDFCCF10927F0108954091590169
:1005A000262F30E0240F311D21323105DCF420915B
:1005B0007F012430C9F4FC0180E090E0861758F4F4
:1005C000309159012191DC01A95CBE4FA30FB11DEF
:1005D0002C930196F3CF80915901680F60935901D4
:1005E00080E0089581E0089582E0089508958FEFF6
:1005F0009FEF08958FEF9FEF08958091360190E06F
:100600009195819591090895CF93DF9300D0CDB74F
:10061000DEB7CB01642F49835A830E94CE02498101
:10062000842F5A81952F0F900F90DF91CF910895CD
:10063000CF93DF931F92CDB7DEB7698361E0CE0120
:1006400001960E94CE0281E090E00F90DF91CF9161
:100650000895089580E090E00895FF920F931F930E
:10066000CF93DF9361E082E00E94350262E485E38C
:1006700092E00E9499016091AC0185E392E00E94B2
:100680009901C091AD016C2F85E392E00E94990120
:10069000C093AB0100E010E0D0E00C171D078CF414
:1006A000F801E455FE4FF2806F2D85E392E00E9441
:1006B00099018091AB01F826F092AB010F5F1F4FBB
:1006C000ECCF6091AB0185E392E0DF91CF911F9178
:1006D0000F91FF900C9499010E94EA061F920F92CD
:1006E0000FB60F9211242F933F934F935F936F9305
:1006F0007F938F939F93AF93BF93EF93FF9385E384
:1007000092E00E947801FF91EF91BF91AF919F918C
:100710008F917F916F915F914F913F912F910F90AA
:100720000FBE0F901F9018951F920F920FB60F9249
:1007300011242F938F939F93EF93FF93E0914502A2
:10074000F09146028081E0914B02F0914C0282FDD3
:1007500012C0908180914E028F5F8F7320914F0263
:10076000821751F0E0914E02F0E0EB5CFD4F958F67
:1007700080934E0201C08081FF91EF919F918F91F4
:100780002F910F900FBE0F901F9018951F920F92F0
:100790000FB60F9211242F933F938F939F93AF9394
:1007A000BF938091310290913202A0913302B091B7
:1007B00034023091A50123E0230F2D3720F4019658
:1007C000A11DB11D05C026E8230F0296A11DB11D74
:1007D0002093A5018093310290933202A0933302BB
:1007E000B09334028091A6019091A701A091A80135
:1007F000B091A9010196A11DB11D8093A60190930E
:10080000A701A093A801B093A901BF91AF919F91B7
:100810008F913F912F910F900FBE0F901F901895C1
:100820001F920F920FB60F9211242F933F934F9365
:100830005F936F937F938F939F93AF93BF93EF9348
:10084000FF938091B900887F803609F49CC068F5D9
:10085000883209F45BC090F4803109F454C038F454
:10086000882309F4F6C0883009F44DC0F6C08831F9
:1008700009F44CC0803209F45DC0EFC0803409F443
:1008800068C048F4803309F455C0883309F0E5C0E6
:1008900080937E01D8C0803509F44FC0883509F4B3
:1008A0005DC0883409F0D9C0D6C0883909F4C7C002
:1008B000A8F4883709F467C038F4883609F463C0AF
:1008C000803709F460C0C9C0883809F4B8C08039DD
:1008D00009F45FC0803809F0C0C05BC0803B09F4F8
:1008E00086C038F4803A09F466C0883A09F47FC0BB
:1008F000B4C0803C09F4A7C0883C09F4A4C0883B7C
:1009000009F48AC0AAC08091A40110C09091A301EB
:100910008091A201981770F5E091A30181E08E0FFC
:100920008093A301F0E0EE57FE4F80818093BB00DF
:1009300085EC86C080937E018EC0E091A30181E0AA
:100940008E0F8093A3018091BB00F0E0EE57FE4F25
:1009500080839091A3018091A2016EC0E091A301D8
:1009600081E08E0F8093A3018091BB00F0E0EE57F1
:10097000FE4F80838091810181116DC081E0809361
:10098000800184EA61C083E080937F0110927D0141
:10099000CFCF80917D01803208F051C0E0917D0180
:1009A00081E08E0F80937D018091BB00F0E0E35ADF
:1009B000FE4F8083BDCF85EC8093BC0010927F01F9
:1009C00080917D01803230F4E0917D01F0E0E35AC6
:1009D000FE4F108260917D0170E0E0915B01F0912B
:1009E0005C018DE591E0099510927D0136C084E0AF
:1009F00080937F0110925A0110925901E0915701A2
:100A0000F0915801099580915901811105C081E04B
:100A10008093590110923701E0915A0181E08E0FC5
:100A200080935A01F0E0E95CFE4F80818093BB0027
:100A300090915A0180915901981708F479CF85E86F
:100A40008093BC000AC085EC8093BC0010927F01AB
:100A500004C010927E010E94C402FF91EF91BF91E9
:100A6000AF919F918F917F916F915F914F913F9146
:100A70002F910F900FBE0F901F901895E5E3F2E0B5
:100A80001382128288EE93E0A0E0B0E08483958325
:100A9000A683B78324E031E03183208325EC30E066
:100AA0003587248724EC30E03787268720EC30E038
:100AB000318B208B21EC30E0338B228B22EC30E029
:100AC000358B248B26EC30E0378B268B118E128EE3
:100AD000138E148EE2EDF2E01382128284839583EA
:100AE000A683B78386E191E091838083EEEDF2E007
:100AF0001682178210861186128613861486158632
:100B000016861786108A118A128A138A148A158A01
:100B10000895789484B5826084BD84B5816084BD75
:100B200085B5826085BD85B5816085BD80916E008B
:100B3000816080936E0010928100809181008260BC
:100B400080938100809181008160809381008091F9
:100B500080008160809380008091B10084608093E8
:100B6000B1008091B00081608093B00080917A00E4
:100B7000846080937A0080917A00826080937A000A
:100B800080917A00816080937A0080917A008068F9
:100B900080937A001092C1001092220310922303D6
:100BA00010922403109225031092E0021092E102A9
:100BB0001092E2021092E30268EB7BE080E090E0AA
:100BC0000E94D30085E392E0909321038093200359
:100BD0000E948C002FB7F8948091310290913202DC
:100BE000A0913302B09134022FBF8093E002909322
:100BF000E102A093E202B093E3028091200390917E
:100C00002103DC01ED91FC910280F381E02D40E1B4
:100C100050E064E271E009956AE070E080E090E005
:100C20000E94D30082E00E94B4000E948C00CAE0BF
:100C30008C2F0E94B40061E08C2F0E94350262E389
:100C400070E080E090E00E948A0260E08C2F0E94B9
:100C5000350262E370E080E090E00E948A02CF5F9C
:100C6000CE3031F7DFEF15E004E033E0932EC2E041
:100C7000882483944CE0742E56E0652E64E7E62EBB
:100C800060E0F62E70EBC72E70E0D72EECE9AE2EAA
:100C9000E0E0BE2E85E392E00E946201892B09F418
:100CA00043C085E392E00E944001823419F48092AF
:100CB00030023AC090913002913029F48093EE01D5
:100CC000C093300231C0923059F48093EF01809389
:100CD000AB018823D9F0909230021092AA0124C06F
:100CE0009330B9F49091AA01E92FF0E0E251FE4F60
:100CF00082832091AB0182278093AB0181E0890F31
:100D00008093AA019091EF01891770F0009330024F
:100D10000BC0943039F49091AB01891303C0109348
:100D2000300202C0D0933002809130028530F1F45D
:100D3000109230028091EE01823049F0853061F0EE
:100D40008130A1F48093AC016092AD010DC080931D
:100D5000AC017092AD0108C08093AC01C093AD01AD
:100D60001092AE011092AF010E942D0380913002CB
:100D7000880F880F85B98091C00086FF17C0F701E2
:100D80008491F6015490F5014490442079F081114A
:100D90000E940C02842D90E0880F991F88599F4F64
:100DA000FC01A591B4918C91582219F40E94020281
:100DB00071CF60E082E00E94350264E670E080E07E
:100DC00090E00E948A02F2CFEE0FFF1F0590F4918F
:100DD000E02D099481E090E0F8940C94EF06F894EB
:020DE000FFCF43
:100DE20000000000990106013101E00162014001A9
:100DF200540100000000180304032A03F602FD0256
:100E0200FA02F702564D4450565F317C5F564D440C
:060E120050560D0A00001D
:107E0000112484B714BE81FFF0D085E080938100F7
:107E100082E08093C00088E18093C10086E0809377
:107E2000C20080E18093C4008EE0C9D0259A86E02C
:107E300020E33CEF91E0309385002093840096BBD3
:107E4000B09BFECF1D9AA8958150A9F7CC24DD24C4
:107E500088248394B5E0AB2EA1E19A2EF3E0BF2EE7
:107E6000A2D0813461F49FD0082FAFD0023811F036
:107E7000013811F484E001C083E08DD089C08234E0
:107E800011F484E103C0853419F485E0A6D080C0E4
:107E9000853579F488D0E82EFF2485D0082F10E0AE
:107EA000102F00270E291F29000F111F8ED06801E7
:107EB0006FC0863521F484E090D080E0DECF843638
:107EC00009F040C070D06FD0082F6DD080E0C81688
:107ED00080E7D80618F4F601B7BEE895C0E0D1E017
:107EE00062D089930C17E1F7F0E0CF16F0E7DF06D8
:107EF00018F0F601B7BEE89568D007B600FCFDCFD4
:107F0000A601A0E0B1E02C9130E011968C91119780
:107F100090E0982F8827822B932B1296FA010C0160
:107F200087BEE89511244E5F5F4FF1E0A038BF0790
:107F300051F7F601A7BEE89507B600FCFDCF97BE46
:107F4000E89526C08437B1F42ED02DD0F82E2BD052
:107F50003CD0F601EF2C8F010F5F1F4F84911BD097
:107F6000EA94F801C1F70894C11CD11CFA94CF0C13
:107F7000D11C0EC0853739F428D08EE10CD085E9AC
:107F80000AD08FE07ACF813511F488E018D01DD067
:107F900080E101D065CF982F8091C00085FFFCCF94
:107FA0009093C60008958091C00087FFFCCF809118
:107FB000C00084FD01C0A8958091C6000895E0E648
:107FC000F0E098E1908380830895EDDF803219F02E
:107FD00088E0F5DFFFCF84E1DECF1F93182FE3DFCA
:107FE0001150E9F7F2DF1F91089580E0E8DFEE27F6
:047FF000FF270994CA
:027FFE00040479
:0400000300007E007B
:00000001FF