:100000000C94A6000C94CE000C94CE000C94CE0060
:100010000C94CE000C94CE000C94CE000C94CE0028
:100020000C94CE000C94CE000C94CE000C94CE0018
:100030000C94CE000C94CE000C94CE000C94CE0008
:100040000C9461090C94CE000C9432080C940C08AA
:100050000C94CE000C94CE000C94CE000C94CE00E8
:100060000C94AB090C94CE00084AD73B3BCE016EF2
:1000700084BCBFFDC12F3D6C74319ABD56833DDAFF
:100080003D00C77F11BED9E4BB4C3E916BAAAABE0E
:10009000000000803F08000000BE922449123EABE1
:1000A000AAAA2ABECDCCCC4C3E00000080BEABAA92
:1000B000AAAA3E00000000BF000000803F00000030
:1000C0000000084178D3BB4387D1133D190E3CC3D0
:1000D000BD4282AD2B3E68EC8276BED98FE1A93E4F
:1000E0004C80EFFFBE01C4FF7F3F00000000000016
:1000F0000000000023002600290000000008000284
:1001000001000003040700000000000000000000E0
:100110000000250028002B0000000000240027001C
:100120002A00040404040404040402020202020279
:1001300003030303030301020408102040800102AB
:10014000040810200102040810209E1311241FBE71
:10015000CFEFD8E0DEBFCDBF11E0A0E0B1E0E2E537
:10016000F5E302C005900D92A436B107D9F724E05B
:10017000A4E6B1E001C01D92A935B207E1F710E095
:10018000C6EAD0E004C02197FE010E946F19C53A6B
:10019000D107C9F70E94F10B0C94A71A0C94000028
:1001A000382F2091730290910404213208F049C045
:1001B000809172028111FCCF42E040937202309331
:1001C00071023FEF30934E0210924D0220934C0289
:1001D000A0E5B2E04CE252E0FA013E2F341B3217A8
:1001E00018F43D913193F9CF10922B0220912B02FC
:1001F000990F922B90932B0290917002913061F4A1
:100200001092700290912B029093BB009091BC00D1
:1002100093FDF8CF95EC01C095EE9093BC009091C2
:1002200072029230E1F390914E029F3F79F08091FB
:100230004E02803241F080914E02803331F084E0F2
:1002400005C081E003C082E001C083E01092740227
:100250001092730210924F020895909172029111C0
:10026000FCCF91E090937202909371022FEF209354
:100270004E0210924D02260F20934C0290932B02B7
:1002800090912B02880F892B80932B028091700212
:10029000813061F41092700280912B028093BB0038
:1002A0008091BC0083FDF8CF85EC01C085EE809382
:1002B000BC00809172028130E1F380914D0286177B
:1002C00010F460914D02ACE2B2E02BE032E0F901B3
:1002D0008E2F821B861718F48D918193F9CF862F6C
:1002E0000895109276021092750210927402109284
:1002F00073021092720281E0809371021092700278
:1003000061E082E10E948D0861E083E10E948D0836
:10031000E9EBF0E080818E7F808380818D7F808318
:1003200088E48093B80085E48093BC00089590E051
:10033000FC01EA5CFE4F2491FC01EE5DFE4F8491CE
:10034000882399F090E0880F991FFC01E85EFE4F2A
:10035000A591B491FC01E25FFE4F859194918FB716
:10036000F894EC91E22BEC938FBF089581E00C940C
:10037000D00091E090934F02809304041092740295
:10038000109273020895CF93DF931F92CDB7DEB71B
:10039000682F8091740369830E94B90169818CE59B
:1003A00093E00E94D7070F90DF91CF910C94B60194
:1003B000613208F060E20E942D0110927602809373
:1003C000750208950F931F93CF93805C0E94C30121
:1003D00061E070E080E090E00E941B0961E070E065
:1003E00080E090E00E941B0980E00E94C30163E06E
:1003F00070E080917403909175030E94D801E0E051
:10040000C0E000E09091750280917602981781F02B
:100410008CE593E00E948B07082F8CE593E00E9407
:100420008B07C82F8CE593E00E948B07E82FEACF5B
:10043000802F90E0A0E0B0E09C01112700274C2F16
:1004400050E060E070E0762F652F542F4427D901EB
:10045000C801840F951FA61FB71FBC01CD016E0FE9
:10046000711D811D911DCF911F910F9108952F92A4
:100470003F924F925F926F927F928F929F92AF9234
:10048000BF92CF92DF92EF92FF920F931F93CF9381
:10049000DF93CDB7DEB7EB970FB6F894DEBF0FBE94
:1004A000CDBF81110FC080E190E00E94E2016B019D
:1004B0007C0160936C0370936D0380936E03909343
:1004C0006F0308C0C0906C03D0906D03E0906E0382
:1004D000F0906F0380E090E00E94E20169A37AA3AC
:1004E0008BA39CA38091800390918103A0E0B0E056
:1004F000BA2FA92F982F882746015701881A990AE1
:10050000AA0ABB0A8D8E9E8EAF8EB8A2209182035E
:100510003091830340E050E0C501B4010E94E0182F
:1005200007E10E94331929833A834B835C836D83EF
:100530007E838F83988729813A814B815C81205308
:10054000384F4F4F5F4F2DA33EA34FA358A7203DD9
:100550003740410551050CF0D6C0C501B401A501D5
:1005600094010E94E01801E20E94331959016A01C6
:100570007B01E82F192F02E00E941A190E2F0E940A
:100580005A1929873A874B875C876D877E878F87C3
:10059000988B29813A814B815C81CA01B9010E9403
:1005A0009915A3E0B0E09B01AC010E94CB154B0173
:1005B0005C01B594A79497948794898A9A8AAB8AA8
:1005C000BC8A998899A68A888AA69B889BA68C88CB
:1005D0008CA64B015C01BB0C8808982C54018DA69D
:1005E0008EA68FA6282CA5E0B0E00E94CB159B011B
:1005F000AC01A3E05595479537952795AA95D1F776
:100600002D8B3E8B4F8B588F3D8938AB4E8949AB34
:100610005F895AABA88DABAB9B01AC01550F220B88
:10062000322FA901298F3A8F4B8F5C8F398C532C35
:10063000632C732C8DA19EA1AFA1B8A584329A4FD3
:10064000AF4FBF4F0CF0ABC069817A818B819C8129
:100650006455724F8F4F9F4F9B01AC010E949915BB
:100660002B013C01A7E0B0E09B01AC010E94CB153F
:100670007B018C019B01AC01550F220B322FA9018C
:1006800029833A834B835C8329893A894B895C8926
:10069000682D782D882D982D57016801E980FE2C52
:1006A0000E2D1E2D0E94511929A73AA74BA75CA712
:1006B0006DA77EA78FA7292E8301720192E0EE0C11
:1006C000FF1C001F111F9A95D1F727013801770CE5
:1006D0004408542C32012D893E894F89588D632D51
:1006E000732D862F932D57016801E42CF42C042DD3
:1006F000142D0E94511928AB39AB4AAB5BAB362E97
:10070000572E3C014CC06D8D7E8D8F8D98A19B0125
:10071000AC010E94E01859016A017B01E82F192FF2
:1007200003E00E941A190E2F0E945A190E94A8175E
:1007300020E030E040E05DE20E94DB140E943617CA
:1007400029873A874B875C876D877E878F87988B51
:1007500029813A814B815C81CA01B9010E949915B6
:100760008B019C01F4E03595279517950795FA952F
:10077000D1F709A71AA72BA73CA7DC01CB01BB0F18
:10078000880B982FDC018DA78EA78FA7282E18AA7B
:1007900019AA1AAA1BAA312C512C612C712CE09198
:1007A0007E03F0917F0320917A0330917B0340E038
:1007B00050E060E070E080E090E000E10E941A19F3
:1007C000422E3983498B5D8B4B018CAB998F9F01F6
:1007D00040E050E06D8D7E8D8F8D98A10E94E018D5
:1007E00007E00E94331959016A017B018C01242D15
:1007F000398149895D89B4018CA9998D0E9451196B
:100800002983398B4D8B598F6CAB7DAB88AF99AFFA
:10081000E0917C03F0917D0320917803309179037E
:1008200040E050E060E070E080E090E00FE00E9487
:100830001A197901142F952E862E7BAF8AAF492E77
:100840009F0140E050E06D8D7E8D8F8D98A10E94BC
:10085000E01808E00E94331959016A01B62FF72FFA
:10086000082FE92F9701412F592D682D7BAD8AADB7
:10087000942DEB2EFF2E1E2F0E945119CDA0DEA02D
:10088000EFA0F8A489849A84AB84BC84C818D908E2
:10089000EA08FB08C0926803D0926903E0926A03F9
:1008A000F0926B03A8A8B9A8CAA8DBA8E32CF52C82
:1008B00083010E945A1949A05AA06BA07CA0770C12
:1008C0004408542C3201A9A0BAA0CBA0DCA0E42C8F
:1008D000F42C042D142D0E948718122FD32EE42EF1
:1008E000B52FF62FE72FF82E092FA0E00E946319ED
:1008F00084F421503109404E5F4F6F4F7F4F8F4F2F
:100900009F4F122FD32EE42EB52FF62FE72FF82E60
:10091000092F212F3D2D4E2D5B2F6F2F7E2F8F2DD9
:10092000902F05E10E943319322E432EE42F952E8D
:10093000B62FA72F882E792E298139894D89598D77
:100940006CA97DA988AD99ADA9A4BAA4CBA4DCA457
:10095000EDA4FEA40FA5122D0E945A1959016A0197
:100960007B018C01232D342D4E2F592D6B2F7A2F87
:10097000882D972D0E945A19122FD32EE42EB52FB1
:10098000F62FE72FF82E092FA0E00E94631984F4B8
:10099000215030484F4F5F4F6F4F7F4F8F4F9F4FCA
:1009A000122FD32EE42EB52FF62FE72FF82E092F76
:1009B000212F3D2D4E2D5B2F6F2F7E2F8F2D902FB2
:1009C0000FE00E943319209370033093710340931A
:1009D000720350937303EB960FB6F894DEBF0FBE0D
:1009E000CDBFDF91CF911F910F91FF90EF90DF90DE
:1009F000CF90BF90AF909F908F907F906F905F90BF
:100A00004F903F902F900895E7E7F2E0A089B189D9
:100A100082E08C93A485B5851C92A685B78580E17C
:100A20008C93108EA489B58986E08C93A289B389B2
:100A30008C9180618C93A289B3898C9188608C930E
:100A4000A289B3898C9180688C930288F389E02D08
:100A500080818F7D80830895682F8CE593E00C94CE
:100A6000D7071F93CF93DF93182FD62F809186033C
:100A7000813099F48091F5030E94B901612F8CE5D2
:100A800093E00E94D7076D2F8CE593E00E94D70773
:100A9000DF91CF911F910C94B601811114C0C091C8
:100AA000F50360E08C2F0E948D08812F8F730E94C8
:100AB000D90A8D2F0E94D90A61E08C2FDF91CF9146
:100AC0001F910C948D08DF91CF911F9108951F9372
:100AD000CF93DF93182FD62F80918603813099F41E
:100AE0008091F6030E94B901612F8CE593E00E948A
:100AF000D7076D2F8CE593E00E94D707DF91CF9148
:100B00001F910C94B601811114C0C091F60360E0EE
:100B10008C2F0E948D08812F8F730E94D90A8D2FF0
:100B20000E94D90A61E08C2FDF91CF911F910C9424
:100B30008D08DF91CF911F910895CF92DF92EF92B0
:100B4000FF920F931F93CF93DF93D82F7A01C22F79
:100B50006F73162F10688091F503D81304C02230EC
:100B600010F0162F106C60E08D2F0E948D08812FE1
:100B70000E94D90A8701CC2ED12CC8018E199F0959
:100B80008C159D053CF480E00E94D90AF801819300
:100B90008F01F3CF61E08D2F0E948D088C2FDF91A4
:100BA000CF911F910F91FF90EF90DF90CF9008951C
:100BB000613208F060E20E942D011092760280936B
:100BC00075020895CF93C82F0E94B9016FE08CE59C
:100BD00093E00E94D70780E00E94D00061E08C2F54
:100BE0000E94D8058CE593E00E948B07CF91089571
:100BF0000F931F93CF93DF93C82F8B010E94B901EE
:100C000088EA90E00E942C0580E00E94D0008823B2
:100C100011F080E012C066E08C2F0E94D80586306B
:100C2000C1F7E8010A5F1F4F8CE593E00E948B0734
:100C30008993C017D107C1F786E0DF91CF911F914B
:100C40000F9108958F929F92AF92BF92CF92DF92B1
:100C5000EF92FF926B017C010E9455094B015C01F0
:100C6000C60ED71EE81EF91E0E94550968157905A3
:100C70008A059B0528F0C616D706E806F906A0F7F0
:100C8000FF90EF90DF90CF90BF90AF909F908F90AC
:100C90000895FC01538D448D252F30E0842F90E082
:100CA000821B930B541710F0CF9608950197089567
:100CB000FC01918D828D981761F0828DDF01A80F64
:100CC000B11D5D968C91928D9F5F9F73928F90E086
:100CD00008958FEF9FEF0895FC01918D828D9817F5
:100CE00031F0828DE80FF11D858D90E008958FEF32
:100CF0009FEF0895FC01918D228D892F90E0805CFB
:100D00009F4F821B91098F739927089587E792E07F
:100D10000E947A0621E0892B09F420E0822F0895B1
:100D2000FC01848DDF01A80FB11DA35ABF4F2C9188
:100D3000848D90E001968F739927848FA689B78957
:100D40002C93A089B1898C9180648C93938D848D30
:100D5000981306C00288F389E02D80818F7D8083FF
:100D60000895EF92FF920F931F93CF93DF93EC01BF
:100D700081E0888F9B8D8C8D981305C0E889F98957
:100D8000808185FD24C0F62E0B8D10E00F5F1F4F74
:100D90000F731127E02E8C8DE8120CC00FB607FCE4
:100DA000FACFE889F989808185FFF5CFCE010E94CD
:100DB0009006F1CF8B8DFE01E80FF11DE35AFF4F36
:100DC000F0820B8FEA89FB898081806207C0EE89FF
:100DD000FF896083E889F98980818064808381E06C
:100DE00090E0DF91CF911F910F91FF90EF900895C8
:100DF000CF93DF93EC01888D8823C9F0EA89FB89C2
:100E0000808185FD05C0A889B9898C9186FD0FC0B8
:100E10000FB607FCF5CF808185FFF2CFA889B9898D
:100E20008C9185FFEDCFCE010E949006E7CFDF9138
:100E3000CF91089580E090E0892B29F00E948606EA
:100E400081110C94000008953FB7F89480915104EB
:100E500090915204A0915304B091540426B5A89BDC
:100E600005C02F3F19F00196A11DB11D3FBFBA2F3C
:100E7000A92F982F8827820F911DA11DB11DBC019C
:100E8000CD0142E0660F771F881F991F4A95D1F761
:100E9000089585ED8093BC008091BC0084FDFCCF5B
:100EA00010927202089540912704262F30E0240FFB
:100EB000311D21323105DCF4209172022430C9F455
:100EC000FC0180E090E0861758F4309127042191CE
:100ED000DC01AB5FBB4FA30FB11D2C930196F3CF89
:100EE00080912704680F6093270480E0089581E0D3
:100EF000089582E008950895E09176028091750248
:100F0000E81730F4F0E0E55FFD4F808190E0089550
:100F10008FEF9FEF08959091760280917502981758
:100F200050F4E92FF0E0E55FFD4F208130E09F5F56
:100F30009093760202C02FEF3FEFC9010895809190
:100F4000750290E020917602821B91090895CF925C
:100F5000DF92EF92FF920F931F93CF93DF937C0169
:100F6000262F972F8A0180914F02882391F0C62F58
:100F7000D72F6E01C40ED51ECC15DD0571F0699119
:100F8000D701ED91FC910190F081E02DC701099509
:100F9000F3CF642F822F0E945307C801DF91CF91B6
:100FA0001F910F91FF90EF90DF90CF900895CF9316
:100FB000DF931F92CDB7DEB7698320914F022223C2
:100FC000D1F020917302203240F021E030E0FC01AA
:100FD0003383228380E090E015C080917402E82F73
:100FE000F0E0E05BFD4F998190838F5F8093740206
:100FF0008093730205C061E0CE0101960E94530701
:1010000081E090E00F90DF91CF910895089580E006
:1010100090E008950E94A21A1F920F920FB60F92AD
:1010200011242F933F934F935F936F937F938F93ED
:101030009F93AF93BF93EF93FF9387E792E00E9454
:101040009006FF91EF91BF91AF919F918F917F910A
:101050006F915F914F913F912F910F900FBE0F9025
:101060001F9018951F920F920FB60F9211242F9375
:101070008F939F93EF93FF93E0918702F091880203
:101080008081E0918D02F0918E0282FD12C09081EC
:10109000809190028F5F8F7320919102821751F09F
:1010A000E0919002F0E0E958FD4F958F8093900217
:1010B00001C08081FF91EF919F918F912F910F90AF
:1010C0000FBE0F901F901895833081F028F4813067
:1010D00099F08230A1F008958730A9F08830B9F0F6
:1010E0008430D1F4809180008F7D03C08091800096
:1010F0008F7780938000089584B58F7702C084B580
:101100008F7D84BD08958091B0008F7703C080915A
:10111000B0008F7D8093B00008951F93CF93DF932D
:10112000282F30E0F901E650FF4F8491F901EA5C85
:10113000FE4FD491F901EE5DFE4FC491CC23C9F06E
:10114000162F81110E946408EC2FF0E0EE0FFF1FB4
:10115000E25FFE4FA591B4918FB7F894111105C0CD
:101160009C91ED2FE095E92302C0EC91ED2BEC93DF
:101170008FBFDF91CF911F9108951F93CF93DF937E
:10118000182FEB010E949701209711F460E004C032
:10119000CF3FD10539F461E0812FDF91CF911F91CD
:1011A0000C948D08E12FF0E0E650FF4FE491E3301E
:1011B000F9F048F4E130B9F0E230A1F584B580628D
:1011C00084BDC8BD34C0E730E9F0E83019F1E4303F
:1011D00049F580918000806280938000D0938B00DD
:1011E000C0938A0024C084B5806884BDC7BD1FC079
:1011F00080918000806880938000D0938900C093A4
:10120000880015C08091B00080688093B000C093C2
:10121000B3000DC08091B00080628093B000C09395
:10122000B40005C0C038D1050CF0B5CFAFCFDF9109
:10123000CF911F9108958F929F92AF92BF92CF92BC
:10124000DF92EF92FF926B017C010E9424074B0119
:101250005C01C114D104E104F104F1F00E942407FF
:10126000DC01CB0188199909AA09BB09883E934082
:10127000A105B10570F321E0C21AD108E108F10817
:1012800088EE880E83E0981EA11CB11CC114D10405
:10129000E104F10419F7DDCFFF90EF90DF90CF90DC
:1012A000BF90AF909F908F9008952FB7F894609162
:1012B0004D0470914E0480914F04909150042FBFC3
:1012C00008951F920F920FB60F9211242F933F9300
:1012D0008F939F93AF93BF9380914D0490914E0451
:1012E000A0914F04B091500430914C0423E0230F9F
:1012F0002D3720F40196A11DB11D05C026E8230F4E
:101300000296A11DB11D20934C0480934D0490932F
:101310004E04A0934F04B0935004809151049091D7
:101320005204A0915304B09154040196A11DB11D23
:101330008093510490935204A0935304B0935404A7
:10134000BF91AF919F918F913F912F910F900FBEC1
:101350000F901F9018951F920F920FB60F921124A5
:101360002F933F934F935F936F937F938F939F93AD
:10137000AF93BF93EF93FF938091B900887F80363E
:1013800009F49CC068F5883209F45BC090F48031A0
:1013900009F454C038F4882309F4F6C0883009F4FD
:1013A0004DC0F6C0883109F44CC0803209F45DC0EC
:1013B000EFC0803409F468C048F4803309F455C0A4
:1013C000883309F0E5C080934E02D8C0803509F417
:1013D0004FC0883509F45DC0883409F0D9C0D6C043
:1013E000883909F4C7C0A8F4883709F467C038F40D
:1013F000883609F463C0803709F460C0C9C08838F2
:1014000009F4B8C0803909F45FC0803809F0C0C061
:101410005BC0803B09F486C038F4803A09F466C0AA
:10142000883A09F47FC0B4C0803C09F4A7C0883C66
:1014300009F4A4C0883B09F48AC0AAC080912B0299
:1014400010C090914D0280914C02981770F5E09178
:101450004D0281E08E0F80934D02F0E0E45DFD4F80
:1014600080818093BB0085EC86C080934E028EC045
:10147000E0914D0281E08E0F80934D028091BB0080
:10148000F0E0E45DFD4F808390914D0280914C022D
:101490006EC0E0914D0281E08E0F80934D028091ED
:1014A000BB00F0E0E45DFD4F80838091710281110B
:1014B0006DC081E08093700284EA61C083E0809314
:1014C000720210924B04CFCF80914B04803208F00F
:1014D00051C0E0914B0481E08E0F80934B048091CA
:1014E000BB00F0E0E55DFB4F8083BDCF85EC8093D2
:1014F000BC001092720280914B04803230F4E09173
:101500004B04F0E0E55DFB4F108260914B0470E00E
:10151000E0912904F0912A048BE294E0099510925D
:101520004B0436C084E0809372021092280410921B
:101530002704E0912504F091260409958091270461
:10154000811105C081E08093270410920504E09189
:10155000280481E08E0F80932804F0E0EB5FFB4FBE
:1015600080818093BB009091280480912704981774
:1015700008F479CF85E88093BC000AC085EC80939D
:10158000BC001092720204C010924E020E944907E1
:10159000FF91EF91BF91AF919F918F917F916F914B
:1015A0005F914F913F912F910F900FBE0F901F9021
:1015B00018958EBD00000DB407FEFDCF8EB50895C1
:1015C0001F93CF93DF931F92CDB7DEB7172FFC0188
:1015D000808169830E94B90180E090E00E942C051F
:1015E000812F912F990F990B0E942C056981862FCD
:1015F000912F0E942C050F90DF91CF911F910C9499
:10160000B601CF93282F862FC42F213848F030E021
:1016100020583109B901660F771F0E94BD080DC01F
:1016200027FD08C030E0B901660F771F0E94BD0892
:1016300061E004C060E00E948D0860E08C2FCF91D3
:101640000C948D08EF92FF920F931F93CF93DF932B
:1016500061E082E00E948D0862E487E792E00E94E8
:10166000B1066091650187E792E00E94B106609142
:10167000670187E792E00E94B1068091670180933D
:10168000640108E611E0C0E0D0E08091670190E0DD
:10169000C817D9078CF47801F80161918F0187E7A9
:1016A00092E00E94B10690916401F7018081892740
:1016B000809364012196E9CF6091640187E792E00D
:1016C000DF91CF911F910F91FF90EF900C94B10695
:1016D000CF92DF92EF92FF920F931F93CF93DF93FE
:1016E0006C017A018B01C0E0D0E0CE15DF0589F0F6
:1016F000D8016D918D01D601ED91FC910190F081A1
:10170000E02DC6010995892B11F47E0102C02196B6
:10171000ECCFC701DF91CF911F910F91FF90EF9018
:10172000DF90CF9008956115710579F0FB0101906C
:101730000020E9F73197AF01461B570BDC01ED9113
:10174000FC910280F381E02D099480E090E00895FF
:101750004F925F926F927F92EF92FF920F931F933F
:10176000CF93DF93CDB7DEB7A1970FB6F894DEBF66
:101770000FBECDBF7C01FA01CB0119A2223008F4C3
:101780002AE08E010F5D1F4F422E512C612C712CCF
:10179000BF01A30192010E94A915F901CA010150DC
:1017A00011096A3014F4605D01C0695CD8016C9362
:1017B000232B242B252B61F7B801C7010E94930B23
:1017C000A1960FB6F894DEBF0FBECDBFDF91CF91CB
:1017D0001F910F91FF90EF907F906F905F904F90CF
:1017E0000895CF93DF93CDB7DEB72E970FB6F89459
:1017F000DEBF0FBECDBF789484B5826084BD84B552
:10180000816084BD85B5826085BD85B5816085BDFB
:1018100080916E00816080936E00109281008091B3
:10182000810082608093810080918100816080933B
:101830008100809180008160809380008091B10060
:1018400084608093B1008091B00081608093B0008B
:1018500080917A00846080937A0080917A0082601F
:1018600080937A0080917A00816080937A008091E1
:101870007A00806880937A001092C1001092580319
:101880001092590310925A0310925B0310921603A0
:1018900010921703109218031092190368EB7BE063
:1018A00080E090E00E94220687E792E09093570341
:1018B000809356030E9404050E9455096093160305
:1018C00070931703809318039093190361E471E0F8
:1018D00080915603909157030E94930B6AE070E049
:1018E00080E090E00E9422068DE00E94970161E076
:1018F0008DE00E948D0882E00E9497010E940405FD
:101900000E9471018CE08093B8001092B401109293
:10191000B30110920A0210920902109286038AE023
:101920008093880399E09093870324E020939A039F
:1019300023E020939B031092890328E02093A303C4
:1019400027E02093A4031092AA039093F6038093B8
:10195000F50380918A0390918B03853F910569F08F
:10196000843F21E0920749F0803D974031F085EFB8
:1019700090E090938B0380938A0380918A039091E7
:101980008B03843F41E0940761F0803D57E0950769
:1019900069F0853F9105B1F489E29CE5AFE0BCE3D5
:1019A00009C089E29CE5AFE8BCE304C089E29CE59C
:1019B000AFE8BDE38093F7039093F803A093F90396
:1019C000B093FA0384E29BE0A8E9B9E38093FF03B4
:1019D00090930004A0930104B093020480E49AED74
:1019E000AFEFB8E38093FB039093FC03A093FD0358
:1019F000B093FE0389E00E94970161E08091F603B5
:101A00000E948D088091F5030E94970161E080910A
:101A1000F5030E948D08DFB6F8948091A80181112A
:101A200024C0ECE2F1E08491E0E4F1E09491E82F4D
:101A3000F0E0EE0FFF1FE85EFE4FA591B491EC9130
:101A4000E92321F461E08AE00E948D088AE00E9487
:101A500097018CB580618CBD8CB580648CBD8DE0A8
:101A60000E9497018BE00E9497018091A8018F5FEF
:101A70008093A801DFBE8CB58C7F8CBD8DB5816055
:101A80008DBD8CB58F7D8CBD8CB5837F8CBD8091D9
:101A90008603813031F48091F5030E94E205F82E2F
:101AA0000CC081110AC021E0AE014F5F5F4F6FE0B3
:101AB0008091F5030E949D05F98080918603813015
:101AC00031F48091F6030E94E205E82E0CC08111EA
:101AD0000AC021E0AE014F5F5F4F6FE08091F603D7
:101AE0000E949D05E9808F2D90E09E298D339846B8
:101AF00009F012C680918903882331F080918C030C
:101B00008295880F807E01C080E020918A03309109
:101B10008B03243FB1E03B0729F0203D374019F407
:101B2000886101C0886060918D036370682B80E1DB
:101B30000E94670560E081E10E94670580918E0345
:101B4000811102C060E001C060E880918F038823AA
:101B500029F0809190038F708064682B82E10E944D
:101B6000670580919703882311F060E201C060E06F
:101B70008091960381116061809195038111686065
:101B800080919803811162608EE10E9467058091C7
:101B90009103882311F060E201C060E0809192031C
:101BA00081116061809193038111686083E10E94DB
:101BB000670580919E03882311F060E201C060E018
:101BC00080919D038111606180919C038111686007
:101BD0008FE10E94670580919903882331F060911D
:101BE0009B036295660F607E01C060E080919A035E
:101BF000883031F0803131F0843029F4606103C0E5
:101C0000686101C0686080919F0387FD03C06460C4
:101C10008370682B80E20E9467058091A00388236F
:101C200049F06091A1036370F0E26F9FB00111244D
:101C3000606801C060E081E20E9467058091A503B1
:101C4000882311F060E801C060E02091A4032770B0
:101C500044E0249F900111249091A603937050E2D8
:101C6000959FC0011124822B682B80E20E943105D0
:101C7000E091A303E850E93028F4F0E0E45FFE4F80
:101C8000608101C060E081E20E9431058091A8037B
:101C9000882311F080E201C080E06091A9036370A5
:101CA000682B82E20E9431056091A7036370660F82
:101CB000660F83E20E94310560E084E20E943105F4
:101CC00086E70E94B9010E94B601882339F084E0BA
:101CD00090E09093B4018093B30133C08EE10E94F1
:101CE000C30163E070E080E090E00E941B0956E7CA
:101CF000E52E53E0F52E20EA822F2E870E94C301A5
:101D000062E070E080917403909175030E94D801A5
:101D10008CE593E00E948B07D82E8CE593E00E941F
:101D20008B071D2D00E0D801A82BCD01F701819371
:101D300091937F012E852E5F203BF1F680E00E947B
:101D4000370281E10E9497018EE00E94970187E0AF
:101D50000E94970149E1E42E41E0F42E05E111E0F3
:101D6000D8018D918D010E949701F70181917F012A
:101D70000E949701F1E009311F0791F786E0E6E044
:101D8000F1E0DE01119601900D928A95E1F79E0136
:101D90002F5F3F4F69010DEF11E036E0E32ED601D2
:101DA000FD906D018F2D0E94B9010E94B60188231C
:101DB00039F083E090E09093B4018093B3010FC0B9
:101DC0008DE090E00E947519FC01F082E486D80154
:101DD0008D939D938D01B2E009301B0701F760E000
:101DE0008DE00E948D0822E0622E712C24EF31E0FC
:101DF00040E050E0209322033093230340932403D8
:101E00005093250310922603109227031092280363
:101E10001092290380911A0390911B03A0911C0337
:101E2000B0911D0380931E0390931F03A093200382
:101E3000B09321030E94550960931A0370931B030A
:101E400080931C0390931D030E9455090091160373
:101E5000109117032091180330911903DC01CB0175
:101E6000801B910BA20BB30B82339105A105B10529
:101E700060F422E330E040E050E0281B390B4A0BCD
:101E80005B0BCA01B9010E9422060E9455096093AA
:101E900016037093170380931803909319030E94FD
:101EA00055096B017C0162E571E0809156039091C8
:101EB00057030E94930B2AE041E050E060E070E09D
:101EC00080915603909157030E94A80B69E571E039
:101ED00080915603909157030E94930B2AE0B7011B
:101EE000A60180915603909157030E94A80B6BE5C1
:101EF00071E080915603909157030E94930B80915B
:101F00001A0390911B03A0911C03B0911D03B7010C
:101F1000A601481B590B6A0B7B0B2AE080915603E4
:101F2000909157030E94A80B6BE571E080915603D6
:101F3000909157030E94930B40911A0350911B03F9
:101F400060911C0370911D0380911E0390911F03EB
:101F5000A0912003B0912103481B590B6A0B7B0B06
:101F60002AE080915603909157030E94A80B00919C
:101F70005603109157036DE571E0C8010E94930B61
:101F80006FE471E0C8010E94930B65E070E080E0AF
:101F900090E00E9422060E94550960931A037093F4
:101FA0001B0380931C0390931D0387E792E00E941C
:101FB0007A06892B09F457C087E792E00E945806F9
:101FC000382F823411F481E030C02091F8012130A3
:101FD00039F499279093B6018093B50182E025C02A
:101FE000223061F48093B701809364018823E1F08B
:101FF00083E08093F8011092A90135C02330C1F429
:102000009091A901E92FF0E0EB54FE4F83832091DA
:10201000640182278093640181E0890F8093A90184
:102020009091B7018917F8F084E08093F8011BC004
:10203000243091F48091640138130EC085E08093C0
:10204000F8010E9455096093F9017093FA01809399
:10205000FB019093FC0107C08FEF8093F801709211
:10206000B4016092B3018091F801853009F0F8C2A3
:102070001092F8010091B5011091B60105301105DB
:1020800009F4C0C26CF40230110509F44BC10330ED
:10209000110509F478C20130110509F0DDC26BC0E9
:1020A0000238110539F10338110509F441C001382E
:1020B000110509F0D1C270920A02609209020DEF77
:1020C00011E0E12CF12CF701EB54FE4F648170E03C
:1020D000762F66278381682BD8018D919D918D0184
:1020E0000E94E00AB2E0EB0EF11CECE0EE16F10407
:1020F00051F7B6C270920A026092090208EBE02E14
:1021000001E0F02E85E1C82E81E0D82E09E111E032
:10211000D8014D918D01F60161916F01D7018D912B
:102120007D010E94010BB1E00D311B0789F798C2B8
:102130008091B801282F30E04091090250910A02A5
:102140004217530709F48CC2823061F0833079F072
:10215000813009F085C2E1E0F0E0F0930A02E093FB
:1021600009027EC270920A026092090279C2E0E01E
:10217000F0E0099575C280918603813041F4BE017B
:102180006F5F7F4F8091F6030E94F8050BC08111AD
:102190000AC026E0AE014F5F5F4F68E28091F60310
:1021A0000E949D058987F985F63009F040C04A8173
:1021B00050E0542F44278981482B5093B203409319
:1021C000B1032C8130E0322F22278B81282B3093D2
:1021D000B4032093B3038E8190E0982F88276D81FC
:1021E000862B9093B6038093B50360910304662316
:1021F000F1F06091E9037091EA03461B570B50938D
:10220000B2034093B1034091EB035091EC03241BC4
:10221000350B3093B4032093B3032091ED03309139
:10222000EE03821B930B9093B6038093B5038091CA
:102230008603813041F4BE016F5F7F4F8091F503CB
:102240000E94F8050BC081110AC026E0AE014F5F65
:102250005F4F68E28091F5030E949D058A872A8579
:102260002630F1F48A8190E0982F88272981822BEB
:102270009093B8038093B7038C8190E0982F8827C0
:102280002B81822B9093BA038093B9038E8190E0C7
:10229000982F88272D81822B9093BC038093BB03BA
:1022A0006091B5037091B603072E000C880B990B53
:1022B0000E94A0149B01AC016091B3037091B40320
:1022C000072E000C880B990B2E873B874C875D8768
:1022D0000E94A0142E853B854C855D850E94651665
:1022E0002BED3FE049E450E40E94E6152BED3FE082
:1022F00049EC50E40E94C41620E03FEF4FE757E45A
:102300000E94DB1420E030E040E057E40E94E51535
:102310000E94721741E050E05093660140936501BE
:1023200086E069C110936601009365018CE080939B
:1023300067018DEF91E098878F83C12CD12CAF81FD
:10234000B8850D911D91B887AF831092B201F80145
:10235000F0808F2D0E94B90182E090E00E942C0550
:102360000E94B60169E08F2D0E94D805F12C909152
:10237000750280917602981759F08CE593E00E94DF
:102380008B07EF2DF0E0E655FE4F8083F394EFCFFF
:10239000E090AA01F12CFE2CEE248091AB01E82AFA
:1023A000D8011896FC92EE9217978091AC0190E0BC
:1023B000982F88272091AD01822B12969C938E93A3
:1023C00011978091AE0190E0982F88272091AF015E
:1023D000822B16969C938E9315978091B00190E076
:1023E000982F88272091B101822B14969C938E936D
:1023F00013978091B2011B968C930E9455094B0153
:102400005C01B701FF0C880B990B0E94A0141B0103
:102410002C01F80181859285881A990AB40180E01F
:1024200090E00E949E1420E030E04AE754E40E94CD
:10243000C4169B01AC01C201B1010E94C41620E088
:1024400030E040E752E40E94DB144B015C01D8010C
:102450001C966C9170E080E090E00E949E149B01BD
:10246000AC01C501B4010E94C4160E947217F801A4
:10247000708767830E945509D8011A967C936E93E2
:102480001997F601EB59FE4F7F0117966D917C91DC
:102490001897072E000C880B990B0E94A01420E0BF
:1024A00030E44CE955E40E94C41620E030E04FE7E8
:1024B00053E40E94DB1420E030E0A9010E94E615FD
:1024C0000E947917D70113966C93F8016581768184
:1024D00080E090E00E949E149B01AC0160E07FEFE1
:1024E0008FE797E40E94C41620E030E040E85FE305
:1024F0000E94E5159B01AC0160E070E48EE495E478
:102500000E94C41620E030E44CE156E40E94C41658
:102510000E942D1820E030EC43E755E40E94C416D9
:102520002FE03FEC4BE55BE30E94E6159B01AC011D
:1025300060E070E080E89FE30E94C41623E333E983
:1025400048E853E40E94E51520E030E048EC52E40E
:102550000E94C41620E030E04FE753E40E94DB14F1
:1025600020E030E0A9010E94E6150E947917D7010A
:1025700014966C93B2E0CB0ED11CECE0CE16D104D5
:1025800009F0DDCE66C081E00E94370260917003E1
:102590007091710380917203909173030E94A01453
:1025A00020E030E040E251E40E94C41620E03AED21
:1025B00045EC57E40E94E51520E038E449E156E493
:1025C0000E94C41620E030E040EF51E40E94C4169F
:1025D00020E03FEF4FE757E40E94DB1420E030E0BB
:1025E00040E057E40E94E5150E94721710936601BF
:1025F0000093650182E080936701609368017093A6
:10260000690127C0109366010093650183E0809300
:10261000670180910902809368018091B3018093E2
:10262000690180E480937C0080917A0080648093CB
:102630007A0080917A0086FDFCCF8091780020910D
:10264000790090E0922B9595879595958795809345
:102650006A010E94220B04C07092B4016092B3011F
:102660008091C00086FF1AC0ECEFF0E08491E8E3AF
:10267000F1E01491E4E2F1E00491002379F081119A
:102680000E946408E02FF0E0EE0FFF1FE051FF4FC3
:10269000A591B4918C91182309F045C00E94550969
:1026A00010920A02109209020DEF11E060E070E052
:1026B000D8018D919D918D010E94E00AB2E0093010
:1026C0001B07A1F705E111E089E1E82E81E0F82E72
:1026D000F70141917F01D8016D918D0180E80E9441
:1026E000010BBDE1EB16B1E0FB0691F70E94550925
:1026F00028EE33E040E050E00E94A91521E0643666
:1027000071058105910508F020E0622F8DE00E949F
:102710008D080E941A076ACB81E090E09093B40183
:102720008093B301CDCA60E082E00E948D0864E628
:1027300070E080E090E00E941B09B0CF10927A0216
:102740001092790288EE93E0A0E0B0E080937B02E3
:1027500090937C02A0937D02B0937E0221E231E04F
:10276000309378022093770225EC30E03093840296
:102770002093830224EC30E030938602209385027C
:1027800020EC30E0309388022093870221EC30E087
:1027900030938A022093890222EC30E030938C023D
:1027A00020938B0226EC30E030938E0220938D0232
:1027B0001092900210929102109292021092930243
:1027C00010921A0310921B0310921C0310921D0307
:1027D00010921E0310921F031092200310922103E7
:1027E00010922203109223031092240310922503C7
:1027F00010922603109227031092280310922903A7
:1028000010925F0310925E038093600390936103C4
:10281000A0936203B093630383E391E090935D031D
:1028200080935C0381E0809386039BE6909387030B
:102830009EE190938803809389038093950380930E
:1028400096038093970325EF30E030938B0320931A
:102850008A0396E090938C0310928D0310928E035E
:1028600010928F0310929003109291031092920392
:10287000109293031092940380939803809399038A
:1028800080939C0380939D0380939E0322E020937A
:102890009A0390939B039FEF90939F031092A00342
:1028A0001092A1038093A20394E09093A30397E076
:1028B0009093A4031092A50393E09093A6039093A2
:1028C000A7031092A8031092A9038093AA03E6E835
:1028D000F3E020E030E011AE12AE13AE14AEDF0133
:1028E000AB5BBF4F1D921D921D921C9213971C96BD
:1028F0001D921D921D921C921397C9018A579C4FDD
:10290000DC01A35ABF4F11961C921E921696119687
:102910001C921E9216961D921C9234962E5F3F4F6B
:1029200026303105C1F6109203040E94710186E73A
:1029300090E090937503809374030895E89409C020
:1029400097FB3EF490958095709561957F4F8F4FE2
:102950009F4F9923A9F0F92F96E9BB279395F695F8
:10296000879577956795B795F111F8CFFAF4BB0F76
:1029700011F460FF1BC06F5F7F4F8F4F9F4F16C0DA
:10298000882311F096E911C0772321F09EE8872F64
:10299000762F05C0662371F096E8862F70E060E020
:1029A0002AF09A95660F771F881FDAF7880F969599
:1029B000879597F908950E94EE140C945F150E9474
:1029C000511538F00E94581520F0952311F00C9401
:1029D00048150C944E1511240C9493150E947015F3
:1029E00070F3959FC1F3950F50E0551F629FF00162
:1029F000729FBB27F00DB11D639FAA27F00DB11D7B
:102A0000AA1F649F6627B00DA11D661F829F222703
:102A1000B00DA11D621F739FB00DA11D621F839F8A
:102A2000A00D611D221F749F3327A00D611D231F60
:102A3000849F600D211D822F762F6A2F11249F57AE
:102A400050409AF0F1F088234AF0EE0FFF1FBB1FB1
:102A5000661F771F881F91505040A9F79E3F510570
:102A600080F00C9448150C9493155F3FE4F3983E66
:102A7000D4F3869577956795B795F795E7959F5F1A
:102A8000C1F7FE2B880F911D9695879597F90895AC
:102A900097F99F6780E870E060E008959FEF80EC11
:102AA000089500240A9416161706180609060895B4
:102AB00000240A9412161306140605060895092E1A
:102AC0000394000C11F4882352F0BB0F40F4BF2B89
:102AD00011F460FF04C06F5F7F4F8F4F9F4F0895C9
:102AE00057FD9058440F551F59F05F3F71F04795BF
:102AF000880F97FB991F61F09F3F79F087950895A4
:102B0000121613061406551FF2CF4695F1DF08C0C2
:102B1000161617061806991FF1CF869571056105DF
:102B200008940895E894BB2766277727CB0197F987
:102B30000895DB018F939F930E94CB15BF91AF91B6
:102B4000A29F800D911DA39F900DB29F900D112407
:102B50000895A1E21A2EAA1BBB1BFD010DC0AA1FDE
:102B6000BB1FEE1FFF1FA217B307E407F50720F0F6
:102B7000A21BB30BE40BF50B661F771F881F991F71
:102B80001A9469F760957095809590959B01AC01BA
:102B9000BD01CF0108950E94D615A59F900DB49F49
:102BA000900DA49F800D911D11240895A29FB00146
:102BB000B39FC001A39F700D811D1124911DB29F71
:102BC000700D811D1124911D08955058BB27AA270F
:102BD0000E94FD150C945F150E94511538F00E945B
:102BE000581520F039F49F3F19F426F40C944E1533
:102BF0000EF4E095E7FB0C944815E92F0E94701540
:102C000058F3BA17620773078407950720F079F421
:102C1000A6F50C9492150EF4E0950B2EBA2FA02D6C
:102C20000B01B90190010C01CA01A0011124FF2779
:102C3000591B99F0593F50F4503E68F11A16F04074
:102C4000A22F232F342F4427585FF3CF4695379573
:102C50002795A795F0405395C9F77EF41F16BA0B38
:102C6000620B730B840BBAF09150A1F0FF0FBB1FE6
:102C7000661F771F881FC2F70EC0BA0F621F731F2F
:102C8000841F48F4879577956795B795F7959E3F8C
:102C900008F0B0CF9395880F08F09927EE0F97951D
:102CA000879508950E94511560F080E891E009F43D
:102CB0009EEF0E94581528F040E851E071F45EEF55
:102CC0000CC00C944E150C949215E92FE0780E94DC
:102CD000701540F3092E052AB1F326173707480768
:102CE000590738F00E2E07F8E02569F0E025E0647A
:102CF0000AC0EF6307F8009407FADB01B9019D01F0
:102D0000DC01CA01AD01EF930E94DB160E945F1542
:102D10000E9495165F91552339F02BED3FE049E471
:102D200050FD49EC0C94E6150895DF93DD27B92F8B
:102D3000BF7740E85FE31616170648075B0718F4ED
:102D4000D92F0E941D189F938F937F936F930E949A
:102D50007518E8E6F0E00E94F6170E945F152F91C3
:102D60003F914F915F910E94EE14DD2351F09058F6
:102D7000A2EA2AED3FE049EC5FE3D0785D270E94AC
:102D8000FD15DF910C945F150E94D8160C945F1509
:102D90000E94581558F00E94511540F029F45F3FE9
:102DA00029F00C94481551110C9493150C944E1560
:102DB0000E94701568F39923B1F3552391F3951B85
:102DC000550BBB27AA2762177307840738F09F5F4C
:102DD0005F4F220F331F441FAA1FA9F335D00E2EB9
:102DE0003AF0E0E832D091505040E695001CCAF726
:102DF0002BD0FE2F29D0660F771F881FBB1F2617E9
:102E000037074807AB07B0E809F0BB0B802DBF01BF
:102E1000FF2793585F4F3AF09E3F510578F00C948E
:102E200048150C9493155F3FE4F3983ED4F38695D0
:102E300077956795B795F7959F5FC9F7880F911DAF
:102E40009695879597F90895E1E0660F771F881F9B
:102E5000BB1F621773078407BA0720F0621B730B4E
:102E6000840BBA0BEE1F88F7E0950895BEE304D0FB
:102E700008F490E80895BFE322273327A9010E94B0
:102E8000781560F19F5748F1B91740F1BFE3B91BBE
:102E90009927B8503AF4660F771F881F991FB3958A
:102EA000D2F316C0B8504AF0232F342F452F562F97
:102EB000672F782F8827B850BAF7B85F49F0869502
:102EC000779567955795479537952795BA95B9F7AB
:102ED00016F40E94E61788940895889460E070E0E4
:102EE000CB0108950E9479176894B1110C94931541
:102EF00008950E94781588F09F5798F0B92F992768
:102F0000B751B0F0E1F0660F771F881F991F1AF0D4
:102F1000BA95C9F714C0B13091F00E949215B1E092
:102F200008950C949215672F782F8827B85F39F091
:102F3000B93FCCF3869577956795B395D9F73EF46D
:102F400090958095709561957F4F8F4F9F4F089515
:102F5000E894F92F96EBFF2381F01216130614065E
:102F6000440B9395F69587957795679557954040CF
:102F7000FF23B9F71BC099270895882351F498506F
:102F8000D2F7872B762F652F542F432F322F20E037
:102F9000B1F3121613061406440B88233AF09A95DF
:102FA000440F551F661F771F881FCAF755234AF421
:102FB000440F551F11F460FF04C06F5F7F4F8F4FA8
:102FC0009F4F880F9695879597F9089590958095CE
:102FD0007095609550954095309521953F4F4F4F96
:102FE0005F4F6F4F7F4F8F4F9F4F0895DF93CF936A
:102FF0001F930F93FF92EF92DF927B018C016894F5
:1030000006C0DA2EEF010E94EE14FE01E894A591AD
:103010002591359145915591A6F3EF010E94FD153B
:10302000FE019701A801DA9469F7DF90EF90FF9015
:103030000F911F91CF91DF9108959B01AC0160E04A
:1030400070E080E89FE30C94C41616F00C94791895
:103050000C944E1568940C9448150E947815A8F3AA
:103060009923C1F3AEF3DF93CF931F930F93FF9296
:10307000C92FDD2788232AF02197660F771F881F25
:10308000DAF720E030E040E85FEB9FE3883920F09A
:10309000803E38F021968F770E94E615E5E9F0E052
:1030A00004C00E94E615E2ECF0E00E94F6178B01E6
:1030B000BE01EC01FB2E6F5771097595771F880BC8
:1030C000990B0E94A01428E132E741E35FE30E94DC
:1030D000EE14AF2D9801AE01FF900F911F91CF918B
:1030E000DF910E94FD150C945F159B01AC010C94BF
:1030F000DB149F3F31F0915020F4879577956795C9
:10310000B795880F911D9695879597F90895DF9348
:10311000CF931F930F939A9DF02D219FF00D8B9DC0
:10312000F00D8A9DE02DF10D039FF00D029FE00D43
:10313000F11D4E9DE00DF11D5E9DF00D4F9DF00DBA
:103140007F936F93BF92AF925F934F93D5010E948D
:10315000D6158B01AC01D7010E94D615EB01E80F03
:10316000F91FD6010E94D7182F913F91D6010E94D6
:10317000D615C60FD71FE81FF91FAF91BF910E9448
:10318000D7182F913F910E94D615C60FD71FE81F61
:10319000F91FD6010E94D615E60FF71F9801BE0150
:1031A000CF0111240F911F91CF91DF9108950E94BB
:1031B000D615460F571FC81FD91F08F4319608951A
:1031C00097FB57FF0C94F0189F938F930E94F01871
:1031D0006E1B7F0BAF91BF918A0B9B0B0895E894F8
:1031E000DF93CF93FC01DB010E94D6157F936F9391
:1031F000E9019A01AC01BF93AF933F932F93DF0195
:103200000E94D61526F46C1B7D0B820B930B9E013E
:10321000EB01FC010E94D718AF91BF912F913F9114
:103220000E94D718BE01CF01F9012F913F91CF9194
:10323000DF9108950F93083090F0982F872F762F05
:10324000652F542F432F322F22270850F4CF220FFF
:10325000331F441F551F661F771F881F991F0A952C
:10326000B2F70F91089597FB10F8169400080F938A
:10327000083098F00850232F342F452F562F672FF2
:10328000782F892F902DF4CF059497958795779572
:10329000679557954795379527950A95AAF70F9102
:1032A00008952A0D3B1D4C1D5D1D6E1D7F1D801F49
:1032B000911F08952A193B094C095D096E097F0980
:1032C000800B910B08950024A7FD00942A17300568
:1032D0004005500560057005800590050895EE0FC6
:1032E000FF1F0590F491E02D0994CF93DF93823076
:1032F000910510F482E090E0E0915704F0915804B9
:1033000020E030E0C0E0D0E0309711F14081518101
:1033100048175907C0F04817590761F48281938113
:10332000209719F09B838A832BC090935804809335
:10333000570426C02115310519F04217530718F418
:103340009A01BE01DF01EF010280F381E02DDCCFA5
:103350002115310509F1281B390B2430310590F472
:1033600012968D919C9113976115710521F0FB01C7
:103370009383828304C09093580480935704FD0183
:10338000329644C0FD01E20FF31F819391932250C6
:1033900031092D933C933AC0209155043091560445
:1033A000232B41F420910201309103013093560404
:1033B0002093550420910001309101012115310520
:1033C00041F42DB73EB74091040150910501241BF3
:1033D000350BE0915504F0915604E217F307A0F481
:1033E0002E1B3F0B2817390778F0AC014E5F5F4F5B
:1033F0002417350748F04E0F5F1F50935604409333
:1034000055048193919302C0E0E0F0E0CF01DF9199
:10341000CF9108950F931F93CF93DF93009709F4F3
:103420008CC0FC01329713821282009157041091D4
:1034300058040115110581F420813181820F931FF9
:1034400020915504309156042817390779F5F093E7
:103450005604E093550471C0D80140E050E0AE1727
:10346000BF0750F412962D913C911397AD01211591
:10347000310509F1D901F3CF9D01DA0133832283AC
:1034800060817181860F971F8217930769F4EC01A1
:1034900028813981260F371F2E5F3F4F31832083CC
:1034A0008A819B8193838283452B29F4F09358046E
:1034B000E093570442C01396FC93EE931297ED01EC
:1034C000499159919E01240F351FE217F30771F4BA
:1034D00080819181840F951F029611969C938E9303
:1034E0008281938113969C938E931297E0E0F0E093
:1034F000D80112968D919C911397009719F0F801BD
:103500008C01F6CF8D919C9198012E5F3F4F820FD9
:10351000931F20915504309156042817390769F4F8
:10352000309729F4109258041092570402C0138265
:1035300012821093560400935504DF91CF911F918E
:103540000F91089581E090E0F8940C94A71AF894F4
:02355000FFCFAB
:10355200000059048000312B2C2D2E2F200000005A
:103562004000000060030506090F10080400000077
:1035720000B106680B4906F8067A0658066C060082
:10358200000000D707A70707087B079F078B077C68
:1035920007564D4450565F317C5F564D4450560D90
:1035A2000A00564D4450455F003A323A005F564D8C
:0435B200445045003C
:00000001FF
