:100000000C94A6000C94CE000C94CE000C94CE0060
:100010000C94CE000C94CE000C94CE000C94CE0028
:100020000C94CE000C94CE000C94CE000C94CE0018
:100030000C94CE000C94CE000C94CE000C94CE0008
:100040000C94E8030C94CE000C94B9020C94930227
:100050000C94CE000C94CE000C94CE000C94CE00E8
:100060000C9432040C94CE00084AD73B3BCE016E70
:1000700084BCBFFDC12F3D6C74319ABD56833DDAFF
:100080003D00C77F11BED9E4BB4C3E916BAAAABE0E
:10009000000000803F08000000BE922449123EABE1
:1000A000AAAA2ABECDCCCC4C3E00000080BEABAA92
:1000B000AAAA3E00000000BF000000803F00000030
:1000C0000000084178D3BB4387D1133D190E3CC3D0
:1000D000BD4282AD2B3E68EC8276BED98FE1A93E4F
:1000E0004C80EFFFBE01C4FF7F3F00000000000016
:1000F0000000000023002600290000000008000284
:1001000001000003040700000000000000000000E0
:100110000000250028002B0000000000240027001C
:100120002A00040404040404040402020202020279
:1001300003030303030301020408102040800102AB
:10014000040810200102040810207E1111241FBE93
:10015000CFEFD8E0DEBFCDBF11E0A0E0B1E0EEEC24
:10016000F0E302C005900D92AA34B107D9F724E05C
:10017000AAE4B1E001C01D92A233B207E1F710E09A
:10018000C6EAD0E004C02197FE010E942D17C53AAF
:10019000D107C9F70E948B080C9465180C940000D5
:1001A000FC01538D448D252F30E0842F90E0821B7D
:1001B000930B541710F0CF96089501970895FC0102
:1001C000918D828D981761F0828DDF01A80FB11D8E
:1001D0005D968C91928D9F5F9F73928F90E00895B2
:1001E0008FEF9FEF0895FC01918D828D981731F06C
:1001F000828DE80FF11D858D90E008958FEF9FEFC0
:100200000895FC01918D228D892F90E0805C9F4F95
:10021000821B91098F739927089585EA92E00E94C5
:10022000010121E0892B09F420E0822F0895FC01CF
:10023000848DDF01A80FB11DA35ABF4F2C91848D6F
:1002400090E001968F739927848FA689B7892C93A4
:10025000A089B1898C9180648C93938D848D98133F
:1002600006C00288F389E02D80818F7D8083089508
:10027000EF92FF920F931F93CF93DF93EC0181E0F6
:10028000888F9B8D8C8D981305C0E889F9898081B2
:1002900085FD24C0F62E0B8D10E00F5F1F4F0F73EE
:1002A0001127E02E8C8DE8120CC00FB607FCFACF98
:1002B000E889F989808185FFF5CFCE010E94170179
:1002C000F1CF8B8DFE01E80FF11DE35AFF4FF08255
:1002D0000B8FEA89FB898081806207C0EE89FF89E4
:1002E0006083E889F98980818064808381E090E07F
:1002F000DF91CF911F910F91FF90EF900895CF93D1
:10030000DF93EC01888D8823C9F0EA89FB8980811D
:1003100085FD05C0A889B9898C9186FD0FC00FB6EF
:1003200007FCF5CF808185FFF2CFA889B9898C9130
:1003300085FFEDCFCE010E941701E7CFDF91CF916E
:10034000089580E090E0892B29F00E940D01811131
:100350000C94000008953FB7F89480913402909176
:100360003502A0913602B091370226B5A89B05C090
:100370002F3F19F00196A11DB11D3FBFBA2FA92F24
:10038000982F8827820F911DA11DB11DBC01CD01A1
:1003900042E0660F771F881F991F4A95D1F708958D
:1003A00085ED8093BC008091BC0084FDFCCF109251
:1003B000A002089540910A02262F30E0240F311D3B
:1003C00021323105DCF42091A0022430C9F4FC0173
:1003D00080E090E0861758F430910A022191DC0108
:1003E000A851BE4FA30FB11D2C930196F3CF80915E
:1003F0000A02680F60930A0280E0089581E0089580
:1004000082E008950895E091A4028091A302E81784
:1004100030F4F0E0E85CFD4F808190E008958FEFCC
:100420009FEF08959091A4028091A302981750F431
:10043000E92FF0E0E85CFD4F208130E09F5F909372
:10044000A40202C02FEF3FEFC90108958091A302DB
:1004500090E02091A402821B91090895CF92DF922F
:10046000EF92FF920F931F93CF93DF937C01262F80
:10047000972F8A0180917C02882391F0C62FD72F75
:100480006E01C40ED51ECC15DD0571F06991D70142
:10049000ED91FC910190F081E02DC7010995F3CF1A
:1004A000642F822F0E94DA01C801DF91CF911F9142
:1004B0000F91FF90EF90DF90CF900895CF93DF934F
:1004C0001F92CDB7DEB7698320917C022223D1F041
:1004D0002091A102203240F021E030E0FC01338382
:1004E000228380E090E015C08091A202E82FF0E026
:1004F000E358FD4F998190838F5F8093A202809390
:10050000A10205C061E0CE0101960E94DA0181E0FE
:1005100090E00F90DF91CF910895089580E090E0F2
:1005200008950E9460181F920F920FB60F92112427
:100530002F933F934F935F936F937F938F939F93EB
:10054000AF93BF93EF93FF9385EA92E00E94170168
:10055000FF91EF91BF91AF919F918F917F916F919B
:100560005F914F913F912F910F900FBE0F901F9071
:1005700018951F920F920FB60F9211242F938F93FD
:100580009F93EF93FF93E091B502F091B6028081C3
:10059000E091BB02F091BC0282FD12C0908180917B
:1005A000BE028F5F8F732091BF02821751F0E091DE
:1005B000BE02F0E0EB55FD4F958F8093BE0201C067
:1005C0008081FF91EF919F918F912F910F900FBE9E
:1005D0000F901F901895833081F028F4813099F0A6
:1005E0008230A1F008958730A9F08830B9F08430C6
:1005F000D1F4809180008F7D03C0809180008F773F
:1006000080938000089584B58F7702C084B58F7D74
:1006100084BD08958091B0008F7703C08091B000B1
:100620008F7D8093B00008951F93CF93DF93282F81
:1006300030E0F901E650FF4F8491F901EA5CFE4F8A
:10064000D491F901EE5DFE4FC491CC23C9F0162F71
:1006500081110E94EB02EC2FF0E0EE0FFF1FE25F32
:10066000FE4FA591B4918FB7F894111105C09C91DC
:10067000ED2FE095E92302C0EC91ED2BEC938FBFB9
:10068000DF91CF911F9108951F93CF93DF93182F80
:10069000EB010E949506209711F460E004C0CF3F63
:1006A000D10539F461E0812FDF91CF911F910C9436
:1006B0001403E12FF0E0E650FF4FE491E330F9F04E
:1006C00048F4E130B9F0E230A1F584B5806284BD30
:1006D000C8BD34C0E730E9F0E83019F1E43049F53D
:1006E00080918000806280938000D0938B00C093C3
:1006F0008A0024C084B5806884BDC7BD1FC08091B6
:100700008000806880938000D0938900C093880027
:1007100015C08091B00080688093B000C093B30092
:100720000DC08091B00080628093B000C093B4008F
:1007300005C0C038D1050CF0B5CFAFCFDF91CF9158
:100740001F9108958F929F92AF92BF92CF92DF92A6
:10075000EF92FF926B017C010E94AB014B015C01A7
:10076000C114D104E104F104F1F00E94AB01DC01F9
:10077000CB0188199909AA09BB09883E9340A105B4
:10078000B10570F321E0C21AD108E108F10888EE42
:10079000880E83E0981EA11CB11CC114D104E10491
:1007A000F10419F7DDCFFF90EF90DF90CF90BF906D
:1007B000AF909F908F9008952FB7F894609130027A
:1007C0007091310280913202909133022FBF0895CF
:1007D0001F920F920FB60F9211242F933F938F9376
:1007E0009F93AF93BF938091300290913102A0917B
:1007F0003202B091330230912F0223E0230F2D37C4
:1008000020F40196A11DB11D05C026E8230F029614
:10081000A11DB11D20932F028093300290933102CD
:10082000A0933202B093330280913402909135024A
:10083000A0913602B09137020196A11DB11D80939F
:10084000340290933502A0933602B0933702BF91E1
:10085000AF919F918F913F912F910F900FBE0F906D
:100860001F9018951F920F920FB60F9211242F937D
:100870003F934F935F936F937F938F939F93AF9328
:10088000BF93EF93FF938091B900887F803609F47E
:100890009CC068F5883209F45BC090F4803109F49B
:1008A00054C038F4882309F4F6C0883009F44DC0E8
:1008B000F6C0883109F44CC0803209F45DC0EFC045
:1008C000803409F468C048F4803309F455C0883393
:1008D00009F0E5C080937B02D8C0803509F44FC091
:1008E000883509F45DC0883409F0D9C0D6C088398C
:1008F00009F4C7C0A8F4883709F467C038F488360B
:1009000009F463C0803709F460C0C9C0883809F4AD
:10091000B8C0803909F45FC0803809F0C0C05BC03E
:10092000803B09F486C038F4803A09F466C0883AFE
:1009300009F47FC0B4C0803C09F4A7C0883C09F426
:10094000A4C0883B09F48AC0AAC08091580210C094
:1009500090917A0280917902981770F5E0917A026D
:1009600081E08E0F80937A02F0E0E75AFD4F80819C
:100970008093BB0085EC86C080937B028EC0E091A3
:100980007A0281E08E0F80937A028091BB00F0E0C2
:10099000E75AFD4F808390917A02809179026EC070
:1009A000E0917A0281E08E0F80937A028091BB0001
:1009B000F0E0E75AFD4F808380919F0281116DC066
:1009C00081E080939E0284EA61C083E08093A0026C
:1009D00010922E02CFCF80912E02803208F051C0AB
:1009E000E0912E0281E08E0F80932E028091BB0059
:1009F000F0E0E25FFD4F8083BDCF85EC8093BC00CB
:100A00001092A00280912E02803230F4E0912E02EA
:100A1000F0E0E25FFD4F108260912E0270E0E09105
:100A20000C02F0910D028EE092E0099510922E02D8
:100A300036C084E08093A00210920B0210920A024A
:100A4000E0910802F0910902099580910A02811152
:100A500005C081E080930A021092E801E0910B0248
:100A600081E08E0F80930B02F0E0E851FE4F808111
:100A70008093BB0090910B0280910A02981708F4B2
:100A800079CF85E88093BC000AC085EC8093BC00D8
:100A90001092A00204C010927B020E94D001FF912C
:100AA000EF91BF91AF919F918F917F916F915F91E6
:100AB0004F913F912F910F900FBE0F901F9018955F
:100AC0008EBD00000DB407FEFDCF8EB50895CF9307
:100AD000282F862FC42F213848F030E020583109C4
:100AE000B901660F771F0E9444030DC027FD08C09F
:100AF00030E0B901660F771F0E94440361E004C033
:100B000060E00E94140360E08C2FCF910C941403DA
:100B1000EF92FF920F931F93CF93DF9361E082E0F8
:100B20000E94140362E485EA92E00E943801609119
:100B30004B0185EA92E00E94380160914C0185EA00
:100B400092E00E94380180914C0180934A010DE4AB
:100B500011E0C0E0D0E080914C0190E0C817D907C7
:100B60008CF47801F80161918F0185EA92E00E948E
:100B7000380190914A01F7018081892780934A01C9
:100B80002196E9CF60914A0185EA92E0DF91CF9109
:100B90001F910F91FF90EF900C943801382F209106
:100BA000A10290919D02213208F049C08091A002DB
:100BB0008111FCCF42E04093A00230939F023FEFAF
:100BC00030937B0210927A0220937902ADE7B2E073
:100BD00049E552E0FA013E2F341B321718F43D91DB
:100BE0003193F9CF1092580220915802990F922B0D
:100BF0009093580290919E02913061F410929E025F
:100C0000909158029093BB009091BC0093FDF8CF57
:100C100095EC01C095EE9093BC009091A0029230AB
:100C2000E1F390917B029F3F79F080917B028032CB
:100C300041F080917B02803331F084E005C081E097
:100C400003C082E001C083E01092A2021092A102D0
:100C500010927C0208959091A0029111FCCF91E036
:100C60009093A00290939F022FEF20937B0210920B
:100C70007A02260F2093790290935802909158029D
:100C8000880F892B8093580280919E02813061F4F5
:100C900010929E02809158028093BB008091BC000C
:100CA00083FDF8CF85EC01C085EE8093BC00809178
:100CB000A0028130E1F380917A02861710F46091EE
:100CC0007A02A9E5B2E028E332E0F9018E2F821B17
:100CD000861718F48D918193F9CF862F089510927D
:100CE000A4021092A3021092A2021092A1021092EA
:100CF000A00281E080939F0210929E0261E082E157
:100D00000E94140361E083E10E941403E9EBF0E028
:100D100080818E7F808380818D7F808388E4809333
:100D2000B80085E48093BC00089590E0FC01EA5C83
:100D3000FE4F2491FC01EE5DFE4F8491882399F0D3
:100D400090E0880F991FFC01E85EFE4FA591B491D9
:100D5000FC01E25FFE4F859194918FB7F894EC917E
:100D6000E22BEC938FBF0895E5EAF2E0A089B18908
:100D700082E08C93A485B5851C92A685B78580E119
:100D80008C93108EA489B58986E08C93A289B3894F
:100D90008C9180618C93A289B3898C9188608C93AB
:100DA000A289B3898C9180688C930288F389E02DA5
:100DB00080818F7D8083089581E00C94CE05682F1B
:100DC0008AE893E00C945E021F93CF93DF93182F71
:100DD000D62F9091B0039130C9F480911F04909365
:100DE0007C0280939D021092A2021092A102612FB8
:100DF0008AE893E00E945E026D2F8AE893E00E94E9
:100E00005E02DF91CF911F910C94DC06911114C00A
:100E1000C0911F0460E08C2F0E941403812F8F73F8
:100E20000E9460058D2F0E94600561E08C2FDF918C
:100E3000CF911F910C941403DF91CF911F910895CE
:100E40001F93CF93DF93182FD62F9091B00391303B
:100E5000C9F48091200490937C0280939D021092AB
:100E6000A2021092A102612F8AE893E00E945E0222
:100E70006D2F8AE893E00E945E02DF91CF911F916F
:100E80000C94DC06911114C0C091200460E08C2FFA
:100E90000E941403812F8F730E9460058D2F0E9482
:100EA000600561E08C2FDF91CF911F910C941403AA
:100EB000DF91CF911F910895CF92DF92EF92FF9231
:100EC0000F931F93CF93DF93D82F7A01C22F6F73A5
:100ED000162F106880911F04D81304C0223010F020
:100EE000162F106C60E08D2F0E941403812F0E943A
:100EF00060058701CC2ED12CC8018E199F098C1555
:100F00009D053CF480E00E946005F80181938F010B
:100F1000F3CF61E08D2F0E9414038C2FDF91CF91CE
:100F20001F910F91FF90EF90DF90CF900895613265
:100F300008F060E20E942B061092A4028093A302A4
:100F40000895CF93C82F81E080937C02C0939D02C7
:100F50001092A2021092A1026FE08AE893E00E9430
:100F60005E0280E00E94CE0561E08C2F0E94970710
:100F70008AE893E00E941202CF9108950F931F9385
:100F8000CF93DF93C82F8B0181E080937C02C093C5
:100F90009D021092A2021092A10288EA90E00E94A3
:100FA000DF0680E00E94CE05882311F080E012C0A9
:100FB00066E08C2F0E9497078630C1F7E8010A5F30
:100FC0001F4F8AE893E00E9412028993C017D1074D
:100FD000C1F786E0DF91CF911F910F9108956132A3
:100FE00008F060E20E942B061092A4028093A302F4
:100FF000089590919E0321E020937C0290939D029E
:101000001092A2021092A102682F8AE893E00E9437
:101010005E020C94DC06CF92DF92EF92FF920F9368
:101020001F93CF93DF936C017A018B01C0E0D0E076
:10103000CE15DF0589F0D8016D918D01D601ED91B6
:10104000FC910190F081E02DC6010995892B11F4E6
:101050007E0102C02196ECCFC701DF91CF911F9195
:101060000F91FF90EF90DF90CF9008950F931F9313
:10107000CF938E5B0E94F90761E070E080E090E022
:101080000E94A20363E070E080E090E00E94A2036F
:1010900080E00E94F90763E070E080919E039091E8
:1010A0009F030E94EF07E0E0C0E000E09091A30200
:1010B0008091A402981781F08AE893E00E941202BE
:1010C000082F8AE893E00E941202C82F8AE893E072
:1010D0000E941202E82FEACF802F90E0A0E0B0E05B
:1010E0009C01112700274C2F50E060E070E0762F24
:1010F000652F542F4427D901C801840F951FA61FBF
:10110000B71FBC01CD016E0F711D811D911DCF91C7
:101110001F910F910895CF93DF93CDB7DEB7C754DA
:10112000D1090FB6F894DEBF0FBECDBF789484B559
:10113000826084BD84B5816084BD85B5826085BDD3
:1011400085B5816085BD80916E00816080936E0061
:101150001092810080918100826080938100809153
:101160008100816080938100809180008160809304
:1011700080008091B10084608093B1008091B000C4
:1011800081608093B00080917A00846080937A00BF
:1011900080917A00826080937A0080917A008160E9
:1011A00080937A0080917A00806880937A00109210
:1011B000C100109286031092870310928803109248
:1011C0008903109244031092450310924603109233
:1011D00047030E94DC032B013C014B015C0128EB1F
:1011E000820E2BE0921EA11CB11C0E94DC03641530
:1011F00075058605970528F086169706A806B90690
:10120000A0F785EA92E090938503809384030E947F
:10121000B4060E94DC0360934403709345038093FB
:101220004603909347038091840390918503DC01EA
:10123000ED91FC910280F381E02D40E150E069E303
:1012400071E009950E94DC032B013C014B015C011C
:10125000BAE08B0E911CA11CB11C0E94DC0364152A
:1012600075058605970528F086169706A806B9061F
:10127000A0F782E00E9495060E94B4060E946F06C5
:101280008CE08093B8001092B0038AE08093B203A0
:1012900099E09093B10324E02093C40323E02093CA
:1012A000C5031092B30328E02093CD0327E02093D9
:1012B000CE031092D4039093200480931F04809156
:1012C000B4039091B503853F910569F0843FE1E057
:1012D0009E0749F0803D974031F085EF90E0909374
:1012E000B5038093B4038091B4039091B503843F18
:1012F00021E0920761F0803D37E0930769F0853F78
:101300009105B1F489E29CE5AFE0BCE309C089E254
:101310009CE5AFE8BCE304C089E29CE5AFE8BDE32F
:101320008093210490932204A0932304B093240477
:1013300084E29BE0A8E9B9E38093290490932A040E
:10134000A0932B04B0932C0480E49AEDAFEFB8E3A4
:101350008093250490932604A0932704B093280437
:1013600089E00E94950661E0809120040E941403A8
:1013700080911F040E94950661E080911F040E94E5
:101380001403DFB6F89480918D01811124C0ECE242
:10139000F1E08491E0E4F1E09491E82FF0E0EE0FC9
:1013A000FF1FE85EFE4FA591B491EC91E92321F473
:1013B00061E08AE00E9414038AE00E9495068CB5E1
:1013C00080618CBD8CB580648CBD8DE00E949506DB
:1013D0008BE00E94950680918D018F5F80938D0137
:1013E000DFBE8CB58C7F8CBD8DB581608DBD8CB51D
:1013F0008F7D8CBD8CB5837F8CBD8091B003813097
:1014000031F480911F040E94A107F82E0CC08111B5
:101410000AC021E0AE014F5F5F4F6FE080911F0473
:101420000E945C07F9808091B003813031F4809193
:1014300020040E94A107E82E0CC081110AC021E0FF
:10144000AE014F5F5F4F6FE0809120040E945C0708
:10145000E9808F2D90E09E298D33984609F03FC793
:101460008091B303882331F08091B6038295880F71
:10147000807E01C080E02091B4033091B503243F09
:1014800051E0350729F0203D374019F4886101C04B
:1014900088606091B7036370682B80E10E94200729
:1014A00060E081E10E9420078091B803811102C0B1
:1014B00060E001C060E88091B903882329F0809141
:1014C000BA038F708064682B82E10E9420078091AC
:1014D000C103882311F060E201C060E08091C00385
:1014E000811160618091BF03811168608091C203A6
:1014F000811162608EE10E9420078091BB038823E6
:1015000011F060E201C060E08091BC038111606174
:101510008091BD038111686083E10E942007809162
:10152000C803882311F060E201C060E08091C70326
:10153000811160618091C603811168608FE10E9412
:1015400020078091C303882331F06091C503629521
:10155000660F607E01C060E08091C403883031F086
:10156000803131F0843029F4606103C0686101C0CA
:1015700068608091C90387FD03C064608370682B35
:1015800080E20E9420078091CA03882349F060917D
:10159000CB03637080E2689FB0011124606801C0D2
:1015A00060E081E20E9420078091CF03882311F040
:1015B00060E801C060E02091CE03277094E0299F8D
:1015C000900111249091D0039370A0E29A9FC001E2
:1015D0001124822B682B80E20E94E406E091CD0367
:1015E000E850E93028F4F0E0E45FFE4F608101C08C
:1015F00060E081E20E94E4068091D203882311F02A
:1016000080E201C080E06091D3036370682B82E2C6
:101610000E94E4066091D1036370660F660F83E257
:101620000E94E40660E084E20E94E4068EE10E94EB
:10163000F90763E070E080E090E00E94A20340EAD6
:10164000E42E43E0F42E20EA822F28962FAF28972D
:101650000E94F90762E070E080919E0390919F03E1
:101660000E94EF078AE893E00E941202D82E8AE8CF
:1016700093E00E9412021D2D00E0F801E82BCF013B
:10168000D7018D939D937D0128962FAD28972E5FCE
:10169000203BD1F681E10E9495068EE00E949506DE
:1016A00087E00E94950683E00E9495068FE00E94E5
:1016B000950685E00E94950680E10E94950686E0E9
:1016C0000E94950688E00E94950689E00E94950692
:1016D00084E00E94950686E0E6E0F1E0DE011196E6
:1016E00001900D928A95E1F78E010F5F1F4F28E957
:1016F000E22E21E0F22E36E0D32E8DE090E00E9423
:101700003317F80121918F01DC012C931C96DC9298
:10171000F701819391937F01F4EAEF16F1E0FF0660
:1017200061F785EA92E00E940101892B09F44CC01F
:1017300085EA92E00E94DF00823421F401E0009308
:10174000E70142C09091E701913031F48093A50107
:1017500012E01093E70138C0923061F48093A60143
:1017600080934A018823E1F023E02093E70110925F
:101770008E012AC09330C1F490918E01E92FF0E0E0
:10178000EB55FE4F828320914A01822780934A01C4
:1017900081E0890F80938E019091A6018917A0F0B6
:1017A00034E03093E70110C0943041F490914A0145
:1017B000891304C045E04093E70106C05FEF5093F2
:1017C000E70162E06093A4018091E701853009F0B0
:1017D00066C51092E7018091A501833009F48BC2A0
:1017E00090F4813009F478C0823009F055C58093B7
:1017F0004B019CE090934C0158E9252E51E0352E89
:10180000C12CD12C47C28138D1F0823809F44BC0A9
:10181000853009F041C580934B0133E030934C0192
:1018200010924D018091A40180934E0140E44093B9
:101830007C0080917A00806480937A001AC598E9D0
:10184000E92E91E0F92EC12CD12CF601EB55FE4F7B
:10185000038110E0102F00278281082BD701ED9122
:10186000FD917D018081B1E0B0937C0280939D0267
:101870001092A2021092A10280E090E00E94DF0686
:10188000812F912F990F990B0E94DF06C8010E94AA
:10189000DF060E94DC06E2E0CE0ED11CFCE0CF1693
:1018A000D10499F6FCC44FE063E08091A7010E9447
:1018B000670540E165E08091A8010E94670548E066
:1018C00066E08091A9010E94670544E069E080918B
:1018D000AA010E946705E3C48091B003813041F4FE
:1018E000BE016F5F7F4F809120040E94BE070BC036
:1018F00081110AC026E0AE014F5F5F4F68E2809120
:1019000020040E945C078EAF0EAD063009F042C085
:101910002A8130E0322F22278981282B3093DC0363
:101920002093DB038C8190E0982F88274B81BC01AA
:10193000642BAB015093DE034093DD038E8190E076
:10194000982F88276D81862B9093E0038093DF0387
:1019500060912D046623F1F06091130470911404DA
:10196000261B370B3093DC032093DB0320911504F7
:1019700030911604421B530B5093DE034093DD035A
:101980002091170430911804821B930B9093E0036D
:101990008093DF038091B003813041F4BE016F5F1B
:1019A0007F4F80911F040E94BE070BC081110AC0A7
:1019B00026E0AE014F5F5F4F68E280911F040E94F6
:1019C0005C078FAF7FAD7630F1F48A8190E0982F7D
:1019D00088272981822B9093E2038093E1038C81F5
:1019E00090E0982F88272B81822B9093E40380939B
:1019F000E3038E8190E0982F88272D81822B90938E
:101A0000E6038093E5036091DF037091E003072E06
:101A1000000C880B990B0E9480129B01AC018091F5
:101A2000DD039091DE03BC01990F880B990B28967A
:101A30002FAF289725963FAF259726964FAF26972D
:101A400027965FAF27970E94801228962FAD289780
:101A500025963FAD259726964FAD269727965FADE5
:101A600027970E9423142BED3FE049E450E40E94A5
:101A7000A4132BED3FE049EC50E40E94821420E0D7
:101A80003FEF4FE757E40E94BB1220E030E040E018
:101A900057E40E94A3130E94301581E080934B010C
:101AA00086E080934C01E0C3E0908F01F12CFE2C86
:101AB000EE2480919001E82AD8011896FC92EE92CB
:101AC00017978091910190E0982F8827209192019B
:101AD000822B12969C938E9311978091930190E0A4
:101AE000982F882720919401822B16969C938E9391
:101AF00015978091950190E0982F88272091960165
:101B0000822B14969C938E931397809197011B962A
:101B10008C930E94DC032B013C01B701FF0C880B66
:101B2000990B0E9480124B015C01F801818592851E
:101B3000481A590AB20180E090E00E947E1220E02B
:101B400030E04AE754E40E9482149B01AC01C501D5
:101B5000B4010E94821420E030E040E752E40E9489
:101B6000BB122B013C01D8011C966C9170E080E007
:101B700090E00E947E129B01AC01C301B2010E9461
:101B800082140E943015F801708767830E94DC037D
:101B9000D8011A967C936E931997F601E55BFE4F78
:101BA0007F0117966D917C911897072E000C880B7A
:101BB000990B0E94801220E030E44CE955E40E9429
:101BC000821420E030E04FE753E40E94BB1220E093
:101BD00030E0A9010E94A4130E943715D7016C932D
:101BE000F8016581768180E090E00E947E129B0181
:101BF000AC0160E07FEF8FE797E40E94821420E061
:101C000030E040E85FE30E94A3139B01AC0160E079
:101C100070E48EE495E40E94821420E030E44CE10C
:101C200056E40E9482140E94EB1520E030EC43E75A
:101C300055E40E9482142FE03FEC4BE55BE30E94E9
:101C4000A4139B01AC0160E070E080E89FE30E9478
:101C5000821423E333E948E853E40E94A31320E00D
:101C600030E048EC52E40E94821420E030E04FE77C
:101C700053E40E94BB1220E030E0A9010E94A413AB
:101C80000E943715D70111966C93BCE0CB16D10496
:101C900009F4FFC2D1010D911D911D01B2E0CB0EDF
:101CA000D11C10929701F801F080F1E0F0937C02D2
:101CB000F0929D021092A2021092A10282E090E0A6
:101CC0000E94DF060E94DC0669E08F2D0E949707C4
:101CD000F12C9091A3028091A402981709F4E4CE0C
:101CE0008AE893E00E941202EF2DF0E0E157FE4FE8
:101CF0008083F394EECF80E190E00E9436086B0180
:101D00007C0180E090E00E9436086FA378A789A745
:101D10009AA78091AA039091AB03A0E0B0E0BA2FFC
:101D2000A92F982F882797018601081B190B2A0BCA
:101D30003B0B0BA31CA32DA33EA32091AC0330911E
:101D4000AD0340E050E06BA17CA18DA19EA10E945B
:101D50009E1607E10E94F11619012A01A2019101C4
:101D60002053384F4F4F5F4F2BA73CA74DA75EA77F
:101D7000203D3740410551050CF0DFC06BA17CA12F
:101D80008DA19EA19B01AC010E949E1601E20E94C2
:101D9000F11659016A017B01E82F192F02E00E9418
:101DA000D8160E2F0E9418172F83388749875A8715
:101DB0006B877C878D879E87A2019101C201B1014B
:101DC0000E9479136B017C01A3E0B0E09B01AC01A0
:101DD0000E9489138B019C013595279517950795CE
:101DE0000F87188B298B3A8B1F851F8F28892FA768
:101DF000398938AB4A8949AB8B019C01330F000B01
:101E0000102F98010B8B1C8B2D8B3E8B1B891AABD3
:101E10001BAB1CAB1DABA5E0B0E0A70196010E9477
:101E200089138B019C01E3E035952795179507955C
:101E3000EA95D1F70F8B188F298F3A8F1F891EAB28
:101E4000288D2FAB398D38AF4A8D49AF8B019C015E
:101E5000330F000B102F98010B8F1C8F2D8F3E8F8F
:101E60001B8D1AAF1BAF1CAF1DAF6BA57CA58DA53D
:101E70009EA564327A4F8F4F9F4F0CF0A8C0C201CD
:101E8000B1016455724F8F4F9F4F9B01AC010E946F
:101E900079132B013C01A7E0B0E09B01AC010E944B
:101EA00089137B018C019B01AC01550F220B322F52
:101EB000A9012F8F38A349A35AA32F8538894989AF
:101EC0005A896B89762F862F962F57016801EF8CE0
:101ED000FE2C0E2D1E2D0E940F172F8F3FA748ABF3
:101EE00059AB6AAB7BAB8CAB9DAB8301720192E0CB
:101EF000EE0CFF1C001F111F9A95D1F72701380126
:101F0000770C4408542C32012F89388D498D5A8D15
:101F10006B8D762F862F962F57016801E42CF42CB9
:101F2000042D142D0E940F172EAB3FAB48AF59AFB5
:101F30006AAF7BAF8CAF9DAF4AC06BA17CA18DA176
:101F40009EA19B01AC010E949E1659016A017B0172
:101F5000E82F192F03E00E94D8160E2F0E941817A1
:101F60000E94661520E030E040E05DE20E94BB1276
:101F70000E94F4142F83388749875A876B877C87A0
:101F80008D879E87A2019101C201B1010E94791340
:101F90008B019C01F4E03595279517950795FA95E7
:101FA000D1F70F8F1FA728AB39ABDC01CB01BB0FDB
:101FB000880B982FDC018AAB8BAB8CAB8DAB1EAA48
:101FC0001FAA18AE19AE1AAE1BAE1CAE1DAEE09124
:101FD000A803F091A9038090A4039090A503940115
:101FE00040E050E060E070E080E090E000E10E94BE
:101FF000D81619012A013B014C019F0140E050E035
:102000006BA17CA18DA19EA10E949E1607E00E945B
:10201000F11659016A017B018C019101A201B30102
:10202000C4010E940F172F873B8B4F8B5B8F21962C
:102030006FAF219722967FAF229723968FAF23977A
:1020400024969FAF2497E091A603F091A703809078
:10205000A2039090A303940140E050E060E070E0A0
:1020600080E090E00FE00E94D81619012A013B01A0
:102070004C019F0140E050E06BA17CA18DA19EA18D
:102080000E949E1608E00E94F11659016A017B0128
:102090008C019101A201B301C4010E940F17AEA8E7
:1020A000BFA8C8ACD9ACEAACFBAC0CAD1DAD0E946E
:1020B00018174FA058A469A47AA4770C4408542C8C
:1020C0003201AFA0B8A4C9A4DAA4E42CF42C042DE6
:1020D000142D0E944516F22E032F142FB52FF62F24
:1020E000E72FD82EE92EA0E00E94211784F421507A
:1020F0003109404E5F4F6F4F7F4F8F4F9F4FF22EF2
:10210000032F142FB52FF62FE72FD82EE92E2F2DC2
:10211000302F412F5B2F6F2F7E2F8D2D9E2D05E1B0
:102120000E94F11639014A01B62FA72FF82FE92F87
:102130002F853B894F895B8D21966FAD2197229624
:102140007FAD229723968FAD239724969FAD24973A
:10215000AF8CBFA4C8A8D9A8EAA8FBA80CA91DA940
:102160000E94181759016A017B018C019301A40197
:102170006B2F7A2F8F2F9E2F0E941817F22E032F6E
:10218000142FB52FF62FE72FD82EE92EA0E00E94AE
:10219000211784F4215030484F4F5F4F6F4F7F4FCE
:1021A0008F4F9F4FF22E032F142FB52FF62FE72FAF
:1021B000D82EE92E2F2D302F412F5B2F6F2F7E2F02
:1021C0008D2D9E2D0FE00E94F116F22FE32FCA01F4
:1021D0004BA55CA56DA57EA50F81188529853A853F
:1021E000401B510B620B730B409396035093970364
:1021F0006093980370939903F0939A03E0939B0381
:1022000080939C0390939D036F2F7E2F0E948012DA
:1022100020E030E040E251E40E94821420E03AEDF8
:1022200045EC57E40E94A31320E038E449E156E46A
:102230000E94821420E030E040EF51E40E948214BA
:1022400020E03FEF4FE757E40E94BB1220E030E070
:1022500040E057E40E94A3130E94301513E010934E
:102260004B0122E020934C0160934D0170934E018D
:1022700010C080917A0086FDFCCF8091780020917B
:10228000790090E0922B9595879595958795809309
:102290004F010E94880503C052E05093A401809131
:1022A000C00086FF19C0ECEFF0E08491E8E3F1E0B4
:1022B0000491E4E2F1E01491112371F081110E9484
:1022C000EB02E12FF0E0EE0FFF1FE051FF4FA59171
:1022D000B4918C91082339F40E94A10122CA81E0B3
:1022E0008093A401A3C960E082E00E94140364E625
:1022F00070E080E090E00E94A203EECF1092A8026E
:102300001092A70288EE93E0A0E0B0E08093A902CB
:102310009093AA02A093AB02B093AC0229E131E002
:102320003093A6022093A50225EC30E03093B20250
:102330002093B10224EC30E03093B4022093B30236
:1023400020EC30E03093B6022093B50221EC30E06F
:102350003093B8022093B70222EC30E03093BA02F7
:102360002093B90226EC30E03093BC022093BB02EC
:102370001092BE021092BF021092C0021092C102CF
:10238000109248031092490310924A0310924B0393
:1023900010924C0310924D0310924E0310924F0373
:1023A0001092500310925103109252031092530353
:1023B0001092540310925503109256031092570333
:1023C00010928D0310928C0380938E0390938F0351
:1023D000A0939003B09391038BE291E090938B03D1
:1023E00080938A0381E08093B0039BE69093B103CE
:1023F0009EE19093B2038093B3038093BF038093D5
:10240000C0038093C10325EF30E03093B5032093E0
:10241000B40396E09093B6031092B7031092B803FA
:102420001092B9031092BA031092BB031092BC032E
:102430001092BD031092BE038093C2038093C30326
:102440008093C6038093C7038093C80322E0209340
:10245000C4039093C5039FEF9093C9031092CA03DE
:102460001092CB038093CC0394E09093CD0397E03C
:102470009093CE031092CF0393E09093D003909368
:10248000D1031092D2031092D3038093D403E0EBD4
:10249000F3E020E030E011AE12AE13AE14AEDF0177
:1024A000AB5BBF4F1D921D921D921C9213971C9601
:1024B0001D921D921D921C921397C90180559C4F2D
:1024C000DC01A35ABF4F11961C921E9216961196CC
:1024D0001C921E9216961D921C9234962E5F3F4FB0
:1024E00026303105C1F610922D040E946F0686E752
:1024F00090E090939F0380939E030895E89409C011
:1025000097FB3EF490958095709561957F4F8F4F26
:102510009F4F9923A9F0F92F96E9BB279395F6953C
:10252000879577956795B795F111F8CFFAF4BB0FBA
:1025300011F460FF1BC06F5F7F4F8F4F9F4F16C01E
:10254000882311F096E911C0772321F09EE8872FA8
:10255000762F05C0662371F096E8862F70E060E064
:102560002AF09A95660F771F881FDAF7880F9695DD
:10257000879597F908950E94CE120C943F130E94FC
:10258000311338F00E94381320F0952311F00C9489
:1025900028130C942E1311240C9473130E945013BF
:1025A00070F3959FC1F3950F50E0551F629FF001A6
:1025B000729FBB27F00DB11D639FAA27F00DB11DBF
:1025C000AA1F649F6627B00DA11D661F829F222748
:1025D000B00DA11D621F739FB00DA11D621F839FCF
:1025E000A00D611D221F749F3327A00D611D231FA5
:1025F000849F600D211D822F762F6A2F11249F57F3
:1026000050409AF0F1F088234AF0EE0FFF1FBB1FF5
:10261000661F771F881F91505040A9F79E3F5105B4
:1026200080F00C9428130C9473135F3FE4F3983EEE
:10263000D4F3869577956795B795F795E7959F5F5E
:10264000C1F7FE2B880F911D9695879597F90895F0
:1026500097F99F6780E870E060E008959FEF80EC55
:10266000089500240A9416161706180609060895F8
:1026700000240A9412161306140605060895092E5E
:102680000394000C11F4882352F0BB0F40F4BF2BCD
:1026900011F460FF04C06F5F7F4F8F4F9F4F08950D
:1026A00057FD9058440F551F59F05F3F71F0479503
:1026B000880F97FB991F61F09F3F79F087950895E8
:1026C000121613061406551FF2CF4695F1DF08C007
:1026D000161617061806991FF1CF86957105610524
:1026E00008940895E894BB2766277727CB0197F9CC
:1026F0000895DB018F939F930E948913BF91AF913F
:10270000A29F800D911DA39F900DB29F900D11244B
:1027100008950E949413A59F900DB49F900DA49FBF
:10272000800D911D11240895A29FB001B39FC00197
:10273000A39F700D811D1124911DB29F700D811DED
:102740001124911D08955058BB27AA270E94BB133E
:102750000C943F130E94311338F00E94381320F07C
:1027600039F49F3F19F426F40C942E130EF4E095DF
:10277000E7FB0C942813E92F0E94501358F3BA1763
:10278000620773078407950720F079F4A6F50C9487
:1027900072130EF4E0950B2EBA2FA02D0B01B90188
:1027A00090010C01CA01A0011124FF27591B99F0C7
:1027B000593F50F4503E68F11A16F040A22F232FD3
:1027C000342F4427585FF3CF469537952795A79523
:1027D000F0405395C9F77EF41F16BA0B620B730BCA
:1027E000840BBAF09150A1F0FF0FBB1F661F771F3B
:1027F000881FC2F70EC0BA0F621F731F841F48F4F0
:10280000879577956795B795F7959E3F08F0B0CF78
:102810009395880F08F09927EE0F9795879508955F
:102820000E94311360F080E891E009F49EEF0E946D
:10283000381328F040E851E071F45EEF0CC00C94BE
:102840002E130C947213E92FE0780E94501340F37A
:10285000092E052AB1F3261737074807590738F01C
:102860000E2E07F8E02569F0E025E0640AC0EF636A
:1028700007F8009407FADB01B9019D01DC01CA01E8
:10288000AD01EF930E9499140E943F130E945314CC
:102890005F91552339F02BED3FE049E450FD49ECC1
:1028A0000C94A4130895DF93DD27B92FBF7740E878
:1028B0005FE31616170648075B0718F4D92F0E9426
:1028C000DB159F938F937F936F930E943316E8E6F7
:1028D000F0E00E94B4150E943F132F913F914F9159
:1028E0005F910E94CE12DD2351F09058A2EA2AEDAA
:1028F0003FE049EC5FE3D0785D270E94BB13DF9196
:102900000C943F130E9496140C943F130E943813AA
:1029100058F00E94311340F029F45F3F29F00C94E5
:10292000281351110C9473130C942E130E945013FE
:1029300068F39923B1F3552391F3951B550BBB27EE
:10294000AA2762177307840738F09F5F5F4F220F33
:10295000331F441FAA1FA9F335D00E2E3AF0E0E82A
:1029600032D091505040E695001CCAF72BD0FE2F74
:1029700029D0660F771F881FBB1F26173707480708
:10298000AB07B0E809F0BB0B802DBF01FF279358C0
:102990005F4F3AF09E3F510578F00C9428130C9449
:1029A00073135F3FE4F3983ED4F38695779567956C
:1029B000B795F7959F5FC9F7880F911D96958795F5
:1029C00097F90895E1E0660F771F881FBB1F621714
:1029D00073078407BA0720F0621B730B840BBA0BD2
:1029E000EE1F88F7E0950895BEE304D008F490E860
:1029F0000895BFE322273327A9010E94581360F1ED
:102A00009F5748F1B91740F1BFE3B91B9927B85058
:102A10003AF4660F771F881F991FB395D2F316C03B
:102A2000B8504AF0232F342F452F562F672F782F79
:102A30008827B850BAF7B85F49F0869577956795BB
:102A40005795479537952795BA95B9F716F40E948B
:102A5000A41588940895889460E070E0CB010895EF
:102A60000E9437156894B1110C94731308950E9455
:102A7000581388F09F5798F0B92F9927B751B0F0A5
:102A8000E1F0660F771F881F991F1AF0BA95C9F7F2
:102A900014C0B13091F00E947213B1E008950C940B
:102AA0007213672F782F8827B85F39F0B93FCCF3BE
:102AB000869577956795B395D9F73EF4909580956F
:102AC000709561957F4F8F4F9F4F0895E894F92F30
:102AD00096EBFF2381F0121613061406440B939510
:102AE000F69587957795679557954040FF23B9F7F9
:102AF0001BC099270895882351F49850D2F7872B4B
:102B0000762F652F542F432F322F20E0B1F312166A
:102B100013061406440B88233AF09A95440F551F68
:102B2000661F771F881FCAF755234AF4440F551FA5
:102B300011F460FF04C06F5F7F4F8F4F9F4F880F6E
:102B40009695879597F908959095809570956095DD
:102B500050954095309521953F4F4F4F5F4F6F4FA8
:102B60007F4F8F4F9F4F0895DF93CF931F930F9306
:102B7000FF92EF92DF927B018C01689406C0DA2EFF
:102B8000EF010E94CE12FE01E894A59125913591A6
:102B900045915591A6F3EF010E94BB13FE019701E9
:102BA000A801DA9469F7DF90EF90FF900F911F91E1
:102BB000CF91DF9108959B01AC0160E070E080E867
:102BC0009FE30C94821416F00C9437160C942E1379
:102BD00068940C9428130E945813A8F39923C1F306
:102BE000AEF3DF93CF931F930F93FF92C92FDD278F
:102BF00088232AF02197660F771F881FDAF720E0D5
:102C000030E040E85FEB9FE3883920F0803E38F009
:102C100021968F770E94A413E5E9F0E004C00E949A
:102C2000A413E2ECF0E00E94B4158B01BE01EC01AC
:102C3000FB2E6F5771097595771F880B990B0E94B2
:102C4000801228E132E741E35FE30E94CE12AF2D0C
:102C50009801AE01FF900F911F91CF91DF910E94DB
:102C6000BB130C943F139B01AC010C94BB129F3F10
:102C700031F0915020F4879577956795B795880F37
:102C8000911D9695879597F90895DF93CF931F939C
:102C90000F939A9DF02D219FF00D8B9DF00D8A9D35
:102CA000E02DF10D039FF00D029FE00DF11D4E9DF3
:102CB000E00DF11D5E9DF00D4F9DF00D7F936F9324
:102CC000BF92AF925F934F93D5010E9494138B01F3
:102CD000AC01D7010E949413EB01E80FF91FD60154
:102CE0000E9495162F913F91D6010E949413C60F12
:102CF000D71FE81FF91FAF91BF910E9495162F9122
:102D00003F910E949413C60FD71FE81FF91FD601E9
:102D10000E949413E60FF71F9801BE01CF01112402
:102D20000F911F91CF91DF9108950E949413460F48
:102D3000571FC81FD91F08F43196089597FB57FFF6
:102D40000C94AE169F938F930E94AE166E1B7F0B52
:102D5000AF91BF918A0B9B0B0895E894DF93CF93BB
:102D6000FC01DB010E9494137F936F93E9019A01A8
:102D7000AC01BF93AF933F932F93DF010E94941355
:102D800026F46C1B7D0B820B930B9E01EB01FC0167
:102D90000E949516AF91BF912F913F910E94951679
:102DA000BE01CF01F9012F913F91CF91DF9108959D
:102DB0000F93083090F0982F872F762F652F542F80
:102DC000432F322F22270850F4CF220F331F441FE6
:102DD000551F661F771F881F991F0A95B2F70F911D
:102DE000089597FB10F8169400080F93083098F098
:102DF0000850232F342F452F562F672F782F892FD8
:102E0000902DF4CF0594979587957795679557956D
:102E10004795379527950A95AAF70F9108952A0D9A
:102E20003B1D4C1D5D1D6E1D7F1D801F911F089554
:102E30002A193B094C095D096E097F09800B910B2A
:102E400008950024A7FD00942A1730054005500579
:102E500060057005800590050895EE0FFF1F059031
:102E6000F491E02D0994CF93DF938230910510F413
:102E700082E090E0E0913004F091310420E030E015
:102E8000C0E0D0E0309711F14081518148175907D7
:102E9000C0F04817590761F482819381209719F097
:102EA0009B838A832BC0909331048093300426C087
:102EB0002115310519F04217530718F49A01BE0184
:102EC000DF01EF010280F381E02DDCCF2115310518
:102ED00009F1281B390B2430310590F412968D919D
:102EE0009C9113976115710521F0FB0193838283F7
:102EF00004C09093310480933004FD01329644C0A5
:102F0000FD01E20FF31F81939193225031092D931C
:102F10003C933AC020912E0430912F04232B41F48E
:102F2000209102013091030130932F0420932E044D
:102F300020910001309101012115310541F42DB797
:102F40003EB74091040150910501241B350BE091DF
:102F50002E04F0912F04E217F307A0F42E1B3F0B71
:102F60002817390778F0AC014E5F5F4F24173507FB
:102F700048F04E0F5F1F50932F0440932E0481930F
:102F8000919302C0E0E0F0E0CF01DF91CF9108958E
:102F90000F931F93CF93DF93009709F48CC0FC012C
:102FA000329713821282009130041091310401157E
:102FB000110581F420813181820F931F20912E040D
:102FC00030912F042817390779F5F0932F04E093F7
:102FD0002E0471C0D80140E050E0AE17BF0750F496
:102FE00012962D913C911397AD012115310509F1F0
:102FF000D901F3CF9D01DA0133832283608171818E
:10300000860F971F8217930769F4EC012881398195
:10301000260F371F2E5F3F4F318320838A819B818C
:1030200093838283452B29F4F0933104E093300499
:1030300042C01396FC93EE931297ED01499159917A
:103040009E01240F351FE217F30771F480819181EF
:10305000840F951F029611969C938E938281938183
:1030600013969C938E931297E0E0F0E0D8011296AD
:103070008D919C911397009719F0F8018C01F6CF70
:103080008D919C9198012E5F3F4F820F931F20914D
:103090002E0430912F042817390769F4309729F44A
:1030A000109231041092300402C0138212821093E5
:1030B0002F0400932E04DF91CF911F910F9108955B
:0E30C00081E090E0F8940C946518F894FFCF2E
:1030CE00000032048000312B2C2D2E2F200000000A
:1030DE0040000000600000000038010B08D0007FA7
:1030EE00010101DF00F300000000005E022E028EDF
:1030FE00020202260212020302564D4450565F315E
:0A310E007C5F564D4450560D0A0038
:00000001FF
