:100000000C945E000C9486000C9486000C94860080
:100010000C9486000C9486000C9486000C94860048
:100020000C9486000C9486000C9486000C94860038
:100030000C9486000C9486000C9486000C94860028
:100040000C94E0040C9486000C94CF030C94A90348
:100050000C9486000C9486000C9486000C94860008
:100060000C942A050C948600000000080002010090
:100070000003040700000000000000000000000072
:10008000250028002B0000000000240027002A0083
:10009000040404040404040402020202020203032E
:1000A0000303030301020408102040800102040836
:1000B0001020010204081020E80AE70A11241FBEDC
:1000C000CFEFD8E0DEBFCDBF11E0A0E0B1E0E0EFC0
:1000D000FDE102C005900D92AE35B107D9F723E0DE
:1000E000AEE5B1E001C01D92A93CB207E1F710E016
:1000F000CDE5D0E004C02197FE010E94A40DCC35CF
:10010000D107C9F70E94BB070C94EB0E0C940000BA
:10011000FC01538D448D252F30E0842F90E0821B0D
:10012000930B541710F0CF96089501970895FC0192
:10013000918D828D981761F0828DDF01A80FB11D1E
:100140005D968C91928D9F5F9F73928F90E0089542
:100150008FEF9FEF0895FC01918D828D981731F0FC
:10016000828DE80FF11D858D90E008958FEF9FEF50
:100170000895FC01918D228D892F90E0805C9F4F26
:10018000821B91098F73992708958CEA92E00E944F
:10019000B90021E0892B09F420E0822F0895FC01A9
:1001A000848DDF01A80FB11DA35ABF4F2C91848D00
:1001B00090E001968F739927848FA689B7892C9335
:1001C000A089B1898C9180648C93938D848D9813D0
:1001D00006C00288F389E02D80818F7D8083089599
:1001E000EF92FF920F931F93CF93DF93EC0181E087
:1001F000888F9B8D8C8D981305C0E889F989808143
:1002000085FD24C0F62E0B8D10E00F5F1F4F0F737E
:100210001127E02E8C8DE8120CC00FB607FCFACF28
:10022000E889F989808185FFF5CFCE010E94CF0052
:10023000F1CF8B8DFE01E80FF11DE35AFF4FF082E5
:100240000B8FEA89FB898081806207C0EE89FF8974
:100250006083E889F98980818064808381E090E00F
:10026000DF91CF911F910F91FF90EF900895CF9361
:10027000DF93EC01888D8823C9F0EA89FB898081AE
:1002800085FD05C0A889B9898C9186FD0FC00FB680
:1002900007FCF5CF808185FFF2CFA889B9898C91C1
:1002A00085FFEDCFCE010E94CF00E7CFDF91CF9148
:1002B000089580E090E0892B29F00E94C50081110B
:1002C0000C94000008953FB7F8948091AA01909192
:1002D000AB01A091AC01B091AD0126B5A89B05C0C2
:1002E0002F3F19F00196A11DB11D3FBFBA2FA92FB5
:1002F000982F8827820F911DA11DB11DBC01CD0132
:1003000042E0660F771F881F991F4A95D1F708951D
:100310002FB7F8946091A6017091A7018091A80170
:100320009091A9012FBF089585ED8093BC00809125
:10033000BC0084FDFCCF1092A7020895409180017B
:10034000262F30E0240F311D21323105DCF42091BD
:10035000A7022430C9F4FC0180E090E0861758F42D
:10036000309180012191DC01A25ABE4FA30FB11D33
:100370002C930196F3CF80918001680F60938001E8
:1003800080E0089581E0089582E008950895E09165
:10039000AB028091AA02E81730F4F0E0E15CFD4F77
:1003A000808190E008958FEF9FEF08959091AB02C8
:1003B0008091AA02981750F4E92FF0E0E15CFD4F1C
:1003C000208130E09F5F9093AB0202C02FEF3FEFA0
:1003D000C90108958091AA0290E02091AB02821B8E
:1003E00091090895CF92DF92EF92FF920F931F939E
:1003F000CF93DF937C01262F972F8A018091830270
:10040000882391F0C62FD72F6E01C40ED51ECC15B0
:10041000DD0571F06991D701ED91FC910190F081BA
:10042000E02DC7010995F3CF642F822F0E949E0112
:10043000C801DF91CF911F910F91FF90EF90DF9056
:10044000CF900895CF93DF931F92CDB7DEB7698326
:10045000209183022223D1F02091A802203240F083
:1004600021E030E0FC013383228380E090E015C07E
:100470008091A902E82FF0E0EC57FD4F998190831D
:100480008F5F8093A9028093A80205C061E0CE012E
:1004900001960E949E0181E090E00F90DF91CF9144
:1004A0000895089580E090E00895EF92FF920F93F1
:1004B0001F93CF93DF9362E48CEA92E00E94F000F6
:1004C0006091B0018CEA92E00E94F000C091B2010C
:1004D0006C2F8CEA92E00E94F00000E010E0EC2E1D
:1004E000F12C0E151F056CF4F801E055FE4FD38179
:1004F0006D2F8CEA92E00E94F000CD270F5F1F4F16
:10050000F0CF6C2F8CEA92E0DF91CF911F910F9189
:10051000FF90EF900C94F00008950E94D70E8F92F8
:100520009F92AF92BF92CF92DF92EF92FF920F9382
:100530001F93CF93DF93CDB7DEB762970FB6F894D2
:10054000DEBF0FBECDBF6C018B0184E2DB011D92CB
:100550008A95E9F784E290E0A0E0B0E0FB018083B7
:100560009183A283B383F60184819581A681B781AB
:10057000FB0184839583A683B78383E090E0A0E0AA
:10058000B0E080879187A287B3870E948801D80155
:1005900050966D937D938D939C935397FE01319666
:1005A0008CE0DF011D928A95E9F77E01BDE0EB0E3C
:1005B000F11C86E0F70111928A95E9F7D6011396AE
:1005C0008C9191E0909383028093A4021092A902EF
:1005D0001092A8026AE181E993E00E94220281E080
:1005E0000E94AA0666E0F60183810E9433071092FA
:1005F000AB028093AA0236E0D32EDE0C81E993E0B1
:100600000E94D601D7018D937D01DA12F7CF6E8556
:1006100070E0762F66278D85682B072E000C880BDF
:10062000990B0E944C0B20E030E040E85DE30E9413
:10063000870B4B015C01688970E0762F66278F85F8
:10064000682B072E000C880B990B0E944C0B20E0A6
:1006500030E040E85DE30E94870B6B017C018A89F2
:1006600090E0982F88272989822BBC01990F880B4D
:10067000990B0E944C0B20E030E040E85DE30E94C3
:10068000870BF801848A958AA68AB78AC08ED18E94
:10069000E28EF38E648F758F868F978F81E06296DE
:1006A0000FB6F894DEBF0FBECDBFDF91CF911F9183
:1006B0000F91FF90EF90DF90CF90BF90AF909F9001
:1006C0008F9008950F931F93CF93DF938C01EB01CD
:1006D00088E2FB0111928A95E9F74BE050E066E46D
:1006E00071E0CE010E94DC0E1B8681E090E0A0E06C
:1006F000B0E08C879D87AE87BF87F80184819581A4
:10070000A681B781888B998BAA8BBB8B83E090E005
:10071000A0E0B0E08C8B9D8BAE8BBF8B1CA21DA28A
:100720001EA21FA2188E198E1A8E1B8E1C8E1D8E55
:100730001E8E1F8E8AE097EDA3E2BCE388A399A3E7
:10074000AAA3BBA3DF91CF911F910F9108950C94A1
:100750003F0E1F920F920FB60F9211242F933F93CB
:100760004F935F936F937F938F939F93AF93BF93B9
:10077000EF93FF938CEA92E00E94CF00FF91EF91FC
:10078000BF91AF919F918F917F916F915F914F91A9
:100790003F912F910F900FBE0F901F9018951F92B1
:1007A0000F920FB60F9211242F938F939F93EF9375
:1007B000FF93E091BC02F091BD028081E091C20202
:1007C000F091C30282FD12C090818091C5028F5FBB
:1007D0008F732091C602821751F0E091C502F0E0BC
:1007E000E455FD4F958F8093C50201C08081FF9134
:1007F000EF919F918F912F910F900FBE0F901F90AF
:10080000189590E0FC01E859FF4F3491FC01EC553C
:10081000FF4F2491FC01E057FF4FE491EE2309F4D0
:100820003BC0332339F1333091F038F43130A9F043
:10083000323001F584B58F7D12C0373091F03830F9
:10084000A1F03430B9F4809180008F7D03C0809195
:1008500080008F77809380000DC084B58F7784BD32
:1008600009C08091B0008F7703C08091B0008F7D68
:100870008093B000F0E0EE0FFF1FE458FF4FA5910A
:10088000B4918FB7F894EC91611103C020952E2399
:1008900001C02E2B2C938FBF0895CF93DF93C0916F
:1008A000F301D091F401209759F580913D02909188
:1008B0003E028130910541F08230910561F0892B33
:1008C00009F041C061E001C060E08BE00E940104DA
:1008D00061E08CE034C060E08BE00E9401040E9483
:1008E000880128EE33E040E050E00E94450C21E012
:1008F000643F71408105910508F020E0622FE9CF47
:100900000E94880120E137E240E050E00E94450C5F
:10091000CB0168EE73E00E947C0D843F914024F48B
:1009200081E06C177D070CF080E0682F8BE00E945F
:10093000010460E08CE00E94010460E08DE0DF9142
:10094000CF910C940104DF91CF9108958F929F92E3
:10095000AF92BF92CF92DF92EF92FF926B017C0138
:100960000E9463014B015C01C114D104E104F10454
:10097000F1F00E946301DC01CB0188199909AA09F1
:10098000BB09883E9340A105B10570F321E0C21A6E
:10099000D108E108F10888EE880E83E0981EA11CBA
:1009A000B11CC114D104E104F10419F7DDCFFF90AB
:1009B000EF90DF90CF90BF90AF909F908F90089571
:1009C0001F920F920FB60F9211242F933F938F9384
:1009D0009F93AF93BF938091A6019091A701A0919F
:1009E000A801B091A9013091A50123E0230F2D3773
:1009F00020F40196A11DB11D05C026E8230F029623
:100A0000A11DB11D2093A5018093A6019093A7017C
:100A1000A093A801B093A9018091AA019091AB0184
:100A2000A091AC01B091AD010196A11DB11D8093C3
:100A3000AA019093AB01A093AC01B093AD01BF911B
:100A4000AF919F918F913F912F910F900FBE0F907B
:100A50001F9018951F920F920FB60F9211242F938B
:100A60003F934F935F936F937F938F939F93AF9336
:100A7000BF93EF93FF938091B900887F803609F48C
:100A80009CC068F5883209F45BC090F4803109F4A9
:100A900054C038F4882309F4F6C0883009F44DC0F6
:100AA000F6C0883109F44CC0803209F45DC0EFC053
:100AB000803409F468C048F4803309F455C08833A1
:100AC00009F0E5C080938202D8C0803509F44FC098
:100AD000883509F45DC0883409F0D9C0D6C088399A
:100AE00009F4C7C0A8F4883709F467C038F4883619
:100AF00009F463C0803709F460C0C9C0883809F4BC
:100B0000B8C0803909F45FC0803809F0C0C05BC04C
:100B1000803B09F486C038F4803A09F466C0883A0C
:100B200009F47FC0B4C0803C09F4A7C0883C09F434
:100B3000A4C0883B09F48AC0AAC080915F0210C09B
:100B40009091810280918002981770F5E091810266
:100B500081E08E0F80938102F0E0E05AFD4F8081AA
:100B60008093BB0085EC86C0809382028EC0E091AA
:100B7000810281E08E0F809381028091BB00F0E0C2
:100B8000E05AFD4F808390918102809180026EC077
:100B9000E091810281E08E0F809381028091BB0001
:100BA000F0E0E05AFD4F80838091A60281116DC074
:100BB00081E08093A50284EA61C083E08093A7026C
:100BC0001092A401CFCF8091A401803208F051C0CF
:100BD000E091A40181E08E0F8093A4018091BB007D
:100BE000F0E0EC57FE4F8083BDCF85EC8093BC00D6
:100BF0001092A7028091A401803230F4E091A40108
:100C0000F0E0EC57FE4F10826091A40170E0E0919B
:100C10008201F091830184E891E009951092A4018A
:100C200036C084E08093A702109281011092800167
:100C3000E0917E01F0917F01099580918001811101
:100C400005C081E08093800110925E01E0918101F6
:100C500081E08E0F80938101F0E0E25AFE4F8081A7
:100C60008093BB009091810180918001981708F4D6
:100C700079CF85E88093BC000AC085EC8093BC00E6
:100C80001092A70204C0109282020E949401FF9168
:100C9000EF91BF91AF919F918F917F916F915F91F4
:100CA0004F913F912F910F900FBE0F901F9018956D
:100CB0000895CF92DF92EF92FF920F931F93CF93FD
:100CC000DF936C017A018B01C0E0D0E0CE15DF0527
:100CD00089F0D8016D918D01D601ED91FC910190C3
:100CE000F081E02DC6010995892B11F47E0102C027
:100CF0002196ECCFC701DF91CF911F910F91FF900B
:100D0000EF90DF90CF9008951092AB021092AA025C
:100D10001092A9021092A8021092A70281E080937B
:100D2000A6021092A50261E082E10E94010461E046
:100D300083E10E940104E9EBF0E080818E7F8083F3
:100D400080818D7F808388E48093B80085E48093E0
:100D5000BC000895382F2091A8029091A40221325E
:100D600008F049C08091A7028111FCCF42E0409376
:100D7000A7023093A6023FEF3093820210928102C5
:100D800020938002A4E8B2E040E652E0FA013E2F50
:100D9000341B321718F43D913193F9CF10925F0252
:100DA00020915F02990F922B90935F029091A50280
:100DB000913061F41092A50290915F029093BB0074
:100DC0009091BC0093FDF8CF95EC01C095EE909307
:100DD000BC009091A7029230E1F3909182029F3F74
:100DE00079F080918202803241F0809182028033DA
:100DF00031F084E005C081E003C082E001C083E0FF
:100E00001092A9021092A802109283020895CF9323
:100E1000C62F9091BE0321E0209383029093A402F9
:100E20001092A9021092A802682F81E993E00E9413
:100E300022026C2F81E993E00E94220281E00E944D
:100E4000AA0681E0CF910895EBEBF3E080879187CC
:100E5000682F8DE390E00E9407076EE170E080E06C
:100E600090E00C94A6049091A7029111FCCF91E020
:100E70009093A7029093A6022FEF209382021092E4
:100E80008102260F2093800290935F0290915F026F
:100E9000880F892B80935F028091A502813061F4D5
:100EA0001092A50280915F028093BB008091BC00EC
:100EB00083FDF8CF85EC01C085EE8093BC00809166
:100EC000A7028130E1F380918102861710F46091CE
:100ED0008102A0E6B2E02FE332E0F9018E2F821BFF
:100EE000861718F48D918193F9CF862F0895CF93AB
:100EF000DF93CBEBD3E08B8191E0909383028093DF
:100F0000A4021092A9021092A80260E081E993E085
:100F10000E94220281E00E94AA0661E08B810E9469
:100F200033071092AB028093AA0281E993E00E94FA
:100F3000D601DF91CF91089590E0FC01EC55FF4F71
:100F40002491FC01E057FF4F8491882399F090E0B1
:100F5000880F991FFC01EA57FF4FA591B491FC013E
:100F6000E458FF4F859194918FB7F894EC91E22B60
:100F7000EC938FBF0895CF93DF93CDB7DEB7A497DF
:100F80000FB6F894DEBF0FBECDBF789484B58260F3
:100F900084BD84B5816084BD85B5826085BD85B51D
:100FA000816085BD80916E00816080936E0010929B
:100FB0008100809181008260809381008091810016
:100FC00081608093810080918000816080938000A7
:100FD0008091B10084608093B1008091B000816005
:100FE0008093B00080917A00846080937A00809131
:100FF0007A00826080937A0080917A008160809389
:101000007A0080917A00806880937A001092C10003
:1010100010928D0310928E0310928F031092900302
:1010200010924B0310924C0310924D0310924E03FA
:101030000E9488016B017C014B015C0128EB820E50
:101040002BE0921EA11CB11C0E9488016C157D052D
:101050008E059F0528F086169706A806B906A0F704
:101060008CEA92E090938C0380938B03E091BC0216
:10107000F091BD0282E08083E091B802F091B90264
:101080001082E091BA02F091BB0280E1808310925D
:10109000C402E091C002F091C10286E08083E09139
:1010A000BE02F091BF02808180618083E091BE0228
:1010B000F091BF02808188608083E091BE02F09150
:1010C000BF02808180688083E091BE02F091BF0200
:1010D00080818F7D80830E94880160934B03709391
:1010E0004C0380934D0390934E0380918B0390911A
:1010F0008C03DC01ED91FC910280F381E02D40E155
:1011000050E06DE471E009950E9488016B017C015B
:101110004B015C01BAE08B0E911CA11CB11C0E941A
:1011200088016C157D058E059F0528F086169706AB
:10113000A806B906A0F761E08FE00E9401048FE0E5
:101140000E949C071BE0812F0E949C0761E0812F79
:101150000E94010466E970E080E090E00E94A6042D
:1011600060E0812F0E9401041F5F1E3061F7E09153
:10117000BC02F091BD0282E08083E091B802F09160
:10118000B9021082E091BA02F091BB0287E080833D
:101190001092C402E091C002F091C10286E0808307
:1011A000E091BE02F091BF02808180618083E09176
:1011B000BE02F091BF02808188608083E091BE0210
:1011C000F091BF02808180688083E091BE02F0913F
:1011D000BF0280818F7D80830E9484068CE0809393
:1011E000B8001092F4011092F30110923E02109296
:1011F0003D020E9484060E947707803A51F480E005
:1012000090E00E94240760E28FE390E00E940707CD
:1012100011C068EE73E080E090E00E94A6040E9496
:101220007707803A61F381E090E09093F401809336
:10123000F3015DC00E947707803A39F06AE070E000
:1012400080E090E00E94A604F5CF62E370E080E0C9
:1012500090E00E94A60460E08EE390E00E94070701
:101260006AE070E080E090E00E94A60460E087E021
:1012700090E00E94070760E08FE390E00E9407077C
:101280006AE070E080E090E00E94A6048CE090E0CC
:101290000E94240764E170E080E090E00E94A604D0
:1012A0000091C3031091C40380E090E00E942407E2
:1012B00069E170E080E090E00E94A60460E087E0D1
:1012C00090E00E94070760E88FE390E00E94070724
:1012D0006AE070E080E090E00E94A604C8010E94ED
:1012E000240764E170E080E090E00E94A604809111
:1012F000F3019091F401892BC1F435E0632E712C38
:1013000043E0542E52E0452E60E4362E76E0C72EA0
:10131000D12CE2E0AE2EB12CEE24E394F12CACE023
:101320002A2EB3E08B2E912C30C00E944D04FDCFAD
:101330008CEA92E00E949700382F823469F521E010
:101340002093380280913802853009F477C00E94DA
:1013500088010091390210913A0220913B023091AC
:101360003C02DC01CB01801B910BA20BB30B893E2D
:101370009340A105B10508F41EC110923E021092DF
:101380003D020E944D040E9459018CEA92E00E94A5
:10139000B900892BB9F2CCCF20913802213041F429
:1013A00099279093F6018093F50140923802CACFB5
:1013B000223059F48093F7018093AF018823E1F044
:1013C000509238021092AE01BDCF2330C9F49091F3
:1013D000AE01E92FF0E0EB50FE4F83832091AF0187
:1013E00082278093AF0181E0890F8093AE019091B5
:1013F000F701891708F4A6CF84E080933802A2CFC2
:101400002430C9F48091AF0138130EC0A5E0A09339
:1014100038020E9488016093390270933A028093E7
:101420003B0290933C028ECF109238027092F401EE
:101430006092F30187CF1092380284CF1092380265
:101440000091F5011091F6010430110509F486C0F0
:10145000ACF50230110509F473C00CF078C001300E
:10146000110509F0A3C0BE016F5F7F4F8BEB93E0C6
:101470000E948F0220E030E044EB53E46D897E89C6
:101480008F89988D0E94D40C20E03FEF4FE757E4FE
:101490000E94870B20E030E040E057E40E94670C98
:1014A0000E94460D1093B1010093B00186E0809335
:1014B000B2016093B3017093B40175C00238110595
:1014C00071F00338110591F00138110509F06EC073
:1014D00080913D0290913E02029709F438CF8091AD
:1014E0003D0290913E02029709F431CF20913D02D6
:1014F00030913E028091F801482F50E024173507C3
:1015000009F425CF823071F08330A9F0813009F0E1
:101510001ECF2230310509F01ACFF0923E02E09240
:101520003D0215CF2130310509F011CFB0923E02B6
:10153000A0923D020CCF60E08FE00E940104FFCF3B
:101540001093B1010093B0012092B2012CC090928F
:10155000B1018092B0014092B20125C01093B10157
:101560000093B0015092B20180913D028093B3018B
:101570008091F3018093B40130927C0080917A00D5
:10158000806480937A0080917A0086FDFCCF809100
:1015900078002091790090E0922B9595879595950C
:1015A00087958093B5010E945502D1CED092F40167
:1015B000C092F301CCCE80913D0290913E02892BE6
:1015C00009F0DFCEF0923E02E0923D02DACE0895BD
:1015D000ECEAF2E01382128288EE93E0A0E0B0E041
:1015E00084839583A683B7832AE031E03183208307
:1015F00025EC30E03587248724EC30E037872687D8
:1016000020EC30E0318B208B21EC30E0338B228BCF
:1016100022EC30E0358B248B26EC30E0378B268BA8
:10162000118E128E138E148EE9E4F3E01682178267
:1016300010861186128613861486158616861786DE
:10164000108A118A128A138A148A158AE1E9F3E052
:101650001382128284839583A683B7838CE191E001
:1016600091838083EBEBF3E08EE291E091838083C2
:101670008FEF9FEFDC0184839583A683B78388E295
:1016800083830E94840687E790E09093AA03809367
:10169000A9030895E89409C097FB3EF490958095BE
:1016A000709561957F4F8F4F9F4F9923A9F0F92F28
:1016B00096E9BB279395F695879577956795B795A6
:1016C000F111F8CFFAF4BB0F11F460FF1BC06F5F8C
:1016D0007F4F8F4F9F4F16C0882311F096E911C09E
:1016E000772321F09EE8872F762F05C0662371F0BF
:1016F00096E8862F70E060E02AF09A95660F771FD3
:10170000881FDAF7880F9695879597F908950E94B4
:101710009A0B0C940B0C0E94FD0B38F00E94040CE9
:1017200020F0952311F00C94F40B0C94FA0B112477
:101730000C943F0C0E941C0C70F3959FC1F3950F05
:1017400050E0551F629FF001729FBB27F00DB11D45
:10175000639FAA27F00DB11DAA1F649F6627B00DD5
:10176000A11D661F829F2227B00DA11D621F739FBE
:10177000B00DA11D621F839FA00D611D221F749FCC
:101780003327A00D611D231F849F600D211D822F13
:10179000762F6A2F11249F5750409AF0F1F088233A
:1017A0004AF0EE0FFF1FBB1F661F771F881F915067
:1017B0005040A9F79E3F510580F00C94F40B0C9417
:1017C0003F0C5F3FE4F3983ED4F386957795679599
:1017D000B795F795E7959F5FC1F7FE2B880F911D91
:1017E0009695879597F9089597F99F6780E870E037
:1017F00060E008959FEF80EC089500240A94161687
:10180000170618060906089500240A9412161306EE
:10181000140605060895092E0394000C11F488237C
:1018200052F0BB0F40F4BF2B11F460FF04C06F5F98
:101830007F4F8F4F9F4F089557FD9058440F551F6E
:1018400059F05F3F71F04795880F97FB991F61F042
:101850009F3F79F087950895121613061406551FB9
:10186000F2CF4695F1DF08C0161617061806991F25
:10187000F1CF86957105610508940895E894BB271A
:1018800066277727CB0197F90895A1E21A2EAA1BA4
:10189000BB1BFD010DC0AA1FBB1FEE1FFF1FA21720
:1018A000B307E407F50720F0A21BB30BE40BF50B1D
:1018B000661F771F881F991F1A9469F760957095A6
:1018C000809590959B01AC01BD01CF0108955058C2
:1018D000BB27AA270E947F0C0C940B0C0E94FD0BC7
:1018E00038F00E94040C20F039F49F3F19F426F4DC
:1018F0000C94FA0B0EF4E095E7FB0C94F40BE92F33
:101900000E941C0C58F3BA176207730784079507E7
:1019100020F079F4A6F50C943E0C0EF4E0950B2E15
:10192000BA2FA02D0B01B90190010C01CA01A00131
:101930001124FF27591B99F0593F50F4503E68F18C
:101940001A16F040A22F232F342F4427585FF3CFCD
:10195000469537952795A795F0405395C9F77EF49E
:101960001F16BA0B620B730B840BBAF09150A1F0E7
:10197000FF0FBB1F661F771F881FC2F70EC0BA0F6D
:10198000621F731F841F48F4879577956795B795F5
:10199000F7959E3F08F0B0CF9395880F08F09927F0
:1019A000EE0F9795879508950E94E80C0C940B0C08
:1019B0000E94040C58F00E94FD0B40F029F45F3F98
:1019C00029F00C94F40B51110C943F0C0C94FA0B6D
:1019D0000E941C0C68F39923B1F3552391F3951BD6
:1019E000550BBB27AA2762177307840738F09F5F40
:1019F0005F4F220F331F441FAA1FA9F335D00E2EAD
:101A00003AF0E0E832D091505040E695001CCAF719
:101A10002BD0FE2F29D0660F771F881FBB1F2617DC
:101A200037074807AB07B0E809F0BB0B802DBF01B3
:101A3000FF2793585F4F3AF09E3F510578F00C9482
:101A4000F40B0C943F0C5F3FE4F3983ED4F386957F
:101A500077956795B795F7959F5FC9F7880F911DA3
:101A60009695879597F90895E1E0660F771F881F8F
:101A7000BB1F621773078407BA0720F0621B730B42
:101A8000840BBA0BEE1F88F7E09508950E944D0D68
:101A90006894B1110C943F0C08950E94240C88F0B6
:101AA0009F5798F0B92F9927B751B0F0E1F0660F22
:101AB000771F881F991F1AF0BA95C9F714C0B13063
:101AC00091F00E943E0CB1E008950C943E0C672FFB
:101AD000782F8827B85F39F0B93FCCF38695779592
:101AE0006795B395D9F73EF490958095709561957B
:101AF0007F4F8F4F9F4F089597FB072E16F400944A
:101B000007D077FD09D00E94900D07FC05D03EF468
:101B1000909581959F4F0895709561957F4F089599
:101B2000AA1BBB1B51E107C0AA1FBB1FA617B70703
:101B300010F0A61BB70B881F991F5A95A9F780951F
:101B40009095BC01CD010895EE0FFF1F0590F49113
:101B5000E02D0994CF93DF938230910510F482E059
:101B600090E0E091C703F091C80320E030E0C0E0CE
:101B7000D0E0309711F14081518148175907C0F0EA
:101B80004817590761F482819381209719F09B834C
:101B90008A832BC09093C8038093C70326C0211566
:101BA000310519F04217530718F49A01BE01DF01FD
:101BB000EF010280F381E02DDCCF2115310509F121
:101BC000281B390B2430310590F412968D919C918D
:101BD00013976115710521F0FB019383828304C083
:101BE0009093C8038093C703FD01329644C0FD0162
:101BF000E20FF31F81939193225031092D933C936F
:101C00003AC02091C5033091C603232B41F42091A3
:101C10000201309103013093C6032093C503209144
:101C20000001309101012115310541F42DB73EB776
:101C30004091040150910501241B350BE091C5032F
:101C4000F091C603E217F307A0F42E1B3F0B2817F1
:101C5000390778F0AC014E5F5F4F2417350748F025
:101C60004E0F5F1F5093C6034093C503819391931A
:101C700002C0E0E0F0E0CF01DF91CF9108950F9333
:101C80001F93CF93DF93009709F48CC0FC01329728
:101C9000138212820091C7031091C8030115110528
:101CA00081F420813181820F931F2091C5033091EF
:101CB000C6032817390779F5F093C603E093C503E7
:101CC00071C0D80140E050E0AE17BF0750F4129643
:101CD0002D913C911397AD012115310509F1D901E1
:101CE000F3CF9D01DA013383228360817181860FF6
:101CF000971F8217930769F4EC0128813981260F19
:101D0000371F2E5F3F4F318320838A819B819383CE
:101D10008283452B29F4F093C803E093C70342C0A4
:101D20001396FC93EE931297ED01499159919E0100
:101D3000240F351FE217F30771F480819181840F1E
:101D4000951F029611969C938E9382819381139690
:101D50009C938E931297E0E0F0E0D80112968D915B
:101D60009C911397009719F0F8018C01F6CF8D9193
:101D70009C9198012E5F3F4F820F931F2091C503C6
:101D80003091C6032817390769F4309729F4109267
:101D9000C8031092C70302C0138212821093C603B5
:101DA0000093C503DF91CF911F910F91089581E0BA
:101DB00090E0F8940C94EB0EFB01DC014150504094
:101DC00048F001900D920020C9F701C01D924150CA
:101DD0005040E0F7089510E0CDE5D0E004C0FE01EA
:101DE0000E94A40D2196CE35D107C9F7F894FFCFF4
:101DF0000000C903800000000000F00059068800C0
:101E00003701B9009700AB00000000002202F20188
:101E10005202C601EA01D601C701000000005806BF
:101E2000A7038C028F026203000000000000000084
:101E30008C028D028D02424E4F30353500564D4496
:0E1E400050565F317C5F564D4450560D0A00DF
:107800000C94343C0C94513C0C94513C0C94513CE1
:107810000C94513C0C94513C0C94513C0C94513CB4
:107820000C94513C0C94513C0C94513C0C94513CA4
:107830000C94513C0C94513C0C94513C0C94513C94
:107840000C94513C0C94513C0C94513C0C94513C84
:107850000C94513C0C94513C0C94513C0C94513C74
:107860000C94513C0C94513C11241FBECFEFD8E036
:10787000DEBFCDBF11E0A0E0B1E0ECE9FFE702C060
:1078800005900D92A230B107D9F712E0A2E0B1E065
:1078900001C01D92AD30B107E1F70E942D3D0C945F
:1078A000CC3F0C94003C982F959595959595959582
:1078B000905D8F708A307CF0282F295A8091C0000B
:1078C00085FFFCCF9093C6008091C00085FFFCCF60
:1078D0002093C6000895282F205DF0CF982F809127
:1078E000C00085FFFCCF9093C6000895EF92FF92F1
:1078F0000F931F93EE24FF2487018091C00087FD22
:1079000017C00894E11CF11C011D111D81E4E8164B
:1079100082E4F8068FE0080780E0180770F3E09132
:107920000401F091050109958091C00087FFE9CF1E
:107930008091C6001F910F91FF90EF9008950E94D3
:10794000763C982F8091C00085FFFCCF9093C600B5
:1079500091362CF490330CF09053892F089597555D
:10796000892F08951F930E949F3C182F0E949F3CCF
:107970001295107F810F1F9108951F93182F882350
:1079800021F00E94763C1150E1F71F9108951F935A
:10799000182F0E94763C803249F0809103018F5F5E
:1079A000809303018530C1F01F9108958091C0003C
:1079B00085FFFCCF84E18093C6008091C00085FFE5
:1079C000FCCF1093C6008091C00085FFFCCF80E102
:1079D0008093C6001F910895E0910401F091050184
:1079E00009951F9108950E94763C803241F0809164
:1079F00003018F5F80930301853081F008958091AA
:107A0000C00085FFFCCF84E18093C6008091C00058
:107A100085FFFCCF80E18093C6000895E0910401CA
:107A2000F09105010995089540E951E08823A1F0FE
:107A30002D9A28EE33E0FA013197F1F721503040CA
:107A4000D1F72D9828EE33E0FA013197F1F7215064
:107A50003040D1F7815061F708953F924F925F9285
:107A60006F927F928F929F92AF92BF92CF92DF924E
:107A7000EF92FF920F931F93CF93DF93000080E16B
:107A80008093C4001092C50088E18093C10086E015
:107A90008093C2005098589A259A81E00E94143D24
:107AA00024E1F22E9EE1E92E85E9D82E0FE0C02ECA
:107AB00010E1B12EAA24A394B1E49B2EA6E58A2E50
:107AC000F2E57F2EE0E26E2E79E4572E63E5462E36
:107AD00050E5352E0E94763C8033B1F18133B9F107
:107AE000803409F46FC0813409F476C0823409F41B
:107AF00085C0853409F488C0803531F1823521F1A3
:107B0000813511F1853509F485C0863509F48DC0BC
:107B1000843609F496C0843709F403C1853709F423
:107B200072C1863709F466C0809103018F5F80932C
:107B30000301853079F6E0910401F0910501099582
:107B40000E94763C803351F60E94F33CC3CF0E94E2
:107B5000763C803249F78091C00085FFFCCFF092DF
:107B6000C6008091C00085FFFCCF9092C600809136
:107B7000C00085FFFCCF8092C6008091C00085FFC9
:107B8000FCCF7092C6008091C00085FFFCCF609250
:107B9000C6008091C00085FFFCCF5092C600809146
:107BA000C00085FFFCCF4092C6008091C00085FFD9
:107BB000FCCF3092C6008091C00085FFFCCFB09210
:107BC000C60088CF0E94763C863808F4BDCF0E945C
:107BD000763C0E94F33C7ECF0E94763C803809F4CC
:107BE0009CC0813809F40BC1823809F43CC1883942
:107BF00009F48FC080E00E94C73C6CCF84E10E94F2
:107C0000BD3C0E94F33C66CF85E00E94BD3C0E94D3
:107C1000F33C60CF0E94763C809306010E94763C44
:107C2000809307010E94F33C55CF0E94763C80333D
:107C300009F41DC183E00E94BD3C80E00E94C73C66
:107C400049CF0E94763C809309020E94763C809343
:107C5000080280910C028E7F80930C020E94763C79
:107C6000853409F415C18091080290910902892B8D
:107C700089F000E010E00E94763CF801E85FFE4FDA
:107C800080830F5F1F4F80910802909109020817AF
:107C9000190788F30E94763C803209F045CF809125
:107CA0000C0280FF01C16091060170910701660F0F
:107CB000771F7093070160930601A0910802B091AD
:107CC00009021097C9F0E8E0F1E09B01AD014E0F09
:107CD0005F1FF999FECF32BD21BD819180BDFA9A17
:107CE000F99A2F5F3F4FE417F50799F76A0F7B1F4B
:107CF00070930701609306018091C00085FFFCCF5F
:107D0000F092C6008091C00085FFFCCFB092C60003
:107D1000E1CE83E00E94C73CDDCE82E00E94C73CFA
:107D2000D9CE0E94763C809309020E94763C8093D3
:107D300008028091060190910701880F991F909386
:107D40000701809306010E94763C853409F4A6C0A1
:107D500080910C028E7F80930C020E94763C8032D0
:107D600009F0B8CE8091C00085FFFCCFF092C6002C
:107D7000609108027091090261157105B9F140E046
:107D800050E080910C02A82FA170B82FB27011C0E2
:107D9000BB2309F45CC0E0910601F0910701319624
:107DA000F0930701E09306014F5F5F4F46175707B7
:107DB000E8F4AA2369F3F999FECF209106013091E6
:107DC000070132BD21BDF89A90B58091C00085FFB2
:107DD000FCCF9093C6002F5F3F4F30930701209355
:107DE00006014F5F5F4F4617570718F38091C00099
:107DF00085FDE5CE8091C00085FFF8CFE0CE81E023
:107E00000E94C73C67CE0E94763C803209F08CCE3F
:107E10008091C00085FFFCCFF092C6008091C00029
:107E200085FFFCCFE092C6008091C00085FFFCCFAB
:107E3000D092C6008091C00085FFFCCFC092C600E2
:107E40008091C00085FFFCCFB092C60043CEE09188
:107E50000601F091070194918091C00085FFFCCF4D
:107E60009093C6009CCF80E10E94C73C33CE0E9415
:107E7000763C0E94763C182F0E94763C112309F430
:107E800083C0113009F484C08FE00E94C73C22CE29
:107E900080910C02816080930C02E5CE80910C02EF
:107EA000816080930C0259CF809107018823880F4D
:107EB000880B8A2180930B02809106019091070123
:107EC000880F991F90930701809306018091080203
:107ED00080FF09C080910802909109020196909359
:107EE000090280930802F894F999FECF1127E091D6
:107EF0000601F0910701C8E0D1E08091080290915D
:107F00000902103091F40091570001700130D9F34B
:107F100003E000935700E89500915700017001308D
:107F2000D9F301E100935700E89509901990009169
:107F3000570001700130D9F301E000935700E89534
:107F40001395103498F011270091570001700130FB
:107F5000D9F305E000935700E895009157000170B0
:107F60000130D9F301E100935700E895329602976A
:107F700009F0C7CF103011F00296E5CF112480919F
:107F8000C00085FFB9CEBCCE8EE10E94C73CA2CD19
:0C7F900085E90E94C73C9ECDF894FFCF0D
:027F9C00800063
:040000030000780081
:00000001FF